:020000040800F2
:10000000D0A40020F97200080173000803730008EF
:10001000057300080773000809730008000000005A
:100020000000000000000000000000000B7300084A
:100030000D730008000000000F730008050700089A
:100040001373000813730008137300081373000878
:100050001373000813730008137300081373000868
:100060001373000813730008137300081373000858
:100070001373000813730008137300081373000848
:100080001373000813730008137300081373000838
:100090001373000813730008137300081373000828
:1000A0001373000813730008137300081373000818
:1000B000D9060008EF060008137300081373000840
:1000C00013730008137300081373000813730008F8
:1000D000137300081906000849060008790600088D
:1000E00013730008137300081373000813730008D8
:1000F00013730008137300081373000813730008C8
:1001000013730008137300081373000813730008B7
:10011000A90600081373000813730008137300087E
:100120001373000813730008137300081373000897
:100130001373000813730008137300081373000887
:100140001373000813730008137300081373000877
:100150001373000813730008137300081373000867
:100160001373000813730008137300081373000857
:100170001373000813730008137300081373000847
:100180001373000800F002F800F05BF80AA090E892
:10019000000C82448344AAF10107DA4501D100F042
:1001A00050F8AFF2090EBAE80F0013F0010F18BFB4
:1001B000FB1A43F00103184734BA000054BA000098
:1001C000103A24BF78C878C1FAD8520724BF30C883
:1001D00030C144BF04680C60704700000023002455
:1001E00000250026103A28BF78C1FBD8520728BF47
:1001F00030C148BF0B60704766290BF0AF8264299D
:1002000007F0EE81782907F02782632907F06D87D0
:10021000732907F07287002070471FB507F007FBAE
:1002200008F006F80400002000210AF08FF9401CB5
:100230006060002000210AF073F9E0601FBD10B576
:1002400010BD08F069F91146FFF7E7FF00F0DCF890
:1002500008F012FC03B4FFF7F2FF03BC08F082FEC3
:100260000B49D1F800C04A685CF8043B1068184498
:1002700042F8040B8C4528BFA1F1DC0C8A4228BF50
:10028000A1F1DC02C1F800C04A6020F000407047D4
:10029000649E002010B5002807DA0A07140EB14A40
:1002A00000F00F031B1FD45403E00A07130EAE4ADD
:1002B000135410BD10B500214FF0804006F0B2F885
:1002C00000BF4FF0804006F0B1F80228F9D310BD0E
:1002D00010B5044602E0FFF7EDFF641E002CFAD1D2
:1002E00010BD10B504F009FD10BD10B504469F48BF
:1002F000046001E0FFF7F5FF9C4800680028F9D191
:1003000010BD10B502F01FFC04462CB1984802F055
:10031000A0FE974802F060FF10BD10B503F0A4FBEB
:1003200010BD10B50DE0934800F00EFF0446924852
:1003300081888088401C82B28F4882808F484454D4
:1003400000BF8C4800888B4949888842EBD110BD9A
:1003500010B500F029F901220021084600F07EFBCB
:10036000FFF7BFFF10BD10B5854800684FF47A71E4
:10037000B0FBF1F4601EB0F1807F01D301200FE0EB
:10038000601E4FF0E02148610F214FF0FF30FFF772
:1003900081FF00204FF0E0218861072008610020E4
:1003A00008B100BFFEE70021481EFFF773FF10BD34
:1003B00010B507F021F800214FF0006004F030FB89
:1003C000FFF7D1FF4FF4FA60FFF78FFF4FF4E130F2
:1003D00000F076FD4FF4E13003F0D2FD4FF4E13050
:1003E00001F0BCFC00F082FCFFF77BFF01F05BF842
:1003F00000F00AFD00F035FD01F05CFC012000F08A
:100400000DFBFFF76EFF10BDFFF7D2FFFFF7A0FF58
:100410005CA000F001FF7CE0FFF783FF534890F8F9
:100420001704642807D10020504981F81704FFF70A
:1004300074FFFFF756FF4D4890F82B04012814D1A4
:1004400000204A4981F82B0401F0F0F800214A48C5
:1004500081804FF48051494807F085FA4FF480516C
:100460004C4807F080FAFFF73CFF404890F82E0414
:10047000012815D100203D4981F82E04002146486D
:10048000A0F8141801F059FD40F20D41434807F05F
:100490008CFA4FF48061424807F065FAFFF721FFBC
:1004A0003F48801F407800280CDD3D48801F407881
:1004B000401E3B49891F487001F046FD4FF4FA7019
:1004C000FFF706FF294890F82C04012807D10020E7
:1004D000264981F82C0403F01CFAFFF702FF234899
:1004E00090F82D04012807D10020204981F82D041F
:1004F00003F0DEFBFFF7F5FE2A4890F874040128AC
:1005000007D10020274981F87404FFF7FAFEFFF7AE
:10051000E8FE81E710B502460B460020002100BF2F
:1005200004E0545C0444A0B24C1CA1B29942F8DB34
:1005300010BD10B545F2555004F0D6FB062004F06E
:10054000D6FB40F6FF7004F0D5FB04F0D6FB04F0B8
:10055000D9FB10BD002101804180002241F204013D
:100560000A52704718ED00E000E400E0500000205F
:10057000280A002024710020248100209A100020E5
:10058000240000200D4B686F6974616F586F6E67AF
:10059000210000009A20002034950020388500209A
:1005A00030810020200C002010B500200E4981F879
:1005B000160481F81704A1F8180401200B490870EB
:1005C00000200B4908800B4981F873040A48FFF7A3
:1005D000C1FF0AA10D4806F09FFF0DA10B481E3078
:1005E00006F09AFF10BD0000500000202A81002074
:1005F00098100020200C0020247100207463702EBD
:1006000061702E6E67726F6B2E696F00FB70002039
:10061000313532383400000010B540F2255185489C
:1006200006F023FE78B140F22551824806F054FED0
:10063000804806F058FD0446E1B27F4800F078FD9E
:1006400032217E48817010BD10B540F225517C48A2
:1006500006F00BFE78B140F22551794806F03CFED9
:10066000774806F040FD0446E0B200F030FD462039
:10067000744981F8000210BD10B540F2255172484E
:1006800006F0F3FD78B140F225516F4806F024FEE4
:100690006D4806F028FD0446E0B200F0D4FC1E20B0
:1006A0006A49A1F8CC0010BD10B540F22551684848
:1006B00006F0DBFD78B140F22551654806F00CFEEE
:1006C000634806F010FD0446E0B200F0A7FC4621A6
:1006D000604880F8121410BD10B50121880706F09B
:1006E00010FB18B10121880706F01CFB10BD10B5E6
:1006F0000121594806F005FB18B10121564806F0C2
:1007000011FB10BD5548006820B154480068401ED8
:1007100052490860514890F816040A2806DA4F48F2
:1007200090F81604401C4D4981F816044B4890F887
:100730001704642806DA494890F81704401C474912
:1007400081F817044148B0F8CC0000280EDD3F487E
:10075000B0F8CC00401E3D49A1F8CC000846B0F8E6
:10076000CC0018B901203D4981F82D04354890F896
:10077000000200280EDD334890F80002401E314987
:1007800081F80002084690F8000218B901203349A8
:1007900081F82C042948807800280EDD27488078CD
:1007A000401EC1B225488170807830B900202C49A4
:1007B00008800120294981F82B04264890F812046A
:1007C00000280EDD234890F81204401EC1B22148D3
:1007D00080F8121490F8120418B901201F4981F80A
:1007E0002E041848B0F8760447F23151884214DAE2
:1007F0001448B0F87604401C1249A1F87604084663
:10080000B0F8760447F23051884206D101200D49F4
:1008100081F874040020A1F87604704710B54FF4F5
:10082000004005F002FB18B14FF4004005F01AFB40
:1008300010BD0000001001402471002098600020CD
:1008400000440040200C002000480040400B0020E5
:10085000004C00403495002000040040500000206F
:100860009810002070B505464FF47A7401E0601EC0
:1008700084B20221F84805F0A4FC08B9002CF6D196
:100880000CB9002070BD2946F34805F063FC4FF415
:100890007A7401E0601E84B20121EF4805F091FCFA
:1008A00008B9002CF6D1EC4805F051FCC0B2E9E7DC
:1008B00010B500242021E94804F0D4F90520FFF701
:1008C000D1FFFF20FFF7CEFF04462021E34804F0CC
:1008D000C7F9204610BD00B587B0DF4805F0D8FA4B
:1008E0000021DD4805F0DDFB0121080304F052FC86
:1008F0000121052004F00AFCE020059002208DF87B
:10090000180000208DF81A008DF819008DF81B00D2
:1009100005A9D34804F028F905221146D04804F06F
:10092000AEF905220621CE4804F0A9F905220721D7
:10093000CB4804F0A4F90020ADF800004FF4827019
:10094000ADF802000020ADF80400ADF80600ADF8E7
:1009500008004FF40070ADF80A001020ADF80C004C
:100960000020ADF80E000720ADF810006946BA4827
:1009700005F0B4FA0021B84805F0EEFB0121B648B5
:1009800005F08FFB01208DF8180000208DF81A006B
:100990002020059000208DF8190001208DF81B0003
:1009A00005A9AE4804F0E0F81020059005A9AB4871
:1009B00004F0DAF82021A94804F052F92021A748D0
:1009C00004F04EF907B000BD70B56FF0704400251B
:1009D0002021A24804F046F90520FFF743FF08E074
:1009E0000020FFF73FFF0546641E05F0010000B13F
:1009F00001E0002CF4D100BF2021984804F030F928
:100A000070BD10B52021954804F02CF90620FFF7A1
:100A100029FF2021914804F023F910BD10B50446A8
:100A2000FFF7EFFF20218D4804F01CF9D820FFF7D5
:100A300019FFC4F30740FFF715FFC4F30720FFF7C2
:100A400011FFE0B2FFF70EFF2021844804F008F9FF
:100A50000120FFF73DFCFFF7B7FF10BD70B504465E
:100A60000D461646FFF7CDFF20217C4804F0FAF82A
:100A70000220FFF7F7FEC4F30740FFF7F3FEC4F3CD
:100A80000720FFF7EFFEE0B2FFF7ECFE03E0287867
:100A9000FFF7E8FE6D1C301EA6F101018EB2F6D103
:100AA00020216E4804F0DCF870BD70B504460D4698
:100AB00016462021694804F0D5F80320FFF7D2FE3E
:100AC000C4F30740FFF7CEFEC4F30720FFF7CAFECA
:100AD000E0B2FFF7C7FE04E00020FFF7C3FE288066
:100AE000AD1C301EA6F101018EB2F5D120215B486C
:100AF00004F0B6F870BD70B504460D4616462021C8
:100B0000564804F0AFF80320FFF7ACFEC4F30740EB
:100B1000FFF7A8FEC4F30720FFF7A4FEE0B2FFF73B
:100B2000A1FE04E00020FFF79DFE28706D1C301E22
:100B3000A6F101018EB2F5D12021484804F090F8C9
:100B400070BD70B504460D4616462021434804F09A
:100B500089F80320FFF786FEC4F30740FFF782FE03
:100B6000C4F30720FFF77EFEE0B2FFF77BFE04E050
:100B70000020FFF777FE28706D1C301EA6F10101E2
:100B80008EB2F5D12021354804F06AF870BD2DE908
:100B9000F04706460F4615461C4695FBF4F01FFA33
:100BA00080F895FBF4F004FB10501FFA80F9B8F1BF
:100BB000000F0EDD06E0224639463046FFF7C1FF42
:100BC00026442744B8F10000A8F101011FFA81F87A
:100BD000F1D14A4639463046FFF7B3FFBDE8F0870A
:100BE0002DE9F041002400250026002720211B4884
:100BF00004F038F89F20FFF735FEA320FFF732FE00
:100C00000546A320FFF72EFE0646A320FFF72AFE87
:100C100007462021114804F023F8280440EA062062
:100C200040EA07042046BDE8F0812DE9F04706467A
:100C30000D4690464FF000090027BA46002405F003
:100C4000FF0909EB0800B0F5807F0BDC4246314616
:100C50002846FFF703FF3DE0003001400008024056
:100C600000000240C9F5807087B23A4631462846F6
:100C7000FFF7F4FE0120FFF72BFBA8EB070420464B
:100C8000E11704EB1161C1F30F2A3D443E44E11723
:100C900004EB11610912A4EB0124BAF1000F14DD79
:100CA0000CE04FF4807231462846FFF7D7FE06F578
:100CB000807605F580750120FFF70AFBBAF1000088
:100CC000AAF101011FFA81FAEBD1A2B231462846FE
:100CD000FFF7C4FEBDE8F08730B5034601E003F836
:100CE000011B141EA2F10102F9D130BD10B5FFF7AE
:100CF000F2FDFFF786FE10BD70B5054628A000F096
:100D00008BFA05F59B7404F10A0086B207E0200314
:100D1000FFF784FE601C84B2FA20FFF7D9FAB442D0
:100D2000F5DB70BD70B5044600250026012C01DB03
:100D3000032C02DD1EA000F06FFA012C04D0022C5F
:100D40000CD0032C1ED113E01FA000F065FA22483E
:100D50002249086005134FF4A07613E020A000F0AC
:100D60005BFA23481D49086005134FF4A57609E096
:100D700020A000F051FA23481849086005134FF4E9
:100D8000AA7600BF00BF07E02803FFF747FE681CF4
:100D900085B2FA20FFF79CFAB542F5DB70BD000082
:100DA0000D457261736520536563746F7273000043
:100DB0000D4572726F723A4E756D626572206F6684
:100DC0002050686F746F20000D457261736520506C
:100DD000686F746F20310D000160130034850020AE
:100DE0000D45726173652050686F746F20320D007D
:100DF000020014000D45726173652050686F746FB6
:100E000020330D0003A014001FB50121084604F093
:100E1000B0F91C208DF8000001208DF801008DF83C
:100E200002008DF80300684603F0C5FD48F69F40B8
:100E3000ADF8040040F2CF7002900020ADF80C0035
:100E4000ADF8060001A94FF0804005F0A2FA01229A
:100E50001146900705F03EFF0121880705F022FBAF
:100E60001FBD1FB50121022004F083F91D208DF85C
:100E7000000001208DF801008DF802008DF80300BC
:100E8000684603F098FD48F69F40ADF8040040F234
:100E9000E73002900020ADF80C00ADF8060001A983
:100EA000064805F076FA01221146044805F012FFC3
:100EB0000121024805F0F6FA1FBD000000040040C1
:100EC00010B588B00446F84806F008F80021F64846
:100ED00006F0DAF8002240F22551F34806F08AF9CC
:100EE0000121084604F012F90121102004F052F902
:100EF00007220921ED4803F0C2FE07220A21EB4830
:100F000003F0BDFE02208DF80C00000202900220CA
:100F10008DF80D0000208DF80E0001208DF80F00D7
:100F200002A9E24803F020FE02208DF80C00012007
:100F30008DF80F008002029002208DF80D0002A9AA
:100F4000DA4803F011FE4FF4E06003F02FFD252096
:100F50008DF8040002208DF8050001208DF80600B0
:100F60008DF8070001A803F026FD04940020ADF8D9
:100F70001C000C20ADF81A000020ADF81800ADF8E8
:100F80001600ADF8140004A9C74805F0F5FF0122CA
:100F900040F22551C44806F02DF9252000F01F022B
:100FA000012191404209920002F1E022C2F80011B1
:100FB00000BF0121BC4806F067F80121BC4803F0DE
:100FC0004FFE08B010BD0146BA480388801CC154CA
:100FD000801E0288801C805C0D2812D108E000224F
:100FE000B4480088401C83B2B2480380801CC254BD
:100FF000B0480088B0F5805FF1DD0020AD4A108078
:101000007047AC4A1288501CC21700EB12521213E0
:10101000A0EB0232A74B1A8000BFF1E7A649B1F856
:101020001428A1F6FC718854A349B1F81418491C7E
:1010300040F20D4291FBF2F302FB13118AB29E497A
:10104000A1F8142870479D494A88091D8854091F32
:101050004988491CC82291FBF2F302FB1311974AFD
:101060005180002295494B88091DCA541E21934A7C
:10107000A2F8CC10704791494A88091D8854091F6D
:101080004A88091D895C0D2912D108E000228B498C
:101090004988491C8BB289494B80091DCA5487492C
:1010A0004988B1F5007FF1DD0021844A5180704705
:1010B00082494988491CC82291FBF2F302FB1311B3
:1010C0007E4A51801E21A2F8CC1000BFEFE70146F6
:1010D0007B48B0F866027A4A11541046B0F86602AE
:1010E000105C0D2815D109E000227548B0F86602A1
:1010F000401C80B2724BA3F866021A547048B0F8D4
:101100006602B0F5007FEFDD00206D4AA2F86602AE
:1011100070476B4AB2F86622501CC21700EBD252DD
:101120005212A0EB4222664BA3F8662200BFEFE703
:1011300043885A1C4280021DD1544288B2F5805F18
:1011400001DB002242807047014608884B889842A4
:1011500001D1002070470B88581C0880081DC25C14
:101160000888B0F5805F01DB002008801046F1E7B9
:1011700010B5044600BF4021524806F060F8002830
:10118000F9D021464F4805F0AAFF10BD10B504461E
:1011900000BF40214B4806F052F80028F9D0214604
:1011A000484805F09CFF10BD70B504460D4603E0AD
:1011B00014F8010BFFF7DCFF281EA5F10101CDB2E9
:1011C000F6D170BD70B504460D4603E014F8010B6E
:1011D000FFF7CEFF281EA5F10101CDB2F6D170BDFB
:1011E00010B5044600BF40212F4806F028F800281B
:1011F000F9D021462C4805F072FF10BD10B5044609
:1012000000BF4021284806F01AF80028F9D02146EE
:10121000254805F064FF10BD70B5044602E028467D
:10122000FFF7DEFF14F8015B002DF8D170BD70B53B
:101230000546002403E03046FFF7E0FF641C2E5D06
:10124000002EF8D1142CF6D070BD70B586B00546CE
:101250000E46002400BF08E02A5D1BA101A806F08D
:101260005BF901A8FFF7D8FF641CB442F4DB17A0B8
:10127000FFF7D2FF06B070BD70B586B005460E46CA
:10128000002400BF09E035F814200FA101A806F0E2
:1012900043F901A8FFF7C0FF641CB442F3DB0BA0C5
:1012A000FFF7BAFF06B070BD001001400000024019
:1012B000000402409810002034950020400B0020CC
:1012C000200C0020004C0040256409000A0D00009D
:1012D00070B504460E4604E014F8015B2846FFF79B
:1012E0007FFF301EA6F101018EB2F5D170BD000066
:1012F0002DE9D0418DB006460C46B04647463A46E9
:10130000A8A1684606F008F96846FFF785FF287C23
:10131000401CA070287BE070287A60712879A07149
:101320002878E0710DB0BDE8D08130B58BB00446AF
:10133000B4F87000A0F26C7005907220005D401E41
:1013400004907320005D03907520005D029076206C
:10135000005D01907720005D0090684606F06BFB11
:10136000054628460BB030BD08B54FF4C06003F009
:101370001DFB29208DF8000001208DF801000020C0
:101380008DF8020001208DF80300684603F013FB7E
:1013900008BD10B500240121080703F0EAFE012072
:1013A00003F0CDFC012003F0AAFE002003F0A7FE0D
:1013B000012003F091FD4FF47A7400E0641E412097
:1013C00003F043FD10B9B4F57A7FF7D04FF4807085
:1013D00003F076FE7F2075494860FF20886040203A
:1013E0000860084604F08CF8012003F084FE03F046
:1013F000CBFF0121082004F003FC10BD1CB50446FE
:1014000060798DF80400A0798DF80500E0798DF8F9
:10141000060001A9002004F0F3F82078A0F5FA6096
:10142000C0B28DF8030007208DF80000A0788DF879
:101430000100E0788DF802006946002004F067F9A9
:1014400001201CBD0EB500205949C870102008703D
:10145000342048700020887004F0D2F80E205549DE
:101460008870062048701620C870002004F04FF9DC
:1014700040F2E670ADF8000009208DF802001A2055
:101480008DF803000C208DF8050000208DF8060073
:101490008DF807006846FFF7B1FF4AF2A55100201A
:1014A00004F034FC0EBD10B543A0FFF7B5FE0020DC
:1014B00004F039FC4AF2A551884207D0FFF769FFD2
:1014C000FFF7C0FF42A0FFF7A7FE0BE042A0FFF727
:1014D000A3FE0121080703F04CFE012003F02FFCBE
:1014E00003F052FF10BD0EB59DF807103C4880F880
:1014F00027149DF8061080F826149DF8051080F832
:1015000025149DF8031080F823149DF8021080F82C
:101510002214BDF800003249A1F820040EBD1CB50C
:10152000044601A9002004F0CDF86946002004F02B
:1015300054F99DF8030000F5FA6020809DF8010041
:10154000A0709DF80200E0709DF8040060719DF8A5
:101550000500A0719DF80600E0711CBD10B5214882
:10156000FFF7DDFF1F48C1791D4880F827141D488B
:1015700081791B4880F826141A484179184880F868
:1015800025141848C178164880F823141548817826
:10159000134880F82214134800881149A1F8200448
:1015A00010BD0000583D20256400000044000020CC
:1015B00000000020040000200D4B686F692054617A
:1015C0006F204D6F64756C65205254433A200000C3
:1015D0005B4E4F5D0A0900005B5945535D0A0900E7
:1015E0005000002038000020F0B503460024002001
:1015F00019E01F5C392F02DD1F5C373F01E01F5CE3
:10160000303F3D46471CDF5D392F03DD471CDF5D62
:10161000373F02E0471CDF5D303F3E4646EA051794
:101620001755801C641C8842E3D3F0BD2DE9F04FB0
:10163000ADF6AC0D0024A34600201F90F5A1F6489E
:1016400006F0FEF820B101201F90F34802F039F9AE
:10165000F2A1F14806F0F4F8F0B101201F900A223F
:1016600000210DF50A60FFF737FB292328220DF52D
:101670000A61E94800F077FA0DF50A6006F0B4F85F
:1016800012904FF48062E7491298FFF70EFA4FF478
:101690008061E448FFF7F0FDE3A1DF4806F0D0F8F1
:1016A000002871D001201F900A2200210DF50A6048
:1016B000FFF712FBD848801E407A3038D649891E81
:1016C000097A303901EB810100EB4109D248801ED3
:1016D000017BC07A303800EB800001EB4000A0F1C4
:1016E0003006CD48801EC17B807B303800EB800007
:1016F00001EB4000A0F13005C748801E817C407C92
:10170000303800EB800001EB4000A0F1300AEBB272
:10171000F2B209F0FF010AF0FF0000F0A4FA129003
:101720000E22C0491298FFF7C0F9C14801F07CFDB4
:10173000BF49C86809F046FD07468846BC490869A4
:1017400009F040FDCDE91001B948808ACDE906785D
:1017500008901098CDE90401B5484088B44909794A
:10176000B34A5279B24B5B7ACDE90032CDE902102F
:10177000AF48037AC27900E006E0AEA128A805F0E0
:10178000CBFE28A8FFF748FDB9A1A34806F058F8FA
:1017900068B101201F904FF47A72B6A1B6A002F092
:1017A000CEFAB84802F0B8FAB7A002F0B5FAB7A17D
:1017B000994806F045F898B101201F908202B5487B
:1017C00001689548FFF731FA2820FEF781FDB148FE
:1017D000B1A1026828A805F09FFE28A8FFF71CFD0C
:1017E000B0A18D4806F02CF8002834D001201F90BD
:1017F0000A2200210DF50A60FFF76EFA292328223C
:101800000DF50A61844800F0AEF90DF50A6005F0A7
:10181000EBFF12904FF4806282491298FFF745F96E
:101820000220FEF755FD91A0FFF7F6FC00240AE028
:101830007C4830F814209DA128A805F06DFE28A84A
:10184000FFF7EAFC641CB4F5806FF1DB00200DF6B5
:10185000AC0DBDE8F08F97A16F4805F0F1FF70B1B6
:101860002923282220A96C4800F07DF91BAA0A210F
:1018700020A8FFF7B9FE05211BA8FFF7A3FC8FA145
:10188000654805F0DDFFE0B12C23282224A9624839
:1018900000F069F929232C2223A95F4800F063F99D
:1018A00023A805F0A1FF8849C870C878FFF73AFA65
:1018B0001BAA0E2124A8FFF797FE07211BA8FFF7FC
:1018C00081FC82A1544805F0BBFF002848D02923A1
:1018D000282223A9504800F046F923A805F084FFE8
:1018E0007949C870CA78C97801EB81014FF49673C1
:1018F00003EB410102EB0131481E012223A9FFF74E
:10190000D4F826E07049CA78C97801EB81014FF418
:10191000967303EB410102EB013101EB0B004FF435
:1019200080624049FFF7C1F80BF5806B0220FEF79B
:10193000CFFC00240AE03B4830F814205BA128A823
:1019400005F0EAFD28A8FFF767FC641CB4F5806F7A
:10195000F1DB9DF88C10481EC0B223900029D1D134
:101960005DA12D4805F06CFF40B15DA000F06FFC5B
:101970000520FEF7BAFC5CA000F069FC5CA12648DB
:1019800005F05EFF00B35CA103C9CDE91001684614
:1019900000F0BFFC2022694608A805F0B2FF50A065
:1019A000089988470522322110A8099B98470220F0
:1019B000FEF79BFC1E2213A932200A9B98470521A3
:1019C00013A8FFF785FC00BF4DA1134805F038FFB1
:1019D000F0B100270020074617E01E2213A92D486A
:1019E0000068FFF788F89DF84C00FF2805D013A881
:1019F000FFF712FC1DA0FFF70FFC264800681E3001
:101A000024490860781CC0B207461E2FE5DB00BFE2
:101A100000BF1CE7434F4D009A1000205241444440
:101A2000000000009A4000205254494D450000003B
:101A30009C7000205265616454696D653D25643A6F
:101A400025643A25642D25642F25642F25642C20D8
:101A50004C61743D2025662C204C6F6E673D20251F
:101A6000662C2053706565642025640A0D00000013
:101A7000415400004F4B0D0041542B514953454EEA
:101A8000440D0000200C00201A00000053454E4475
:101A9000000000000C0000204164643D202564200B
:101AA0000D0000005245414400000000253032582E
:101AB0000000000043414D495000000054616B6537
:101AC0006150686F746F00002A810020476574615F
:101AD00050686F746F0000004372656174650000A8
:101AE00044756E672E6E76004E762E44756E6700D6
:101AF0004F70656E0000000048614E6F6900000085
:101B00004C69737466696C650000000010B502468C
:101B10000B464FF6FF7109E010784840C0B2064C02
:101B200034F8100080EA21215B1E521C002BF3D1F7
:101B3000C84380B210BD00005CB8000870B506460E
:101B40000D46002400BF06E0285DB04201D12046CA
:101B500070BD601CC4B2284605F0A8FEA042F3D8B0
:101B60004FF0FF30F4E72DE9F05F054688469146D7
:101B70009A4629464846FFF7E1FF06462946504661
:101B8000FFF7DCFF07464FF0000B701C08B1781C14
:101B900010B90020BDE8F09FB81B012801DC00202F
:101BA000F8E7701C04B208E02A5D5846411C0FFAA1
:101BB00081FB08F80020601C04B2BC42F4DB012069
:101BC000E8E72DE9F04106460C460027002508E02D
:101BD000605DB04200D17F1C022F00D106E0681C7E
:101BE000C5B2204605F062FEA842F1D800BF605D94
:101BF000BDE8F08170B504460025FEF731FB2C49A5
:101C000091F82714451A95FBF4F004FB105070BDB1
:101C100070B504461E2B10DA651E05EB450606EB73
:101C2000C505DC2606EB4535C1EB011602EB860641
:101C3000C6EB461605EB460014E0651E05EB4506AF
:101C400006EBC505DC2606EB4535C1EB0116B600F3
:101C5000C6EB461605EB4605C2EB421605EB4605FC
:101C600005F11F0070BD70B504461E2B0EDA651E0F
:101C700005EB8505032606EB4535C1EB011602EBA6
:101C80008606C6EBC60605EB86000FE0651E05EB73
:101C90008505032606EB4535C1EB011602EB8606EA
:101CA000C6EBC60605EB860505F10E0070BD00000B
:101CB000500000201CB50121022003F027FA012169
:101CC000042003F023FA0220009001208DF8040084
:101CD00000208DF806008DF8050001208DF8070022
:101CE00069461C4802F040FF012000908DF8040076
:101CF00000208DF806008DF8050001208DF8070002
:101D00006946144802F030FF4FF4807000900120C3
:101D10008DF8040000208DF806008DF805000120E4
:101D20008DF8070069460C4802F01EFF1CBD10B577
:101D30000221084802F087FF0446012C04D1022149
:101D4000044802F08FFF03E00221024802F088FFFE
:101D500010BD0000000402400008024010B588B029
:101D600004469C4805F0BAF800219A4805F08CF921
:101D7000002240F22551974805F03CFA0121042049
:101D800003F0C4F90121C80403F0F3F908220A2181
:101D9000914802F074FF08220B218F4802F06FFF78
:101DA00002208DF80C004002029002208DF80D00F8
:101DB00000208DF80E0001208DF80F0002A9864842
:101DC00002F0D2FE02208DF80C0001208DF80F00E9
:101DD000C002029002208DF80D0002A97E4802F098
:101DE000C3FE4FF4E06002F0E1FD34208DF8040002
:101DF00002208DF8050001208DF806008DF80700FF
:101E000001A802F0D8FD04940020ADF81C000C20BD
:101E1000ADF81A000020ADF81800ADF81600ADF8C6
:101E2000140004A96B4805F0A7F8012240F22551DF
:101E3000684805F0DFF9342000F01F0201219140CD
:101E40004209920002F1E022C2F8001100BF012114
:101E5000604805F019F908B010BD2DE9F0418EB0C9
:101E600004460E464FF480670025A846605D55285D
:101E700007D0E81C205C232803D000200EB0BDE86A
:101E8000F081681C205C48281FD1681D205C522806
:101E90001BD1A81C205CB07005F10B00205C707099
:101EA00072784EA1684605F037FB4D48C278C0787D
:101EB00000EB80004FF4967303EB400002EB003020
:101EC000411E01226846FEF7B0FE681C205C4528D2
:101ED00031D1681D205C46282DD105F10B0085B25B
:101EE00009E02846691C8DB2225C4046411C1FFA5D
:101EF00081F8B11D0A54381EA7F101018FB2F0D14B
:101F000038484FF480620168B01DFEF78EFE012054
:101F1000FEF7DEF9334834A1026801A805F0FCFAA7
:101F200001A8FFF779F92F48006800F580602D4976
:101F30000860FF20A2E70120A0E710B52849294842
:101F4000001DFFF78AFF10BD00B58DB0002009907D
:101F50000A900B900C9027A103C9CDE9020127A19B
:101F600003C9CDE9000102A909A805F0BEFC1C487F
:101F7000827824A108A805F0CFFA08A909A805F0DD
:101F8000B4FC174802781FA108A805F0C5FA08A9F3
:101F900009A805F0AAFC694609A805F0A6FC1048A6
:101FA0000078401C0E4908700846407808B90120A6
:101FB000087004AA0E2109A8FFF716FB062104A841
:101FC000FFF700F9002004900590069007900DB0EF
:101FD00000BD0000004C00400008024025630000E6
:101FE0002A810020348500204164643D202564203E
:101FF0000D0000003535343500000000303032333C
:102000000000000025303258000000002DE9FF419B
:1020100006460D4637461AE0102269462846FEF766
:102020006AFD1035002410E017F8011B1DF80400AC
:10203000814203D0002004B0BDE8F0811DF8040007
:1020400008B90120F7E7601CC4B2102CECD3E3E719
:1020500010B50346F6491A4604E010784140F548A9
:102060004143521C10780028F7D14FF6FE70B1FBA7
:10207000F0F400FB1410411C88B210BD30B50346CB
:10208000002017E013F82040012505EB80055D5D79
:1020900044EA0524022505EB80055D5D44EA05441C
:1020A000032505EB80055D5D44EA056441F82040A9
:1020B000441CA0B29042E5DB30BD30B503460020A1
:1020C0000BE013F81040012505EB40055D5D44EA87
:1020D000052421F81040441CA0B29042F1DB30BD31
:1020E00030B5034600200CE011F8104003F8104012
:1020F00031F810402412012505EB40055C55441CC5
:10210000A0B29042F0DB30BD30B5034600201CE0A9
:1021100011F8204003F8204031F82040C4F3072490
:10212000012505EB80055C5551F82040C4F30744B8
:10213000022505EB80055C5551F82040240E03254F
:1021400005EB80055C55441CA0B29042E0DB30BD3D
:1021500010B586B00446082202A90020FEF7CBFC89
:10216000022204A902A8FFF789FFB3490498884214
:1021700002D1059806B010BD0498401C00BBAE48C3
:102180000490AE480590022204A96846FFF7BCFF00
:10219000082200216846FEF748FD0120FEF7A5F859
:1021A000082202A90020FEF7A6FC022204A902A828
:1021B000FFF764FFA0490498884201D10598D9E748
:1021C0000020D7E7F0B589B00646002400BF0825F7
:1021D0006019B04200D9351B4FF6FF7101EA450284
:1021E000082101EB440005A9FEF785FCEAB201A92C
:1021F00005A8FFF762FF00270AE001A830F81700E2
:102200004FF6FF71884202D1E01909B0F0BD7F1C82
:10221000AF42F2D32C44B442D9D34FF0FF30F4E7AD
:102220007FB50546002611E0102269462846FEF7D4
:102230003CFC6C4606E0761C207810B9304604B0B1
:1022400070BD641C04A88442F5D31035ECE72DE979
:10225000FE43814600277AA0FEF7DEFF4FF480653B
:1022600000240EE0022202A93846FEF744FC9DF845
:102270000800FF2800D106E007F11E00C7B2601C6D
:10228000C4B21E2CEEDB00BF601C68431FFA80F84E
:102290002846FFF797FF00BF484605F007FBC6B288
:1022A0004846FFF7D5FEADF80000ADF802800222E7
:1022B000694601A8FFF714FF601C05FB00F104222A
:1022C00001A8FEF7B2FC0520FEF70FF8601C68437A
:1022D000011D32464846FEF7A8FC0520FEF705F82A
:1022E000C4EB0410410032464846FEF79EFC052030
:1022F000FDF7FBFF1E2000FB0461042201A8FEF78E
:1023000094FC0220FDF7F1FF51A0FEF785FFBDE828
:10231000FE8310B588B0044620225249684605F075
:10232000F0FA20226946204605F0EBFA08B010BD0D
:1023300070472DE9F04F97B08346894600254AA0A3
:10234000FEF76AFF3CB9202201A9584605F0D9FAE8
:1023500017B0BDE8F08FA4B24846FFF779FE80467B
:1023600062E00827E819A04200D9671B4FF6FF7109
:1023700001EA4702082101EB450013A9FEF7BBFB68
:1023800008220CA913A8FFF798FE002644E00CA829
:1023900030F8160040453DD100200B90082101EB9C
:1023A0004401AA1902EB820201EB42000A2210A9A1
:1023B000FEF7A1FB032209A910A8FFF75FFE04EBBB
:1023C0004400082101EB80010B9801EB800A514683
:1023D0004846FFF71BFE80B1099805900A980690C1
:1023E00000200790A819089022A0FEF715FF2022D0
:1023F00001A9584605F085FAAAE70CA830F816009E
:102400004FF6FF71884205D1202201A9584605F0F8
:1024100078FA9DE73D44761CBE42B8D3202201A93C
:10242000584605F06EFA93E7A5429AD300BF8FE7AE
:10243000C59D1C81930100014C5596FA5802F6186F
:102440000D4372656174696E6720210D0000000004
:10245000436F6D706C65746520637265617465208F
:10246000210D00005CBA00080D204F70656E210D33
:10247000000000004F70656E6564210D00000000D3
:1024800070470000FE49D1F86C14491CFC4AC2F8A0
:102490006C141146D1F86C1442F21072914203D9B7
:1024A0000021F74AC2F86C14242810D10021F44A04
:1024B00082F86512114691F8652291F86512491C5F
:1024C000EF4B83F8651203F2012188540BE0EC49CD
:1024D00091F8652291F86512491CE94B83F8651261
:1024E00003F201218854E64991F8681201290FD1BD
:1024F000E349B1F86622B1F86612491CE04BA3F833
:1025000066121946885400211A46B2F86622995478
:10251000DB4991F8011224292ED1D94991F80212F0
:10252000472929D1D64991F803124E2924D1D449FB
:1025300091F8041252291FD1D14991F805124D2961
:102540001AD1CF4991F80612432915D1CC4991F8F7
:102550006512062910D1CA4991F8681261B924217F
:10256000C74A1170472151704E2191705221D1708C
:102570004D211171432151710021C14A82F801128C
:102580000022BF4981F8022281F8032281F8042247
:1025900081F8052281F806220621B94AA2F86612BE
:1025A000012182F8701482F86812114691F8011224
:1025B000242907D0114691F86512062902DA002174
:1025C00082F870140D280CD1AD4991F868120129D8
:1025D00007D10021AA4A82F868120121A94A82F88B
:1025E0002C14A74991F86512642903DB0021A44A41
:1025F00082F86512A249B1F86612B1F5007F03DBDB
:1026000000219F4AA2F8661205219D4A82F86A14A9
:10261000704770B505460026012403E0285D46405A
:10262000601CC4B2284605F041F9401EA042F5D80E
:10263000304670BD30B5B7B064211EA805F0B5F9BD
:10264000642105A805F0B1F98FA2D2E90131106823
:10265000D268CDE902310492019000242422204660
:10266000641C05A90A5447222046641C0A545022BF
:102670002046641C0A5452222046641C0A544D22EF
:102680002046641C0A5443222046641C0A542C220F
:102690002046641C0A547B4890F825040A2190FBCC
:1026A000F1F03030C2B22046641C05A90A547548C6
:1026B00090F825040A2190FBF1F201FB1200303062
:1026C000C2B22046641C05A90A546E4890F826043C
:1026D0000A2190FBF1F03030C2B22046641C05A9FB
:1026E0000A54684890F826040A2190FBF1F201FB95
:1026F00012003030C2B22046641C05A90A54614859
:1027000090F827040A2190FBF1F03030C2B2204645
:10271000641C05A90A545B4890F827040A2190FB21
:10272000F1F201FB12003030C2B22046641C05A950
:102730000A542C222046641C0A5441222046641C60
:102740000A542C222046641C0A540820FFF752FA2F
:102750003130C2B22046641C05A90A540820FFF794
:1027600049FA3130C2B22046641C05A90A54082037
:10277000FFF740FA3130C2B22046641C05A90A5462
:102780000820FFF737FA3130C2B22046641C05A991
:102790000A542E222046641C0A540820FFF72AFA05
:1027A0003130C2B22046641C05A90A540820FFF744
:1027B00021FA3130C2B22046641C05A90A5408200F
:1027C000FFF718FA3130C2B22046641C05A90A543A
:1027D0000820FFF70FFA3130C2B22046641C05A969
:1027E0000A540820FFF706FA3130C2B22046641CB2
:1027F00005A90A540820FFF7FDF93130C2B220467E
:10280000641C05A90A540820FFF7F4F93130C2B25C
:102810002046641C05A90A542C222046641C0A5434
:102820004E222046641C0A542C222046641C0A5462
:102830000120FFF7DFF93030C2B22046641C05A941
:102840000A540820FFF7D6F93030C2B22046641C83
:1028500005A90A540820FFF7CDF93130C2B220464D
:10286000641C05A90A540820FFF7C4F93130C2B22C
:102870002046641C05A90A540820FFF7BBF90BE0A9
:10288000200C0020500000203031323334353637F0
:1028900038394142434445463130C2B22046641C77
:1028A00005A90A542E222046641C0A540820FFF76A
:1028B000A1F93130C2B22046641C05A90A5408208F
:1028C000FFF798F93130C2B22046641C05A90A54BA
:1028D0000820FFF78FF93130C2B22046641C05A9E9
:1028E0000A540820FFF786F93130C2B22046641C32
:1028F00005A90A540820FFF77DF93130C2B22046FD
:10290000641C05A90A540820FFF774F93130C2B2DB
:102910002046641C05A90A540820FFF76BF93130E2
:10292000C2B22046641C05A90A542C222046641C0D
:102930000A5445222046641C0A542C222046641C5A
:102940000A540120FFF756F93030C2B22046641C09
:1029500005A90A540120FFF74DF93130C2B22046D3
:10296000641C05A90A540820FFF744F93130C2B2AB
:102970002046641C05A90A542E222046641C0A54D1
:102980000820FFF737F93130C2B22046641C05A990
:102990000A542C222046641C0A540820FFF72AF906
:1029A0003130C2B22046641C05A90A540820FFF742
:1029B00021F93130C2B22046641C05A90A5408200E
:1029C000FFF718F93130C2B22046641C05A90A5439
:1029D0002E222046641C0A540820FFF70BF93130E0
:1029E000C2B22046641C05A90A542C222046641C4D
:1029F0000A54FE4890F823040A2190FBF1F030308D
:102A0000C2B22046641C05A90A54F84890F8230471
:102A10000A2190FBF1F201FB12003030C2B22046D5
:102A2000641C05A90A54F14890F822040A2190FB7D
:102A3000F1F03030C2B22046641C05A90A54EB48BC
:102A400090F822040A2190FBF1F201FB12003030D1
:102A5000C2B22046641C05A90A54E448B0F8200418
:102A60004FF47A7190FBF1F03030C2B22046641C12
:102A700005A90A54DD48B0F820040A2190FBF1F2C0
:102A800001FB12003030C2B22046641C05A90A5472
:102A90002C222046641C0A542A222046641C0A5414
:102AA00005AAD3A11EA804F037FD1EA8FFF7B1FDAB
:102AB0000546C01705EB1070001101A90A5C2046FD
:102AC000641C05A90A541EA8FFF7A3FD0546C017FC
:102AD00005EB10700011A5EB001001A90A5C20465F
:102AE000641C05A90A540A222046641C0A540D22BB
:102AF0002046641C0A54BF4804F0B4FE05AABCA1D9
:102B00001EA804F009FD1EA8FEF786FB37B030BDF5
:102B100000200AE0B7490A5CB7490A54411C89B24F
:102B20000846B1F5007F00DB08E0B249095C0D29D9
:102B300004D0B04A411C515C0A29EBD100BF0022ED
:102B4000AD490A5470472DE9FE430024002000904F
:102B50000190029000258146A6484078242813D190
:102B6000A448807847280FD1A248C0784E280BD1BE
:102B7000A0480079522807D19E4840794D2803D1BA
:102B80009C488079432802D00020BDE8FE83FFF7EF
:102B9000BFFF01E0601CC4B29748005D2C2801D043
:102BA000502CF7DB601CC4B29348611C405C303889
:102BB0009149095D303901EB810100EB4100C1B25F
:102BC0008E4880F87510A01CC4B28B48611C415C13
:102BD0003039005D303800EB800001EB4000C1B2BD
:102BE000864880F87610A01CC4B28348611C415C02
:102BF0003039005D303800EB800001EB4000C1B29D
:102C00007E4880F87710A01CC4B201E0601CC4B2FA
:102C10007948005D2C2801D0502CF7DB601CC4B231
:102C20007548005D562804D10020744981F87E0063
:102C3000ABE77148005D412803D101206F4981F85D
:102C40007E0001E0601CC4B26B48005D2C2801D0FE
:102C5000502CF7DB601CC4B26749621C895C3039B8
:102C6000654A125D303A02EB820201EB420008F045
:102C700019FC6249C866A01CC4B209E02046611C68
:102C8000CCB25D490A5C2846691CCDB20DF8002023
:102C90005948005D2C2801D0502CEFDB601CC4B2D9
:102CA000502C01DB002070E700200DF8050068467D
:102CB00006F0A8FE074607F05FFC06464E48005D9A
:102CC0004E280BD14E49304608F00AFB07464B48C8
:102CD000C16E384608F0A2FA4849C8664648005D09
:102CE00053280BD14649304608F0FAFA07464348C4
:102CF000C16E384608F092FA4049C8663F49C86E2E
:102D0000404908F0E7FB3D49C86601E0601CC4B2D9
:102D10003948005D2C2801D0502CF7DB601CC4B270
:102D2000502C01DB002030E7002000900190029041
:102D30003149095D3039642251432F4A631CD25C0A
:102D4000303A02EB820201EB42032B49A21C895C60
:102D50003039581808F0A6FB28498866E01CC4B230
:102D6000002509E02046611CCCB223490A5C2846B4
:102D7000691CCDB20DF800201F48005D2C2801D041
:102D8000502CEFDB601CC4B200200DF80500684633
:102D900006F038FE074607F0EFFB06461648005DD2
:102DA00057280BD11649304608F09AFA07461348BF
:102DB000816E384608F032FA104988660F49886EED
:102DC000104908F087FB0D4988660B48005D4528CF
:102DD0000BD10B49304608F083FA07460748816E4D
:102DE000384608F01BFA054988660FE050000020BD
:102DF00025730000200C00201A070020280900205D
:102E000000007042000080BF601CC4B2FE48005D3C
:102E10002C2801D0502CF7DB601CC4B2002000909D
:102E200001900290002511E0F748005D2E2802D1A4
:102E3000601CC4B20AE02046611CCCB2F2490A5CB4
:102E40002846691CCDB20DF8002000BFEE48005D99
:102E50002C28E9D1684604F0C7FC074608F022FB9D
:102E60008146EA49484608F035FB8146E84948462C
:102E700008F036FA8146484608F0F4FAC0B2E5494F
:102E8000A1F87A0001E0601CC4B2DF48005D2C2884
:102E900001D0502CF7DB601CC4B2DB49095D30392E
:102EA00064225143D84A631CD25C303A02EB82025E
:102EB00001EB4203D449A21C895C3039581808F050
:102EC000F1FA0646D449304608F004FB814601E099
:102ED000601CC4B2CC48005D2E2801D0502CF7DB1A
:102EE000601CC4B2C849621C895C3039C64A125D94
:102EF000303A02EB820201EB420008F0D3FA0646B8
:102F00003146484608F08AF98146484608F0AAFA50
:102F100080B2642190FBF1F7384608F0C3FABD494E
:102F2000C1F8840001E0601CC4B2B748005D2C28E1
:102F300001D0502CF7DB601CC4B2B348611C415C6B
:102F40003039005D303800EB800001EB4000C1B249
:102F5000B04880F87310A01CC4B2AB48611C415C3F
:102F60003039005D303800EB800001EB4000C1B229
:102F7000A84880F87210A01CC4B2A348611C415C30
:102F80003039005D303800EB800001EB4000A14992
:102F9000A1F87000A01CC4B20846C06E9F49C86664
:102FA0009C48806E88669B48B0F87A00A1F87A0049
:102FB000984890F87510994880F87510954890F8E1
:102FC0007610964880F87610924890F877109348DB
:102FD00080F877108F4890F87310904880F873103D
:102FE0008C4890F872108D4880F872108948B0F8BB
:102FF000700000F5FA608949A1F87000854890F8E2
:103000007E0081F87E008348D0F88400C1F88400F7
:10301000FF20BAE510B503460A46002000211946F4
:1030200000BF0FE0545C302C09DB545C392C06DC0B
:1030300000EB80046000545C303C204400E006E07B
:103040004C1CA1B2545C14B1B1F5806FEADB00BF37
:1030500010BD2DE9FC5F82464FF0000B6F4890F8E1
:1030600077000F280DDD6D4890F8751090F8760008
:103070000844C2B25846411C01F0FF0B0AF8002078
:103080000DE0664890F8751090F876000844401EF0
:10309000C2B25846411C01F0FF0B0AF800205F48FD
:1030A000FEF743F95D4948660846406E00909DF87A
:1030B00000205846411C01F0FF0B0AF800209DF843
:1030C00001205946481C00F0FF0B0AF801209DF82A
:1030D00002205846411C01F0FF0B0AF800209DF821
:1030E00003205846411C01F0FF0B0AF80020002283
:1030F0004B4B10464B4906F001FD06460F4647492B
:10310000C86E08F05FF8804632463B4607F04AFD3D
:10311000044607F0B3FC01909DF804205846411C7A
:1031200001F0FF0B0AF800209DF805205846411CCD
:1031300001F0FF0B0AF800209DF806205846411CBC
:1031400001F0FF0B0AF800209DF807205846411CAB
:1031500001F0FF0B0AF800200022314B10463149E4
:1031600006F0CCFC04460D462C49886E08F02AF87F
:10317000064622462B4607F015FD804607F07EFCEA
:1031800001909DF804205846411C01F0FF0B0AF8FD
:1031900000209DF805205846411C01F0FF0B0AF85D
:1031A00000209DF806205846411C01F0FF0B0AF84C
:1031B00000209DF807205846411C01F0FF0B0AF83B
:1031C0000020164890F87A205846411C01F0FF0B69
:1031D0000AF80020BDE8FC9F70B504460F4E96F833
:1031E000773096F8762096F8751096F87300FEF70B
:1031F0003AFD05460E2229462046FDF716FD102110
:10320000204604F0B0FB70BD1A0700200080E743A1
:103210000050C346280900200000C842280A0020A8
:10322000000018400000244001B5B2B0FDF759F885
:10323000FE48418832980180FC48801C807800F06C
:103240000F00219007F05EFC0022F94BCDE924012C
:103250001046F84906F052FCCDE91C01F348801CE9
:103260004088C1172E9000EB11700011199007F0E3
:1032700032FCCDE91A01DDE91C2307F093FC0022A2
:103280004FF08043CDE920011046EA4906F036FCB4
:10329000CDE91801E548801C8088C1172D9000EB0E
:1032A000117001112D98A0EB0110159007F013FC7F
:1032B000CDE91601DDE9182307F074FC0022DE4B8E
:1032C000CDE91C011046DB4906F018FCCDE91401DC
:1032D000D648801C8088C1172C9000EB117000111B
:1032E000119007F0F8FBCDE91201DDE9142307F096
:1032F00059FC0022D14BCDE918011046CD4906F00A
:10330000FDFBCDE91001C948801CC088C1172B9076
:1033100000EB117001112B98A0EB01100D9007F03C
:10332000DAFBCDE90E01DDE9102307F03BFC0022BA
:10333000C34BCDE914011046BE4906F0DFFBCDE9D1
:103340000C01BA48801CC088C1172A9000EB11708C
:103350000011099007F0BFFBCDE90A01DDE90C235C
:1033600007F020FC0022B74BCDE910011046B1490F
:1033700006F0C4FBCDE90801AC48801C0089C117E8
:10338000299000EB117001112998A0EB0110059014
:1033900007F0A1FBCDE90601DDE9082307F002FCF7
:1033A0000022A94BCDE90C011046A24906F0A6FB6C
:1033B000CDE908019D48801C0089C117289000EBC9
:1033C00011700011059007F086FBCDE90601DDE9DB
:1033D000082307F0E7FBCDE90A01DDE90C2307F03C
:1033E000FDF8CDE90E01DDE9102307F0F7F8CDE98E
:1033F0001201DDE9142307F0F1F8CDE91601DDE94A
:10340000182307F0EBF8CDE91A01DDE91C2307F0DA
:10341000E5F8CDE91E01DDE9202307F0DFF8CDE96D
:103420002201DDE9242307F0D9F8CDE9260107F0D0
:1034300025FB2F90DDE92F01FDF75AFF3098018819
:103440003298418030988178329801713098C178F3
:1034500032984171309841793298C17130988179B0
:10346000329801723098C179329841720022754BBE
:103470001046764906F042FBCDE924016B48801CDA
:10348000807A00F00F001D9007F03CFB0022684B93
:10349000CDE920011046674906F030FBCDE918015F
:1034A0006248801C4089C1172E9000EB11700011FA
:1034B000159007F010FBCDE91601DDE9182307F0A0
:1034C00071FB00224FF08043CDE91C0110465949A1
:1034D00006F014FBCDE914015448801C8089C11703
:1034E0002D9000EB117001112D98A0EB011011909F
:1034F00007F0F1FACDE91201DDE9142307F052FBE0
:1035000000224D4BCDE9180110464A4906F0F6FA63
:10351000CDE910014548801C8089C1172C9000EB33
:10352000117000110D9007F0D6FACDE90E01DDE91A
:10353000102307F037FB0022404BCDE91401104661
:103540003C4906F0DBFACDE90C013848801CC08903
:10355000C1172B9000EB117001112B98A0EB0110FB
:10356000099007F0B8FACDE90A01DDE90C2307F06C
:1035700019FB0022324BCDE9100110462D4906F00F
:10358000BDFACDE908012948801CC089C1172A90DD
:1035900000EB11700011059007F09DFACDE90601CE
:1035A000DDE9082307F0FEFA0022264BCDE90C01E5
:1035B0001046204906F0A2FACDE904011B48801C00
:1035C000008AC117299000EB117001112998A0EB16
:1035D0000110019007F07FFACDE90201DDE9042333
:1035E00007F0E0FA0022184BCDE908011046114916
:1035F00006F084FACDE904010C48801C008AC1174A
:10360000289000EB11700011019007F064FACDE9E9
:103610000201DDE9042307F0C5FACDE90601DDE981
:10362000082306F0DBFFCDE90A0111E098400020F5
:103630000000F03F00003040000008400000104053
:10364000000014400000184000001C40000024400E
:10365000DDE90C2306F0C2FFCDE90E01DDE9102300
:1036600006F0BCFFCDE91201DDE9142306F0B6FF38
:10367000CDE91601DDE9182306F0B0FFCDE91A0106
:10368000DDE91C2306F0AAFFCDE91E01DDE92023B8
:1036900006F0A4FFCDE92201DDE9242307F05AF862
:1036A000CDE9260106F068FF329908610022A24B9D
:1036B0001046A24906F022FACDE92401A048807CF8
:1036C00000F00F001D9007F01DFA00229D4BCDE980
:1036D000200110469C4906F011FACDE918019848DE
:1036E000408AC1172E9000EB11700011159007F061
:1036F000F2F9CDE91601DDE9182307F053FA0022AB
:103700004FF08043CDE91C0110468F4906F0F6F9D1
:10371000CDE914018A48808AC1172D9000EB117001
:1037200001112D98A0EB0110119007F0D4F9CDE90B
:103730001201DDE9142307F035FA0022834BCDE9AD
:1037400018011046804906F0D9F9CDE910017C48EE
:10375000808AC1172C9000EB117000110D9007F0BA
:10376000BAF9CDE90E01DDE9102307F01BFA0022BA
:10377000774BCDE914011046734906F0BFF9CDE946
:103780000C016F48C08AC1172B9000EB117001111A
:103790002B98A0EB0110099007F09DF9CDE90A01E3
:1037A000DDE90C2307F0FEF900226A4BCDE9100198
:1037B0001046654906F0A2F9CDE908016048C08AC3
:1037C000C1172A9000EB11700011059007F083F9E2
:1037D000CDE90601DDE9082307F0E4F90022564BA4
:1037E000CDE90C011046584906F088F9CDE90401ED
:1037F0005348008BC117299000EB117001112998D3
:10380000A0EB0110019007F066F9CDE90201DDE9B6
:10381000042307F0C7F900224F4BCDE908011046F9
:10382000494906F06BF9CDE904014548008BC11701
:10383000289000EB11700011019007F04CF9CDE9D0
:103840000201DDE9042307F0ADF9CDE90601DDE968
:10385000082306F0C3FECDE90A01DDE90C2306F0DA
:10386000BDFECDE90E01DDE9102306F0B7FECDE97E
:103870001201DDE9142306F0B1FECDE91601DDE900
:10388000182306F0ABFECDE91A01DDE91C2306F092
:10389000A5FECDE91E01DDE9202306F09FFECDE95E
:1038A0002201DDE9242306F055FFCDE9260106F0CB
:1038B00063FE3299C8602248418B3298818233B0CE
:1038C00000BD70B5044621460420FFF7A3FBC5B236
:1038D000012D04D0022D0AD0032D18D10FE01FA016
:1038E000FDF79AFC0120254981F873040FE024A01C
:1038F000FDF792FC0020214981F8730407E027A01E
:10390000FDF78AFC01201D4981F8720400BF00BF49
:1039100070BD00B599B0194890F87304012808D11A
:10392000164A26A1684603F0F7FD6846FDF774FCC9
:1039300000BF19B000BD0000000018400000244086
:103940009A4000200000F03F000030400000084096
:10395000000010400000144000001C402A2A2A2ABF
:10396000204869656E207468692062616E20746900
:103970006E20475053202A2A2A2A0D00200C0020AE
:103980002A2A2A2A205461742062616E2074696E8A
:1039900020475053202A2A2A2A0D00002A2A2A2AA0
:1039A0000D4869656E207468692074686F692067C6
:1039B00069616E2A2A2A2A0D000000000D47505323
:1039C0003A2025730000000030B587B00020069033
:1039D00000F086F94FF4FA7285A186A000F0AFF9E5
:1039E000002837D085A1874803F02AFF08B107B027
:1039F00030BD85A1834803F023FF48B3002400BFF6
:103A000018E08048005D3A280ED17E48611C405C79
:103A10008DF818007B48A11C405C8DF8190079488E
:103A2000E11C405C8DF81A0006A803F0DDFEC5B26B
:103A3000601CC4B2734803F039FFA042E1D82A46A3
:103A400073A101A803F068FD01A8FDF7E5FB00BF25
:103A5000FCF747FC00BFCAE7704988700021694A3B
:103A6000121FA2F8D610704700B595B014226CA1B1
:103A700003A803F046FF6FA0006802906CA00068E6
:103A80000190FCF72EFC6C4890F8570438B96A484E
:103A9000B0F85804401C6849A1F8580403E000201D
:103AA0006549A1F858046548007805280DDD64A033
:103AB000FDF7B2FB00205349091FA1F8D6000120F1
:103AC0005649887000205D4908705448807820B1BC
:103AD000012812D002287FD114E0FCF702FC00205C
:103AE0004849091FA1F8D6005348D0F85C04401C8F
:103AF00010B90220FFF7B0FF6EE0FCF7F2FB00F018
:103B0000B5FE69E0FCF7EDFB00204B4981F8570456
:103B10003C48001FB0F8D60005280AD14DA000F09F
:103B2000FBF84FF0FF304449C1F85C044CA0FDF7AE
:103B300073FB3448001FB0F8D6000A282AD14FF092
:103B4000FF303D49C1F85C0403A9494803F08AFEEF
:103B50004849474803F0C9FE02A9454803F0C5FE9D
:103B600044491E31424803F0C0FE01A9404803F019
:103B7000BCFE3F4800F0D0F83E4A1E323EA108A8E5
:103B800003F0CAFC08A8FDF747FB2C480078401C4E
:103B90002A4908701B48001FB0F8D6000A280DDD1E
:103BA0002548D0F85C04012808D10020FFF754FF15
:103BB00038A0FDF731FB0020204908701148001F94
:103BC000B0F8D600C82807DD1B48D0F85C040128EF
:103BD00002D00220FFF740FF00BF0A48001FB0F8E4
:103BE000D600401C0749091FA1F8D60015B000BD3A
:103BF0004F4B0D0041542B4353510D004552524F32
:103C000052000000440B00202B43535100000000E1
:103C10002B4353513D2025640D0000000900002076
:103C200041542B51494F50454E3D22544350222C74
:103C300022000000222C2200500000201200002050
:103C40000D5265736574204D6F64756C6520475324
:103C50004D0D090041542B5149434C4F53450D0024
:103C6000436C6F736520436F6E6E6563740D000067
:103C70004C9D0020FB7000204B6574206E6F692006
:103C800064656E20646961206368693A2025730D5C
:103C9000000000000D475052533A204B6574206ECF
:103CA0006F6920736572766572204F4B00000000CB
:103CB00010B506A1084803F0C3FD20B10120074953
:103CC000C1F85C0410BD00BFFCE70000434F4E4E3E
:103CD000454354204F4B0000440B0020500000206F
:103CE00010B50020FC494880FC4981F82C04C8220A
:103CF0000021F948001DFCF7EFFF10BD10B5044688
:103D000000BF4021F64803F09AFA0028F9D0214676
:103D1000F34803F0E4F910BD10B504460BE0207839
:103D2000FFF7ECFFFCF7DDFAEB48007810B12078E4
:103D3000FDF756FA641C20780028F0D110BD2DE95B
:103D4000F04105460E4614460027FFF7C9FFFCF771
:103D5000C8FA2846FFF7E0FF0020E04981F82D046B
:103D60001BE0DE4890F82D0468B13146DA48001DAA
:103D700003F066FD08B1012711E0FFF7B1FF002055
:103D8000D64981F82D04D54890F816040A2804DB9A
:103D90000A3C0020D14981F81604002CE1D100BF73
:103DA0003846BDE8F08110B50024CEA0FDF734FA06
:103DB00000BF0FE04FF49672D1A1D2A0FFF7BFFF72
:103DC00020B1D1A0FDF728FA012010BDFCF789FA37
:103DD000601CC4B2052CEDDBCDA0FDF71DFA002060
:103DE000F3E770B500250024002600BF00BFFCF7F4
:103DF00078FAFFF7D8FF04460CB1012070BD0CB172
:103E0000012E0FDD8021C44800F02CFF4FF4FA7022
:103E1000FCF75EFA8021C04800F022FF4FF4FA70F0
:103E2000FCF756FA05B9E2E70120E7E710B5C8222A
:103E30000021A948001DFCF74FFF0020A64948803B
:103E4000A1F8CC00C1F8D000A1F8D60010BD1CB577
:103E50000121042001F05AF90121102001F056F946
:103E600000208DF806008DF8070001208DF8040071
:103E70008020009003208DF805006946A64800F0D8
:103E800073FE402000906946A34800F06DFE40217B
:103E9000A14800F0E5FE80219F4800F0E1FE1CBD36
:103EA00010B588B004468E4803F018F800218C48FD
:103EB00003F0EAF8002240F22551894803F09AF90C
:103EC0000121880401F055F90121022001F01EF9B9
:103ED00007220A21914800F0D2FE07220B218F48C9
:103EE00000F0CDFE02208DF81C0000208DF81E0091
:103EF0004FF48060069001208DF81F0000208DF89F
:103F00001D0006A9854800F02FFE02208DF81C0038
:103F10008002069001208DF81F0006A97F4800F05E
:103F200023FE02940020ADF80C00ADF80E00ADF8B1
:103F30001000ADF814000C20ADF8120002A968487A
:103F400003F01AF84FF4E06000F030FD27208DF800
:103F5000040002208DF805008DF8060001208DF880
:103F6000070001A800F027FD012240F225515C481E
:103F700003F040F901215A4803F086F808B010BD5B
:103F800010B504462046FFF78BFFFFF760FFFFF7F1
:103F90004DFF10BD70B505460E46002400BF04E07D
:103FA000285DFFF7ABFE601C84B2B442F8DB70BD45
:103FB00010B5FCF796F95AA0FDF72EF94FF47A7276
:103FC0004FA15DA0FFF7BBFE4FF47A724CA15DA03C
:103FD000FFF7B5FE4FF47A7249A15DA0FFF7AFFE7F
:103FE0004FF47A7246A15DA0FFF7A9FE4FF47A72F2
:103FF00043A15DA0FFF7A3FE4FF47A7240A15DA03C
:10400000FFF79DFE4FF47A723DA15DA0FFF797FE8A
:104010004FF47A723AA15DA0FFF791FE4FF47A72E5
:1040200037A15DA0FFF78BFE4FF47A7234A15DA03B
:10403000FFF785FE4FF47A7231A15DA0FFF77FFE96
:104040004FF47A722EA15DA0FFF779FE4FF47A72D9
:104050002BA15DA0FFF773FE4FF47A7228A15DA03B
:10406000FFF76DFE4FF47A7225A15DA0FFF767FEA2
:1040700010BD10B5FFF79CFF10BD00205B49087014
:1040800002208870002048701349A1F8D600134917
:1040900081F8570481F82D04704710B5002454A00E
:1040A000FDF7BAF800BF0EE0642215A155A0FFF796
:1040B00046FE18B114A0FDF7AFF806E014A0FDF716
:1040C000ABF8601CC4B2052CEEDB00BF1420FCF77B
:1040D000FFF8FCF706F99DE0400B0020500000209F
:1040E000004800400D4B69656D20547261204B659E
:1040F00074204E6F69204D6F64756C65203A200006
:104100004F4B0D0041540D005B5945535D0D0000B0
:104110005B4E4F5D0D0000000008024000040240AD
:1041200044656C65746520313520534D53204D65D1
:1041300073736167650D000041542B434D47443D47
:10414000310D000041542B434D47443D320D0000DA
:1041500041542B434D47443D330D000041542B4304
:104160004D47443D340D000041542B434D47443DE1
:10417000350D000041542B434D47443D360D0000A2
:1041800041542B434D47443D370D000041542B43D0
:104190004D47443D380D000041542B434D47443DAD
:1041A000390D000041542B434D47443D31300D0043
:1041B00041542B434D47443D31310D0041542B4375
:1041C0004D47443D31320D0041542B434D47443D52
:1041D00031330D0041542B434D47443D31340D00E4
:1041E00041542B434D47443D31350D00090000201B
:1041F00041646420616E2049504865616465723A8B
:104200000000000041542B5149484541443D310DC7
:1042100000000000FDA0FCF7FFFF002411E0642275
:10422000AFF22411FEA0FFF78AFD20B1AFF22810F3
:10423000FCF7F2FF07E0AFF22810FCF7EDFF601C7F
:10424000C4B2052CEBDB00BF1420FCF741F8FCF7EF
:1042500048F8F7A0FCF7E0FF002411E06422AFF279
:104260006011F7A0FFF76BFD20B1AFF26410FCF70F
:10427000D3FF07E0AFF26810FCF7CEFF601CC4B2BA
:10428000052CEBDB00BF1420FCF722F8FCF729F823
:10429000EFA0FCF7C1FF002411E06422AFF2A011EF
:1042A000F0A0FFF74CFD20B1AFF2A410FCF7B4FF73
:1042B00007E0AFF2A410FCF7AFFF601CC4B2052CFE
:1042C000EBDB00BF1420FCF703F8FCF70AF8E9A0C9
:1042D000FCF7A2FF002411E06422AFF2DC11E8A099
:1042E000FFF72DFD20B1AFF2E010FCF795FF07E0DE
:1042F000AFF2E410FCF790FF601CC4B2052CEBDBBE
:1043000000BF1420FBF7E4FFFBF7EBFFDFA0FCF797
:1043100083FF002412E04FF4FA72AFF21C21E3A0F5
:10432000FFF70DFD20B1AFF22020FCF775FF07E08D
:10433000AFF22420FCF770FF601CC4B2052CEADB4E
:1043400000BF1420FBF7C4FFDBA0FCF765FF0024CF
:1043500012E04FF4FA72AFF25821DEA0FFF7EFFC43
:1043600020B1AFF25C20FCF757FF07E0AFF260200E
:10437000FCF752FF601CC4B2052CEADB00BF14201E
:10438000FBF7A6FFFBF7ADFF10BDF0B58DB00546FE
:10439000642700240026FBF7A4FFFFF7A1FC1DB94A
:1043A000D0A0FFF7B9FC02E0B5A0FFF7B5FC0020F4
:1043B000CE4981F82D0437E0CC4890F82D0428B37D
:1043C00000241DE0CA48005D302814DDC848005DA7
:1043D000392810DA3DB9C648025D3046711CCEB2AC
:1043E000C4490A5407E0C248025D3046711CCEB28F
:1043F000C04914310A54142E00DB06E0601CC4B21C
:10440000BB4803F053FAA042DCD800BFB74890F88D
:1044100016040A2806DBA7F10A0087B20020B34978
:1044200081F81604FBF75DFF002FC5D145B9B14AED
:10443000B1A1684603F070F86846FCF7EDFE08E0AD
:10444000AC4A1432B0A1684603F066F86846FCF73F
:10445000E3FE0DB0F0BD70B50025002412E04FF46E
:104460009672AFF26431AFF26430FFF768FC18B1B6
:10447000A9A0FCF7D1FE07E0681CC5B2C820FBF775
:1044800027FF641C052CEADB00BFFBF72AFF002492
:1044900023E0322200219748FCF71EFC0020FFF7A2
:1044A00074FF924890F82F04A0B1904890F830041F
:1044B00080B18E4890F8310460B18C4890F8320495
:1044C00040B18A4890F8330420B1884890F8340409
:1044D00000B11524FBF705FF641C052CD9DBC820AF
:1044E000FBF7F6FE002424E032220021814814303C
:1044F000FCF7F2FB0120FFF748FF7C4890F84304EB
:10450000A0B17A4890F8440480B1784890F8450406
:1045100060B1764890F8460440B1744890F847047A
:1045200020B1724890F8480400B11524FBF7D9FE79
:10453000641C052CD8DBC820FBF7CAFE7EA0FCF764
:104540006BFE002411E06422AFF24C417FA0FFF724
:10455000F6FB20B1AFF25040FCF75EFE07E0AFF291
:104560005040FCF759FE0125641C052CEBDB00BF15
:104570001420FBF7ADFEFBF7B4FE76A0FCF74CFE73
:10458000002411E06422AFF2884177A0FFF7D7FB47
:1045900020B1AFF28C40FCF73FFE07E0AFF2904055
:1045A000FCF73AFE0125641C052CEBDB00BF142050
:1045B000FBF78EFEFBF795FE6DA0FCF72DFE0024A9
:1045C00011E06422AFF2C8416CA0FFF7B8FB20B144
:1045D000AFF2CC40FCF720FE07E0AFF2CC40FCF796
:1045E0001BFE0125641C052CEBDB00BF1420FBF730
:1045F0006FFEFBF776FE64A0FCF70EFE012D03D0E4
:104600006422AFF20451CBE0D8E0000053656C6542
:104610006374206120436F6E74657874203A0000E3
:1046200041542B51494647434E543D300D00000044
:1046300053656C656374205443502F4950203A00F1
:1046400041542B51494D4F44453D300D0000000071
:104650005374617274205443502F49502054617335
:104660006B203A0041542B51495245474150500D5F
:104670000000000053686F7720434349443A00002C
:1046800041542B51434349440D0000004E6574775B
:104690006F726B20526567697374726174696F6EB3
:1046A000205374617475733A0000000041542B4329
:1046B0005245473D320D0000436F6E6E65637420B6
:1046C0007769746820495020416464726573733A55
:1046D0000000000041542B5149444E5349503D3194
:1046E0000D00000041542B47534E0D005000002098
:1046F000440B00207F04002047534D5F494D45493E
:104700003A2025730D00000053494D5F494D45493E
:104710003A2025730D0000002A2A2A2A2A2A2A4331
:104720006F6E6669677572652047534D2A2A2A2A7B
:104730002A2A2A0D0000000047534D5F4465666930
:104740006E655F50726F66696C653A0041545A0D30
:104750000000000047534D5F4563686F5F436F6D16
:104760006D616E643A0000004154450D0000000088
:1047700047534D5F4154434C49503A0041542B43F9
:104780004C49503D310D00005361766520436F6EFA
:104790006669677572652043757272656E743A005A
:1047A0004EA0FFF7CCFA20B1AFF2A460FCF734FDC5
:1047B00004E0AFF2A460FCF72FFD01251420FBF705
:1047C00087FDFBF78EFD47A0FCF726FD00240FE0D8
:1047D0006422AFF2D4614AA0FFF7B1FA18B14BA03E
:1047E000FCF71AFD06E04BA0FCF716FD0125641C42
:1047F000052CEDDB00BF1420FBF76AFDFBF771FD14
:1048000047A0FCF709FD002411E04FF49672AFF2C7
:1048100010714CA0FFF793FA20B1AFF21470FCF7BF
:10482000FBFC06E0AFF21870FCF7F6FC641C052CEC
:10483000EBDB00BF1420FBF74BFDFBF752FD70BD17
:1048400010B5FFF708FE3220FBF74FFDFFF725FC00
:104850003220FBF74AFDFFF710FC3220FBF745FD45
:10486000FFF707FC00203C49488010BD10B53A48CE
:10487000B0F8D6000A2812D004DC022807D0042899
:104880002AD105E0642812D0A02825D117E023E022
:1048900032A0FCF7C1FC38A0FFF73EFA1CE039A0BB
:1048A000FCF7BAFC80213B4800F0DCF914E03AA0A8
:1048B000FCF7B2FC8021374800F0D2F90CE0FFF79A
:1048C000BFFF4FF0FF303849C1F85C04002081F889
:1048D0005704FFF7C1F800BF00BF10BD4154265771
:1048E0000D00000053656C65637420534D53204DDB
:1048F00065737361676520466F726D61743A00007D
:1049000041542B434D47463D310D00005B54455803
:10491000545D0D005B4552524F525D0D000000008A
:10492000534D5320466F726D617428537561206C2E
:104930006169206C656E6820415420736175293A65
:104940000000000041542B434E4D493D322C312C88
:10495000302C300D00000000400B00200D2054686A
:104960007563206869656E20544154206D6F6475CD
:104970006C652047534D0D0041542B51504F574407
:104980003D310D00544154204E47554F4E20475362
:104990004D0D000000080240424154204E47554F43
:1049A0004E2047534D0D0000500000203249014376
:1049B000324A1160704770B5002100230F22C4787D
:1049C0001CB32E4C246804F4E064C4F5E064C4F322
:1049D0000721C1F10404E3B20A4144789C40E1B2EA
:1049E0008478144021430C07210E254C057861552D
:1049F000047804F01F050124AC4005786D11AD006A
:104A000005F1E025C5F8004109E0047804F01F0530
:104A10000124AC401B4D0678761145F8264070BD48
:104A2000194A0A400243154B1B1F1A60704739B1DF
:104A3000124A121D12680243104B1B1D1A6006E039
:104A40000E4A121D126882430C4B1B1D1A607047E0
:104A5000042808D14FF0E021096941F004014FF02A
:104A6000E022116107E04FF0E021096921F0040123
:104A70004FF0E022116170470000FA050CED00E0F4
:104A800000E400E080E100E080FFFF1F10B5044675
:104A90008C48844208D10121084600F08CFB00219B
:104AA000012000F088FB5EE08748844208D10121A4
:104AB000022000F080FB0021022000F07CFB52E08D
:104AC0008248844208D10121042000F074FB0021B7
:104AD000042000F070FB46E07D48844208D10121AB
:104AE000082000F068FB0021082000F064FB3AE099
:104AF0007848844208D10121102000F05CFB00219D
:104B0000102000F058FB2EE07348844208D10121A8
:104B1000202000F050FB0021202000F04CFB22E080
:104B20006E48844208D10121402000F044FB00215E
:104B3000402000F040FB16E06948844208D1012182
:104B4000802000F038FB0021802000F034FB0AE0D8
:104B50006448844207D10121801500F02CFB00211C
:104B6000A01500F028FB10BDF0B50A460021002377
:104B7000002400BF3DE0012505FA01F3156805EAB0
:104B800003049C4234D105684F000326BE40B54360
:104B9000056015794E00B540066835430560157906
:104BA000012D02D01579022D16D185684F000326FC
:104BB000BE40B543856055794E00B54086683543A3
:104BC0008560456801268E40B54345604568967905
:104BD0008E40B6B235434560C5684F000326BE40DF
:104BE000B543C560D5794E00B540C6683543C5604C
:104BF000491C1029BFD3F0BD4FF6FF7101600021A1
:104C0000017141718171C171704708B54FF48032F3
:104C10000092009A0A430092009AC261C161009A10
:104C2000C261C2690092C269009208BD02460020BA
:104C300013690B400BB1012000E0002070470146D2
:104C4000086980B270470246002053690B400BB1DF
:104C5000012000E0002070470146486980B270479B
:104C600001837047418370470AB1018300E04183AB
:104C700070474161704742694A4042617047F0B5F0
:104C8000002300244D07ED0E02FA05F3CE1000F1CB
:104C9000200555F826504E07F70E0F26BE40B543A7
:104CA000CF1000F1200646F82750CE1000F1200565
:104CB00055F8265045EA0304CE1000F1200545F8CA
:104CC0002640F0BD000002400004024000080240FF
:104CD000000C024000100240001402400018024084
:104CE000001C0240002002400E49086070470D4938
:104CF000486070470B49886070474AF6AA20094906
:104D0000086070474CF6CC40064908607047014681
:104D10000020044AD2680A400AB1012000E00020C5
:104D2000704700000030004010B50121080700F076
:104D300088FA00214FF0805000F083FA10BD2D4911
:104D400008627047014600202B4A106820F0E000FE
:104D50000843106070472749086170472549A03112
:104D6000086070472349A4310860704721494862B0
:104D7000704710B5024600201F4B186820F0030052
:104D8000104318601D4B1B6843F004031B4C236049
:104D9000012901D130BF00E020BF184B1B6823F070
:104DA0000403164C236010BD1348006840F0040053
:104DB000114908600846006840F0020008600F488A
:104DC000006840F004000D49086000BF00BF30BF1C
:104DD000704701460020084A52680A400AB1012083
:104DE00000E0002070470449096841EA8001024A56
:104DF0001160704700000E420070004010ED00E0AE
:104E0000FA48006840F00100F84908600020F749BE
:104E100008310860F5480068F5490840F349086022
:104E2000F448091D0860081F006820F48020091F4D
:104E300008600020ED490C31086070470021EB4A02
:104E4000921C117011460870704710B5014600227F
:104E5000002300204A11012A02D1E44C236808E013
:104E6000022A03D1E14C7034236802E0DF4C743431
:104E7000236801F01F02012494401C400CB1012062
:104E800000E0002010BD38B500200090002400256F
:104E900000BF3120FFF7D9FF05460098401C009065
:104EA0000098B0F5A06F01D0002DF2D03120FFF7AF
:104EB000CCFF08B1012400E00024204638BD0146A3
:104EC0000020CA4A106820F0F80040EAC1001060D3
:104ED0007047C949086070470021C44A7032117098
:104EE0001170012802D004280AD104E00121BF4A30
:104EF0007032117005E00521BC4A7032117000E07B
:104F000000BF00BF7047BD490860704770B5049C82
:104F100041EA82150126C6EB530645EA06450543DC
:104F200045EA0465B14E361D356070BDB24908666C
:104F30007047820142EA0172AC4B84331A607047B9
:104F4000AD4988667047AC49C86470470246002086
:104F5000A64B0833186820F0EC6042EA01031843BE
:104F6000A24B083318607047024600209F4B08335D
:104F7000186820F0784042EA010318439B4B08333D
:104F80001860704701460020984A0832106820F0E7
:104F9000030008431060704794480830006800F030
:104FA0000C00704701460020904A0832106820F03B
:104FB000F000084310607047014600208B4A083219
:104FC000106820F4E050084310607047014600204C
:104FD000864A0832106820F4604040EAC100106040
:104FE0007047F0B50021002200240225002602238C
:104FF0007E4F08373F6807F00C0121B1042905D026
:10500000082937D105E07E4F076036E07D4F076005
:1050100033E0764F3F1D3F68C7F38056734F3F1D07
:105020003F6807F03F036EB1764FB7FBF3F7DFF849
:10503000BCC10CF1040CDCF800C0CCF3881C07FBED
:105040000CF40CE06E4FB7FBF3F7DFF8A0C10CF1E6
:10505000040CDCF800C0CCF3881C07FB0CF4634F95
:105060003F1D3F68C7F301477F1C7D00B4FBF5F788
:10507000076002E0624F076000BF00BF5B4F083768
:105080003F6807F0F00109095F4F7A5C0768D74075
:105090004760564F08373F6807F4E051890A5A4F76
:1050A0007A5C4768D7408760504F08373F6807F4FD
:1050B0006041490B544F7A5C4768D740C760F0BDE8
:1050C000002100F44072B2F5407F0AD1474A08320D
:1050D000116821F4F8114D4A02401143434A083245
:1050E0001160424A70321268C0F30B031A433F4BFF
:1050F00070331A60704741494439086070473F492E
:1051000040390860704742490860704739B1374AF2
:10511000303212680243354B30331A6006E0334AAE
:10512000303212688243314B30331A60704739B1E4
:105130002E4A3432126802432C4B34331A6006E094
:105140002A4A343212688243284B34331A6070473B
:1051500039B1264A383212680243244B38331A6078
:1051600006E0224A383212688243204B38331A60F4
:10517000704739B11D4A4032126802431B4B40331D
:105180001A6006E0194A403212688243174B4033D6
:105190001A60704739B1154A443212680243134B02
:1051A00044331A6006E0114A4432126882430F4BBE
:1051B00044331A60704739B10C4A10321268024306
:1051C0000A4B10331A6006E0084A10321268824314
:1051D000064B10331A607047E1B1044A143212686A
:1051E0000243024B14331A6019E0000000380240F9
:1051F000FFFFF6FE1030002400004742800E4742B9
:105200000024F40000127A0013000020FFFCFF0FBE
:105210005C0147425B4A126882435A4B1A607047EE
:1052200039B1584A121D12680243564B1B1D1A60B1
:1052300006E0544A121D12688243524B1B1D1A602D
:10524000704739B14F4A0C32126802434D4B0C3350
:105250001A6006E04B4A0C3212688243494B0C3309
:105260001A60704739B1474A103212680243454B01
:1052700010331A6006E0434A103212688243414BF1
:1052800010331A60704739B13E4A3C32126802430B
:105290003C4B3C331A6006E03A4A3C321268824387
:1052A000384B3C331A60704739B1364A4032126885
:1052B0000243344B40331A6006E0324A40321268EF
:1052C0008243304B40331A60704739B12D4A443223
:1052D000126802432B4B44331A6006E0294A4432D9
:1052E00012688243274B44331A60704739B1254A0C
:1052F0004C3212680243234B4C331A6006E0214AB9
:105300004C32126882431F4B4C331A60704739B1DC
:105310001C4A5032126802431A4B50331A6006E09E
:10532000184A503212688243164B50331A60704745
:1053300039B1144AD21F12780243124BDB1F1A7084
:1053400006E0104AD21F127882430E4BDB1F1A7000
:1053500070470C486030006840F080700949603147
:105360000860704701460020064A083A12680A4061
:105370000AB1012000E0002070470249891F08702F
:10538000704700001438024008B500220092002047
:105390000021CA22FE4B1A6053221A60FC4A183AB6
:1053A000126822F0A002FA4B183B1A6000BFF84ABC
:1053B000183A126802F02001009A521C0092009ADA
:1053C000B2F5004F01D00029F1D0F14A183A126825
:1053D00002F020020AB1012000E00020FF22EC4B85
:1053E0001A6008BD08B50022009200200021E84A9A
:1053F000183A126802F04002E2B9421EE44B183B30
:105400001A6000BFE24A183A126802F04001009A9E
:10541000521C0092009AB2F5803F01D00029F1D0D1
:10542000DB4A183A126802F040020AB1012002E099
:10543000002000E0012008BD38B5002000900024C5
:105440000025CA20D249086053200860FFF7CAFF30
:1054500000B947E00020CE492439086042F201102B
:10546000091D0860081D006800F00700091D08609C
:1054700000BFC7481838006800F004040098401CBA
:1054800000900098B0F5803F01D0002CF1D0C048CA
:105490001838006800F0040008B9002522E0BC4874
:1054A0001C3800680020BA491C3908604FF6FF70AC
:1054B000B74910390860B748091F08600020B4498F
:1054C0000C390860091D0860091D0860B0491839C9
:1054D0000860AF491C310860FFF756FF08B9002586
:1054E00000E00125FF20AA490860284638BDA848E9
:1054F0001838006820F08000A54918390860704706
:1055000030B504460025CA20A14908605320086030
:10551000FFF768FF00B91DE09D481C38006820F0C7
:1055200040009B491C390860084600682168084310
:1055300097491C39086096491439A06808600846E4
:105540000068A18840EA0140914914390860FFF7DA
:10555000CEFF0125FF208E490860284630BD00217E
:1055600001607F214160FF218160704718B1FF21F8
:10557000874A116004E0CA21854A116053211160F5
:10558000704730B504460025CA2081490860532081
:105590000860FFF727FF00B914E044B17C481C38CD
:1055A000006840F010007A491C39086007E078482C
:1055B0001C38006820F0100075491C390860FFF79E
:1055C00096FF0125FF2072490860284630BD01463C
:1055D000002204E0501CC2B2A1F10A00C1B20A29A3
:1055E000F8DA100741EA10607047014600BF080969
:1055F00000EB8000420001F00F001044C0B2704781
:105600002DE9F04105460C460026002755B96048B3
:105610001C38006800F0400000B102E00020E0709B
:1056200000BF0EE05A481C38006800F0400020B16E
:105630002078FFF7DAFF064602E00020E07000BFA6
:1056400000BF55B120780004617840EA0120A178BC
:105650000843E17840EA014611E02078FFF7B7FF00
:105660004FEA00486078FFF7B2FF48EA0028A078C8
:10567000FFF7ADFF48EA0008E07848EA0046CA2094
:105680004349086053200860FFF7ACFE08B90027C3
:105690000CE0414830403E4924390860FFF727FFBD
:1056A000FFF772FE08B9002700E00127FF20384904
:1056B00008603846BDE8F0810021C170017041707A
:1056C0008170704770B506460C4600253048243876
:1056D0000068314900EA0105C5F305402070C5F3B3
:1056E0000620607005F07F00A07005F48000000CBB
:1056F000E0705EB92078FFF778FF20706078FFF7E0
:1057000074FF6070A078FFF770FFA07070BD2DE986
:10571000F04105460C46002600274DB9607800F0A0
:105720001000102804D1607820F010000A3060705A
:1057300005B908E06078FFF758FF0646A078FFF744
:1057400054FF064600BF55B1E0780004617840EA96
:105750000120A1780843217840EA413611E0E07841
:10576000FFF735FF4FEA00486078FFF730FF48EA5F
:105770000028A078FFF72BFF48EA0008207848EAC5
:105780004036CA20024908605320086006E0000045
:1057900024280040FF007F007F7F7F00FFF722FE6C
:1057A00008B900270BE0FC483040FC490860FFF7CF
:1057B0009EFEFFF7E9FD08B9002700E00127FF2062
:1057C000F649203108603846BDE8F08101210170BA
:1057D000817041700021C170704770B506460C465B
:1057E0000025EE480068EC4900EA0105280CE0704D
:1057F000C5F30420607005F03F00A070C5F342308F
:1058000020705EB9E078FFF7F0FEE0706078FFF797
:10581000ECFE6070A078FFF7E8FEA07070BD2DE987
:10582000F04105460E46144600276DB9DB48001DC1
:10583000006800F0400000B102E00020E07000BF0E
:10584000A06800B91AE019E0D448001D006800F013
:10585000400020B12078FFF7C8FE074602E0002094
:10586000E07000BFA06820B9207BFFF7BEFE0746AE
:1058700004E0207BFFF7B9FE074600BF95B1207812
:105880000004617840EA0120A1780843E17840EA09
:105890000140217B40EA0160A1680843616840EA59
:1058A00001071BE02078FFF792FE4FEA004860787E
:1058B000FFF78DFE48EA0028A078FFF788FE48EA47
:1058C0000008E07848EA0048207BFFF780FE48EABD
:1058D0000060A1680843616840EA0107CA20AF4937
:1058E0002031086053200860B6F5807F03D1AB48B3
:1058F0001830076002E0A9481C300760FF20A74964
:1059000020310860BDE8F0810021C1700170417054
:1059100081708160012101730021416070472DE990
:10592000F04106460F4614460025B7F5807F03D1A7
:105930009A481830056802E098481C300568C5F39D
:1059400005402070C5F30620607005F07F00A07050
:1059500005F48000000CE070C5F30560207305F0CD
:105960008040A06005F0803060607EB92078FFF74D
:105970003CFE20706078FFF738FE6070A078FFF77B
:1059800034FEA070207BFFF730FE2073BDE8F0816D
:1059900038B502460024009400230020CA247F4D1D
:1059A00020352C6053242C6041B17C4C241D24688C
:1059B00014437A4D2D1D2C6001201EE0774C241DD0
:1059C00024689443754D2D1D2C6000BF734C083422
:1059D000246804EA1223009C641C0094009CB4F523
:1059E000803F01D0002BF1D06C4C0834246804EACD
:1059F00012240CB9002000E00120FF24674D20355F
:105A00002C6038BDCA21654A2032116053211160D3
:105A10006249091D096821F00701604A121D1160E1
:105A20001146096801431160FF215C4A2032116070
:105A30007047CA21594A20321160532111605749D9
:105A400010310860FF211160704754481030006821
:105A500080B2704718B50146002300930022002051
:105A6000CA234E4C203423605323236049B14B4B4F
:105A70001B1D1B6843F48063484C241D23600120D8
:105A80001FE0464B1B1D1B6823F48063434C241D01
:105A9000236000BF414B08331B6803F00402009BE6
:105AA0005B1C0093009BB3F5803F01D0002AF1D02E
:105AB0003A4B08331B6803F004030BB9002000E0E5
:105AC0000120FF23354C2034236018BDCA22334BFC
:105AD00020331A6053221A60304A121D126822F4D1
