:020000040800F2
:10000000D0A400203978000841780008437800081F
:10001000457800084778000849780008000000008B
:100020000000000000000000000000004B78000805
:100030004D780008000000004F7800080107000814
:100040005378000853780008537800085378000864
:100050005378000853780008537800085378000854
:100060005378000853780008537800085378000844
:100070005378000853780008537800085378000834
:100080005378000853780008537800085378000824
:100090005378000853780008537800085378000814
:1000A0005378000853780008537800085378000804
:1000B000D5060008EB0600085378000853780008BE
:1000C00053780008537800085378000853780008E4
:1000D0005378000815060008450600087506000854
:1000E00053780008537800085378000853780008C4
:1000F00053780008537800085378000853780008B4
:1001000053780008537800085378000853780008A3
:10011000A5060008537800085378000853780008B3
:100120005378000853780008537800085378000883
:100130005378000853780008537800085378000873
:100140005378000853780008537800085378000863
:100150005378000853780008537800085378000853
:100160005378000853780008537800085378000843
:100170005378000853780008537800085378000833
:100180005378000800F002F800F058F80AA090E850
:10019000000C82448344AAF10107DA4501D100F042
:1001A0004DF8AFF2090EBAE80F0013F0010F18BFB7
:1001B000FB1A43F001031847A8BC0000C8BC0000AC
:1001C000103A24BF78C878C1FAD8520724BF30C883
:1001D00030C144BF04680C60704700000023002455
:1001E00000250026103A28BF78C1FBD8520728BF47
:1001F00030C148BF0B607047642907F091847829AB
:1002000007F0CA84632908F00080732908F005808C
:10021000002070471FB507F0AAFD08F037F9040069
:10022000002000210AF02AF9401C60600020002113
:100230000AF00EF9E0601FBD10B510BD08F000F91E
:100240001146FFF7E7FF00F0DDF808F0ADFB03B45F
:10025000FFF7F2FF03BC08F08FFE00000B49D1F856
:1002600000C04A685CF8043B1068184442F8040B6C
:100270008C4528BFA1F1DC0C8A4228BFA1F1DC0229
:10028000C1F800C04A6020F000407047649E002022
:1002900010B5002807DA0A07140EB14A00F00F0360
:1002A0001B1FD45403E00A07130EAE4A135410BDAB
:1002B00010B500214FF0804006F054FB00BF4FF016
:1002C000804006F053FB0228F9D310BD10B5044658
:1002D00002E0FFF7EDFF641E002CFAD110BD10B54F
:1002E00004F0ABFF10BD10B504469F48046001E068
:1002F000FFF7F5FF9C4800680028F9D110BD10B544
:1003000002F0C1FE04462CB1984803F042F9974828
:1003100003F002FA10BD10B503F046FE10BD10B593
:100320000DE0934800F036FF0446924881888088AB
:10033000401C82B28F4882808F48445400BF8C4852
:1003400000888B4949888842EBD110BD10B500F078
:1003500029F9FFF7C4FF10BD10B5884800684FF4B5
:100360007A71B0FBF1F4601EB0F1807F01D30120FF
:100370000FE0601E4FF0E02148610F214FF0FF3089
:10038000FFF786FF00204FF0E02188610720086119
:10039000002008B100BFFEE70021481EFFF778FFEC
:1003A00010BD10B507F0C8FA00214FF0006004F04E
:1003B000D7FDFFF7D1FF4FF4FA60FFF794FF4FF43A
:1003C000E13000F0A3FD4FF4E13004F079F84FF490
:1003D000E13001F0DBFC00F0AFFCFFF780FF01F043
:1003E000A8F800F037FD00F062FD01F07BFC00246E
:1003F00003E0200400F026FB641C042CF9DBFFF76B
:100400006EFF10BDFFF7CDFFFFF7A0FF5CA000F06F
:1004100029FF7CE0FFF783FF534890F81704642816
:1004200007D10020504981F81704FFF774FFFFF748
:1004300056FF4D4890F82B04012814D100204A495A
:1004400081F82B0401F038F900214A4881804FF4EB
:100450008051494807F027FD4FF480514C4807F080
:1004600022FDFFF73CFF404890F82E04012815D1EB
:1004700000203D4981F82E0400214648A0F81418B8
:1004800001F073FD40F20D41434807F02EFD4FF49B
:100490008061424807F007FDFFF721FF3F48801FBA
:1004A000407800280CDD3D48801F4078401E3B49C5
:1004B000891F487001F060FD4FF4FA70FFF706FFE6
:1004C000294890F82C04012807D10020264981F8FA
:1004D0002C0403F0BEFCFFF702FF234890F82D0424
:1004E000012807D10020204981F82D0403F080FE67
:1004F000FFF7F5FE2A4890F87404012807D1002080
:10050000274981F87404FFF7FAFEFFF7E8FE81E758
:1005100010B502460B460020002100BF04E0545CE9
:100520000444A0B24C1CA1B29942F8DB10BD10B536
:1005300045F2555004F078FE062004F078FE40F6AF
:10054000FF7004F077FE04F078FE04F07BFE10BD2F
:10055000002101804180002241F204010A527047CB
:1005600018ED00E000E400E050000020280A002020
:1005700024710020248100209A10002024000020F3
:100580000D4B686F6974616F586F6E6721000000D2
:100590009A200020349500203885002030810020EA
:1005A000200C002010B500200E4981F8160481F8B7
:1005B0001704A1F8180401200B49087000200B490A
:1005C00008800B4981F873040A48FFF7C1FF0AA1AC
:1005D0000D4807F041FA0DA10B481E3007F03CFA18
:1005E00010BD0000500000202A810020981000203B
:1005F000200C0020247100207463702E61702E6E18
:1006000067726F6B2E696F00FB70002031353238D6
:100610003400000010B540F22551854807F0C5F8B8
:1006200078B140F22551824807F0F6F8804806F08C
:10063000FAFF0446E1B27F4800F0A0FD32217E4877
:10064000817010BD10B540F225517C4807F0ADF81F
:1006500078B140F22551794807F0DEF8774806F086
:10066000E2FF0446E0B200F058FD4620744981F8EC
:10067000000210BD10B540F22551724807F095F800
:1006800078B140F225516F4807F0C6F86D4806F082
:10069000CAFF0446E0B200F0FCFC1E206A49A1F843
:1006A000CC0010BD10B540F22551684807F07DF828
:1006B00078B140F22551654807F0AEF8634806F07E
:1006C000B2FF0446E0B200F0CFFC4621604880F85B
:1006D000121410BD10B50121880706F0B2FD18B143
:1006E0000121880706F0BEFD10BD10B50121594853
:1006F00006F0A7FD18B10121564806F0B3FD10BD64
:100700005548006820B154480068401E52490860AE
:10071000514890F816040A2806DA4F4890F8160453
:10072000401C4D4981F816044B4890F81704642882
:1007300006DA494890F81704401C474981F8170425
:100740004148B0F8CC0000280EDD3F48B0F8CC009E
:10075000401E3D49A1F8CC000846B0F8CC0018B9BD
:1007600001203D4981F82D04354890F80002002809
:100770000EDD334890F80002401E314981F8000236
:10078000084690F8000218B90120334981F82C047A
:100790002948807800280EDD27488078401EC1B2A5
:1007A00025488170807830B900202C4908800120CC
:1007B000294981F82B04264890F8120400280EDD00
:1007C000234890F81204401EC1B2214880F8121448
:1007D00090F8120418B901201F4981F82E04184816
:1007E000B0F8760447F23151884214DA1448B0F870
:1007F0007604401C1249A1F876040846B0F8760445
:1008000047F23051884206D101200D4981F8740425
:100810000020A1F87604704710B54FF4004005F0B1
:10082000A4FD18B14FF4004005F0BCFD10BD000060
:100830000010014024710020986000200044004016
:10084000200C002000480040400B0020004C0040DD
:100850003495002000040040500000209810002033
:1008600070B505464FF47A7401E0601E84B202212F
:10087000FE4805F046FF08B9002CF6D10CB900205F
:1008800070BD2946F94805F005FF4FF47A7401E080
:10089000601E84B20121F54805F033FF08B9002C31
:1008A000F6D1F24805F0F3FEC0B2E9E710B5002436
:1008B0002021EF4804F076FC0520FFF7D1FFFF2050
:1008C000FFF7CEFF04462021E94804F069FC2046EA
:1008D00010BD00B587B0E54805F07AFD0021E3487A
:1008E00005F07FFE0121080304F0F4FE012105203C
:1008F00004F0ACFEE020059002208DF818000020E6
:100900008DF81A008DF819008DF81B0005A9D9483B
:1009100004F0CAFB05221146D64804F050FC05221B
:100920000621D44804F04BFC05220721D14804F0ED
:1009300046FC0020ADF800004FF48270ADF80200D4
:100940000020ADF80400ADF80600ADF808004FF443
:100950000070ADF80A001020ADF80C000020ADF8D2
:100960000E000720ADF810006946C04805F056FD9E
:100970000021BE4805F090FE0121BC4805F031FE83
:1009800001208DF8180000208DF81A002020059015
:1009900000208DF8190001208DF81B0005A9B4482E
:1009A00004F082FB1020059005A9B14804F07CFBFF
:1009B0002021AF4804F0F4FB2021AD4804F0F0FB07
:1009C00007B000BD70B56FF070440AE0FFF76EFF2E
:1009D00000F001050DB9012070BD0120FFF783FC77
:1009E000641E002CF2D10020F6E710B52021A048AB
:1009F00004F0D8FB0620FFF733FF20219C4804F0C9
:100A0000CFFB10BD10B50446FFF7EFFF202198483B
:100A100004F0C8FB2020FFF723FFC4F30740FFF7D3
:100A20001FFFC4F30720FFF71BFFE0B2FFF718FF1B
:100A300020218F4804F0B4FB0120FFF747FCFFF7AB
:100A4000C1FF10BD10B50446FFF7CFFF2021884835
:100A500004F0A8FBD820FFF703FFC4F30740FFF71B
:100A6000FFFEC4F30720FFF7FBFEE0B2FFF7F8FE3E
:100A700020217F4804F094FB0120FFF727FCFFF7BB
:100A8000A1FF10BD10B5FFF7B0FF2021784804F09A
:100A900089FBC720FFF7E4FE2021754804F080FBA6
:100AA000FFF790FF10BD70B504460D461646FFF7E0
:100AB0009CFF20216E4804F075FB0220FFF7D0FE5A
:100AC000C4F30740FFF7CCFEC4F30720FFF7C8FECE
:100AD000E0B2FFF7C5FE03E02878FFF7C1FE6D1C0A
:100AE000301EA6F101018EB2F6D12021604804F03B
:100AF00057FB70BD70B504460D46164620215C4874
:100B000004F050FB0320FFF7ABFEC4F30740FFF7F0
:100B1000A7FEC4F30720FFF7A3FEE0B2FFF7A0FE95
:100B200004E00020FFF79CFE2880AD1C301EA6F1DB
:100B300001018EB2F5D120214D4804F031FB70BD8A
:100B400070B504460D4616462021494804F02AFB9C
:100B50000320FFF785FEC4F30740FFF781FEC4F3CF
:100B60000720FFF77DFEE0B2FFF77AFE04E00020E9
:100B7000FFF776FE28706D1C301EA6F101018EB2C3
:100B8000F5D120213A4804F00BFB70BD70B5044646
:100B90000D4616462021364804F004FB0320FFF7DB
:100BA0005FFEC4F30740FFF75BFEC4F30720FFF7C7
:100BB00057FEE0B2FFF754FE04E00020FFF750FEBE
:100BC00028706D1C301EA6F101018EB2F5D12021D6
:100BD000274804F0E5FA70BD2DE9F04706460F46B8
:100BE00015461C4695FBF4F01FFA80F895FBF4F0CF
:100BF00004FB10501FFA80F9B8F1000F0EDD06E07B
:100C0000224639463046FFF7C1FF26442744B8F153
:100C10000000A8F101011FFA81F8F1D14A463946D6
:100C20003046FFF7B3FFBDE8F0872DE9F04100241F
:100C300000250026002720210D4804F0B3FA9F204C
:100C4000FFF70EFEA320FFF70BFE0546A320FFF7DC
:100C500007FE0646A320FFF703FE074620210448AF
:100C600004F09EFA280440EA062005E00030014026
:100C7000000802400000024040EA07042046BDE8A8
:100C8000F0812DE9F04706460D4690464FF00009E9
:100C90000027BA46002405F0FF0909EB0800B0F56B
:100CA000807F05DC424631462846FFF7FCFE37E0F0
:100CB000C9F5807087B23A4631462846FFF7F3FE01
:100CC0000120FFF703FBA8EB07042046E11704EB24
:100CD0001161C1F30F2A3D443E44E11704EB116159
:100CE0000912A4EB0124BAF1000F14DD0CE04FF45B
:100CF000807231462846FFF7D6FE06F5807605F568
:100D000080750120FFF7E2FABAF10000AAF10101B3
:100D10001FFA81FAEBD1A2B231462846FFF7C3FE93
:100D2000BDE8F08730B5034601E003F8011B141E4F
:100D3000A2F10102F9D130BD10B5FFF7CAFDFFF7EE
:100D400054FE10BD70B5054628A000F08BFA05F5DD
:100D50009B7404F10A0086B207E02003FFF752FEFD
:100D6000601C84B2FA20FFF7B1FAB442F5DB70BD23
:100D700070B5044600250026012C01DB032C02DDA2
:100D80001EA000F06FFA012C04D0022C0CD0032C12
:100D90001ED113E01FA000F065FA22482249086026
:100DA00005134FF4A07613E020A000F05BFA23486F
:100DB0001D49086005134FF4A57609E020A000F056
:100DC00051FA23481849086005134FF4AA7600BF6A
:100DD00000BF07E02803FFF715FE681C85B2FA2064
:100DE000FFF774FAB542F5DB70BD00000D45726186
:100DF000736520536563746F727300000D457272E2
:100E00006F723A4E756D626572206F662050686F22
:100E1000746F20000D45726173652050686F746FA8
:100E200020310D0001601300348500200D457261F2
:100E300073652050686F746F20320D00020014003B
:100E40000D45726173652050686F746F20330D001B
:100E500003A014001FB50121084604F02AFC1C2041
:100E60008DF8000001208DF801008DF802008DF84A
:100E70000300684604F03FF848F69F40ADF80400D0
:100E800040F2CF7002900020ADF80C00ADF80600E3
:100E900001A94FF0804005F01CFD0122114690078A
:100EA00006F0B8F90121880705F09CFD1FBD1FB5AC
:100EB0000121022004F0FDFB1D208DF8000001201F
:100EC0008DF801008DF802008DF80300684604F0EB
:100ED00012F848F69F40ADF8040040F2E730029067
:100EE0000020ADF80C00ADF8060001A9064805F099
:100EF000F0FC01221146044806F08CF90121024859
:100F000005F070FD1FBD00000004004010B588B062
:100F10000446F84806F082FA0021F64806F054FB31
:100F2000002240F22551F34806F004FC0121084656
:100F300004F08CFB0121102004F0CCFB07220921D6
:100F4000ED4804F03CF907220A21EB4804F037F998
:100F500002208DF80C000002029002208DF80D0096
:100F600000208DF80E0001208DF80F0002A9E24844
:100F700004F09AF802208DF80C0001208DF80F0083
:100F80008002029002208DF80D0002A9DA4804F0D8
:100F90008BF84FF4E06003F0A9FF25208DF80400E2
:100FA00002208DF8050001208DF806008DF807005D
:100FB00001A803F0A0FF04940020ADF81C000C2051
:100FC000ADF81A000020ADF81800ADF81600ADF825
:100FD000140004A9C74806F06FFA012240F2255117
:100FE000C44806F0A7FB252000F01F020121914014
:100FF0004209920002F1E022C2F8001100BF012173
:10100000BC4806F0E1FA0121BC4804F0C9F808B078
:1010100010BD0146BA480388801CC154801E028856
:10102000801C805C0D2812D108E00022B4480088A2
:10103000401C83B2B2480380801CC254B048008870
:10104000B0F5805FF1DD0020AD4A10807047AC4AFA
:101050001288501CC21700EB12521213A0EB02327E
:10106000A74B1A8000BFF1E7A649B1F81428A1F6F2
:10107000FC718854A349B1F81418491C40F20D4280
:1010800091FBF2F302FB13118AB29E49A1F81428D6
:1010900070479D494A88091D8854091F4988491C81
:1010A000C82291FBF2F302FB1311974A51800022F0
:1010B00095494B88091DCA541E21934AA2F8CC10A9
:1010C000704791494A88091D8854091F4A88091D9B
:1010D000895C0D2912D108E000228B494988491CFE
:1010E0008BB289494B80091DCA5487494988B1F59B
:1010F000007FF1DD0021844A518070478249498890
:10110000491CC82291FBF2F302FB13117E4A518065
:101110001E21A2F8CC1000BFEFE701467B48B0F8D3
:1011200066027A4A11541046B0F86602105C0D2827
:1011300015D109E000227548B0F86602401C80B263
:10114000724BA3F866021A547048B0F86602B0F504
:10115000007FEFDD00206D4AA2F8660270476B4AFF
:10116000B2F86622501CC21700EBD2525212A0EB0A
:101170004222664BA3F8662200BFEFE743885A1C61
:101180004280021DD1544288B2F5805F01DB00220B
:1011900042807047014608884B88984201D1002060
:1011A00070470B88581C0880081DC25C0888B0F581
:1011B000805F01DB002008801046F1E710B504468F
:1011C00000BF4021524806F0DAFA0028F9D0214643
:1011D0004F4806F024FA10BD10B5044600BF402168
:1011E0004B4806F0CCFA0028F9D02146484806F0D2
:1011F00016FA10BD70B504460D4603E014F8010B55
:10120000FFF7DCFF281EA5F10101CDB2F6D170BDBC
:1012100070B504460D4603E014F8010BFFF7CEFF4E
:10122000281EA5F10101CDB2F6D170BD10B504465E
:1012300000BF40212F4806F0A2FA0028F9D021462D
:101240002C4806F0ECF910BD10B5044600BF402153
:10125000284806F094FA0028F9D02146254806F0DF
:10126000DEF910BD70B5044602E02846FFF7DEFF48
:1012700014F8015B002DF8D170BD70B5054600244F
:1012800003E03046FFF7E0FF641C2E5D002EF8D12E
:10129000142CF6D070BD70B586B005460E460024FD
:1012A00000BF08E02A5D1BA101A806F0D5FB01A83C
:1012B000FFF7D8FF641CB442F4DB17A0FFF7D2FF9E
:1012C00006B070BD70B586B005460E46002400BF5E
:1012D00009E035F814200FA101A806F0BDFB01A814
:1012E000FFF7C0FF641CB442F3DB0BA0FFF7BAFFAB
:1012F00006B070BD00100140000002400004024032
:101300009810002034950020400B0020200C002075
:10131000004C0040256409000A0D000070B586B03D
:1013200005460E46002400BF10E035F81400FF28E3
:1013300001D106B070BD35F81420AFF2280101A824
:1013400006F08AFB01A8FFF78DFF641CB442ECDBBA
:10135000AFF23C00FFF786FF00BFEAE770B5044636
:101360000E4604E014F8015B2846FFF75FFF301ECD
:10137000A6F101018EB2F5D170BD00002DE9D0417A
:101380008DB006460C46B04647463A46A8A1684688
:1013900006F062FB6846FFF765FF287C401CA070E2
:1013A000287BE070287A60712879A0712878E07134
:1013B0000DB0BDE8D08130B58BB00446B4F87000F4
:1013C000A0F26C7005907220005D401E04907320A6
:1013D000005D03907520005D02907620005D019015
:1013E0007720005D0090684606F0C5FD054628465A
:1013F0000BB030BD08B54FF4C06003F077FD292075
:101400008DF8000001208DF8010000208DF8020009
:1014100001208DF80300684603F06DFD08BD10B58E
:1014200000240121080704F044F9012003F027FFFC
:10143000012004F004F9002004F001F9012003F078
:10144000EBFF4FF47A7400E0641E412003F09DFF2F
:1014500010B9B4F57A7FF7D04FF4807004F0D0F86B
:101460007F2075494860FF2088604020086008465A
:1014700004F0E6FA012004F0DEF804F025FA012178
:10148000082004F05DFE10BD1CB5044660798DF89F
:101490000400A0798DF80500E0798DF8060001A917
:1014A000002004F04DFB2078A0F5FA60C0B28DF862
:1014B000030007208DF80000A0788DF80100E07887
:1014C0008DF802006946002004F0C1FB01201CBD1C
:1014D0000EB500205949C87010200870342048709B
:1014E0000020887004F02CFB0E20554988700620DF
:1014F00048701620C870002004F0A9FB40F2E67086
:10150000ADF8000009208DF802001A208DF80300C4
:101510000C208DF8050000208DF806008DF80700DE
:101520006846FFF7B1FF4AF2A551002004F08EFE95
:101530000EBD10B543A0FFF795FE002004F093FE0A
:101540004AF2A551884207D0FFF769FFFFF7C0FFB5
:1015500042A0FFF787FE0BE042A0FFF783FE0121C8
:10156000080704F0A6F8012003F089FE04F0ACF9A6
:1015700010BD0EB59DF807103C4880F827149DF863
:10158000061080F826149DF8051080F825149DF8A3
:10159000031080F823149DF8021080F82214BDF87F
:1015A00000003249A1F820040EBD1CB5044601A973
:1015B000002004F027FB6946002004F0AEFB9DF8F4
:1015C000030000F5FA6020809DF80100A0709DF8EE
:1015D0000200E0709DF8040060719DF80500A071A4
:1015E0009DF80600E0711CBD10B52148FFF7DDFF36
:1015F0001F48C1791D4880F827141D4881791B4870
:1016000080F826141A484179184880F8251418489B
:10161000C178164880F8231415488178134880F85B
:101620002214134800881149A1F8200410BD0000BD
:10163000583D2025640000004400002000000020E8
:10164000040000200D4B686F692054616F204D6FBE
:1016500064756C65205254433A2000005B4E4F5D28
:101660000A0900005B5945535D0A0900500000203B
:1016700038000020F0B503460024002019E01F5C6C
:10168000392F02DD1F5C373F01E01F5C303F3D46D4
:10169000471CDF5D392F03DD471CDF5D373F02E06C
:1016A000471CDF5D303F3E4646EA05171755801C54
:1016B000641C8842E3D3F0BD2DE9F041ADF5DE5D59
:1016C000002400250026D1A800F0B8FC2022D1A9D2
:1016D000D9A806F0B6FBEAA1EA4806F051FB18B11A
:1016E0000126E84802F08DFBE7A1E64806F048FB3A
:1016F000F0B101260A22002141F6B4306844FFF718
:1017000011FB2923282241F6B4316944DD4800F059
:1017100042FA41F6B430684406F006FB0746B202CE
:10172000DB493846FFF7E6F9B102D948FFF7CAFDB1
:10173000D8A1D44806F024FBF0B101260A220021EA
:1017400041F6B4306844FFF7EDFA2923282241F628
:10175000B4316944CB4800F01EFA41F6B430684415
:1017600006F0E2FA07463203E1A93846FFF7E8F946
:101770003103E1A8FFF7F2FDC8A1C24806F000FB63
:1017800060B101264FF47A72C5A1C6A002F077FDC0
:10179000C74802F061FDC7A002F05EFDC6A1B948CE
:1017A00006F0EEFAB0B10126B202C5480168B548AC
:1017B000FFF767FA2820FEF789FDC148C1A102683A
:1017C00041F2B430684406F047F941F2B43068445D
:1017D000FFF748FDBEA1AB4806F0D2FA002839D089
:1017E00001260A22002141F6B4306844FFF79AFA34
:1017F0002923282241F6B4316944A24800F0CBF9EC
:1018000041F6B430684406F08FFA0746B202A049A8
:101810003846FFF76FF90220FEF758FDABA0FFF73F
:1018200021FD00240EE09A4830F81420AAA141F2CC
:10183000B430684406F010F941F2B4306844FFF760
:1018400011FD641CB4F5806FEDDB00200DF5DE5D4D
:10185000BDE8F081A2A18B4806F092FAA8B1292335
:10186000282241F294316944864800F094F941F20B
:1018700084326A440A2102F11000FFF7FBFE0521C1
:1018800041F284306844FFF7C3FC97A17D4806F01D
:1018900077FA28B32C23282241F2A43169447948ED
:1018A00000F079F929232C220DF59D51754800F09F
:1018B00072F90DF59D5006F037FA8E49C870C87858
:1018C000FFF756FA41F284326A440E2102F12000F9
:1018D000FFF7D0FE072141F284306844FFF798FCFF
:1018E00085A1684806F04CFA002853D02923282205
:1018F0000DF59D51634800F04EF90DF59D5006F031
:1019000013FA7C49C870CA78C97801EB81014FF499
:10191000967303EB410102EB0131481E01220DF5E4
:101920009D51FFF7E7F829E07249CA78C97801EBC1
:1019300081014FF4967303EB410102EB0131481929
:101940004FF480625249FFF7D5F805F58065022013
:10195000FEF7BCFC00240EE04D4830F814205EA1D8
:1019600041F2B430684406F077F841F2B43068448C
:10197000FFF778FC641CB4F5806FEDDB0DF580504B
:1019800090F8A013481EC2B20DF58050C0F8A023F5
:101990000029C9D15BA13B4806F0F2F910B15BA068
:1019A000D99988475CA1374806F0EAF910B15BA0E5
:1019B000D99988475CA1334806F0E2F960B14FF449
:1019C00051725B4908A806F03CFA4FF4487208A926
:1019D0004EA0DA9B984700BF56A12A4806F0D0F9DE
:1019E00010B14AA0DB99884754A1264806F0C8F9EF
:1019F000B8B14FF4006141F2B430684406F075FAB2
:101A00004FF47A7340F63C7241F2B43169443FA01E
:101A100000F0D7FC4FF47A7141F2B4306844FFF71C
:101A20009DFC49A1174806F0ABF908B100F0B1FEE2
:101A300048A1144806F0A4F910B134A000F0EFFE5C
:101A400047A1104806F09CF910B130A0DC998847F6
:101A500000BFFBE610B502460B464FF6FF7109E0EA
:101A600010784840C0B2404C34F8100080EA212180
:101A70005B1E521C002BF3D1C84380B210BD000086
:101A8000434F4D009A100020524144440000000092
:101A90009A4000205241444500000000415400009B
:101AA0004F4B0D0041542B514953454E440D0000FE
:101AB000200C00201A00000053454E440000000096
:101AC0000C0000204164643D202564200D000000CE
:101AD000524541440000000025303258000000000B
:101AE00043414D495000000054616B656150686F7F
:101AF000746F00002A8100204765746150686F741C
:101B00006F0000004372656174650000484E2E430B
:101B100061706974616C000048434D0048434D2E6C
:101B200063697479000000005772697465000000F1
:101B30001CBB00085265616400000000525F4164F4
:101B400064726573730000004C69737466696C6538
:101B50000000000053656172636846696C650000AF
:101B6000457261736500000088B7000870B50646CD
:101B70000D46002400BF06E0285DB04201D120469A
:101B800070BD601CC4B2284606F030F9A042F3D8FC
:101B90004FF0FF30F4E72DE9F05F054688469146A7
:101BA0009A4629464846FFF7E1FF06462946504631
:101BB000FFF7DCFF07464FF0000B701C08B1781CE4
:101BC00010B90020BDE8F09FB81B012801DC0020FF
:101BD000F8E7701C04B208E02A5D5846411C0FFA71
:101BE00081FB08F80020601C04B2BC42F4DB012039
:101BF000E8E72DE9F04106460C460027002508E0FD
:101C0000605DB04200D17F1C022F00D106E0681C4D
:101C1000C5B2204606F0EAF8A842F1D800BF605DE0
:101C2000BDE8F08170B504460025FEF717FB2C498E
:101C300091F82714451A95FBF4F004FB105070BD81
:101C400070B504461E2B10DA651E05EB450606EB43
:101C5000C505DC2606EB4535C1EB011602EB860611
:101C6000C6EB461605EB460014E0651E05EB45067F
:101C700006EBC505DC2606EB4535C1EB0116B600C3
:101C8000C6EB461605EB4605C2EB421605EB4605CC
:101C900005F11F0070BD70B504461E2B0EDA651EDF
:101CA00005EB8505032606EB4535C1EB011602EB76
:101CB0008606C6EBC60605EB86000FE0651E05EB43
:101CC0008505032606EB4535C1EB011602EB8606BA
:101CD000C6EBC60605EB860505F10E0070BD0000DB
:101CE000500000201CB50121022003F0AFFC0121AF
:101CF000042003F0ABFC0220009001208DF80400CA
:101D000000208DF806008DF8050001208DF80700F1
:101D100069461C4803F0C8F9012000908DF80400C2
:101D200000208DF806008DF8050001208DF80700D1
:101D30006946144803F0B8F94FF480700090012010
:101D40008DF8040000208DF806008DF805000120B4
:101D50008DF8070069460C4803F0A6F91CBD10B5C4
:101D60000221084803F00FFA0446012C04D1022195
:101D7000044803F017FA03E00221024803F010FAC6
:101D800010BD0000000402400008024010B588B0F9
:101D900004469C4805F042FB00219A4805F014FCDB
:101DA000002240F22551974805F0C4FC012104208F
:101DB00003F04CFC0121C80403F07BFC08220A213B
:101DC000914803F0FCF908220B218F4803F0F7F942
:101DD00002208DF80C004002029002208DF80D00C8
:101DE00000208DF80E0001208DF80F0002A9864812
:101DF00003F05AF902208DF80C0001208DF80F0035
:101E0000C002029002208DF80D0002A97E4803F066
:101E10004BF94FF4E06003F069F834208DF80400CA
:101E200002208DF8050001208DF806008DF80700CE
:101E300001A803F060F804940020ADF81C000C2009
:101E4000ADF81A000020ADF81800ADF81600ADF896
:101E5000140004A96B4805F02FFB012240F2255124
:101E6000684805F067FC342000F01F020121914012
:101E70004209920002F1E022C2F8001100BF0121E4
:101E8000604805F0A1FB08B010BD2DE9F0418EB00F
:101E900004460E464FF480670025A846605D55282D
:101EA00007D0E81C205C232803D000200EB0BDE83A
:101EB000F081681C205C48281FD1681D205C5228D6
:101EC0001BD1A81C205CB07005F10B00205C707069
:101ED00072784EA1684605F0BFFD4D48C278C078C3
:101EE00000EB80004FF4967303EB400002EB0030F0
:101EF000411E01226846FEF7C4FE681C205C45288E
:101F000031D1681D205C46282DD105F10B0085B22A
:101F100009E02846691C8DB2225C4046411C1FFA2C
:101F200081F8B11D0A54381EA7F101018FB2F0D11A
:101F300038484FF480620168B01DFEF7A2FE012010
:101F4000FEF7C4F9334834A1026801A805F084FD06
:101F500001A8FFF787F92F48006800F580602D4938
:101F60000860FF20A2E70120A0E710B52849294812
:101F7000001DFFF78AFF10BD00B58DB0002009904D
:101F80000A900B900C9027A103C9CDE9020127A16B
:101F900003C9CDE9000102A909A805F046FF1C48C4
:101FA000827824A108A805F057FD08A909A805F022
:101FB0003CFF174802781FA108A805F04DFD08A9AD
:101FC00009A805F032FF694609A805F02EFF104860
:101FD0000078401C0E4908700846407808B9012076
:101FE000087004AA0E2109A8FFF744FB062104A8E3
:101FF000FFF70EF9002004900590069007900DB0B1
:1020000000BD0000004C00400008024025630000B5
:102010002A810020348500204164643D202564200D
:102020000D0000003535343500000000303032330B
:1020300000000000253032580000000010B588B0C4
:1020400004462022FE49684605F0FBFE2022694630
:10205000204605F0F6FE08B010BD10B50346F9495C
:102060001A4604E010784140F7484143521C10786A
:102070000028F7D14FF6FE70B1FBF0F400FB14100E
:10208000411C88B210BD30B5034600200BE013F8A8
:102090001040012505EB40055D5D44EA052421F86B
:1020A0001040441CA0B29042F1DB30BD30B5034675
:1020B00000200CE011F8104003F8104031F81040F7
:1020C0002412012505EB40055C55441CA0B290424A
:1020D000F0DB30BD30B50346002017E013F8204098
:1020E000012505EB80055D5D44EA0524022505EB2D
:1020F00080055D5D44EA0544032505EB80055D5DD3
:1021000044EA056441F82040441CA0B29042E5DB5B
:1021100030BD30B5034600201CE011F8204003F824
:10212000204031F82040C4F30724012505EB800549
:102130005C5551F82040C4F30744022505EB8005A7
:102140005C5551F82040240E032505EB80055C55B5
:10215000441CA0B29042E0DB30BD2DE9F041ADF56A
:10216000007D80460E46002400BF4FF40077E01942
:10217000B04200D9371BBAB208F108010819694604
:10218000FEF7DEFC00250EE01DF80500FF2809D152
:10219000681C1DF80000FF2804D160190DF5007DB2
:1021A000BDE8F0816D1CBD42EED33C44B442DCD3AB
:1021B0004FF0FF30F2E72DE9F0478CB00746A3A0BF
:1021C000FFF750F80120ADF81E00002009900A909A
:1021D0000B90002529E0002423E02803142190FB24
:1021E000F1F0204400EB80004FEA800A022201A9AE
:1021F0005046FEF7A5FCFEF7E5FB012207A901A862
:10220000FFF741FF3846FFF728FFBDF81C10884252
:1022100005D1BDF81E00401C80B2ADF81E00601C48
:1022200084B2CC2CD9DB681C85B2032DD3DB00250E
:1022300020E000241AE02803142190FBF1F0204450
:1022400000EB80004FEA800A022206A95046FEF702
:1022500077FCFEF7B7FB9DF81800FF2804D19DF826
:102260001900FF2800D103E0601C84B2CC2CE2DB13
:1022700000BF01E0032DDCDB00BF05EB051000EB28
:10228000400004EB80000A3000030890384605F057
:10229000ADFD00F0FF093846FFF7DFFEADF81C008A
:1022A000002605E017F8011B09A88155701C86B2AD
:1022B0004E45F7DB0DF11C0805EB051000EB400067
:1022C00004EB800000EB8000810014224046FEF702
:1022D000D8FCFEF777FBBDF81E00012808DD5FA0E3
:1022E000FEF7C0FF082240460899FEF7CAFC07E047
:1022F00061A0FEF7B7FF082240460899FEF7C1FC2F
:10230000FEF760FB0120FDF7EEFF61A0FEF7AAFFDC
:1023100008980CB0BDE8F0872DE9F041ADF5825D7D
:102320000746012400BF00263EE0002538E03003C8
:10233000142190FBF1F0284400EB80004FEA800864
:102340000A4641F2380169444046FEF7F9FB022291
:102350000FA901F6FC70FFF796FE3846FFF77DFEE9
:10236000BDF83C10884219D101220EA941F23C006F
:102370006844FFF7AFFEBDF83E00A0420ED140F624
:10238000F87210A90E980830FEF7DAFB40F6F871E3
:1023900010A8FEF7E3FF601CC4B2C4E7681C85B256
:1023A000CC2DC4DB701C86B2032EBEDB012C06D103
:1023B0003CA0FEF757FF0DF5825DBDE8F08100BF40
:1023C000F9E72DE9FF4F87B08B4615461F460020E1
:1023D00004904FF0010A40F6F87085420BD9B5FB26
:1023E000F0F0401C1FFA80FA40F6F870B5FBF0F1EF
:1023F00000FB115402E04FF0010A2C460026CFE00A
:102400004FF00008C6E03003142190FBF1F0404487
:1024100000EB80008000082205A90090FEF790FBE9
:10242000FEF7D0FA022203A905A8FFF72CFE0798B1
:10243000FFF713FEBDF80C1088427DD13EE000008E
:1024400088B90008C59D1C81930100010D43726588
:102450006174696E6720210D000000005468697383
:102460002066696C656E616D6520697320657869A9
:102470007374210D000000004372656174696E671A
:102480002061206E65772066696C65210D00000073
:10249000436F6D706C65746520637265617465204F
:1024A000210D00000D46696C6520646F6573206E18
:1024B0006F7420657869737421000000BDF80E0008
:1024C000504563D1012201A906A8FFF703FE381980
:1024D00040F6F87188420BD2BAB201990831081956
:1024E0005946FEF72DFBFEF76DFA0BB0BDE8F08FF5
:1024F00040F6F871091B8AB201990831081959464A
:10250000FEF71EFBFEF75EFA0AF101001FFA80FAE1
:102510004FF0000937E03003142190FBF1F04844FC
:1025200000EB80008000082205A90090FEF708FB60
:10253000FEF748FA022200E028E002A905A8FFF70A
:10254000A2FDBDF80800BDF80C10884217D1BDF8F7
:102550000A00504513D1012201A906A8FFF7BAFDD0
:1025600040F6F870001B381A82B240F6F870001B73
:1025700000EB0B0101980830FEF7E2FAB5E709F12C
:1025800001001FFA80F9B9F1CC0FC4DB08F101009A
:102590001FFA80F8B8F1CC0FFFF635AF701C86B289
:1025A000032EFFF62DAF00BF9FE72DE9F04F89B056
:1025B00082460E4617460020ADF80600C1A0FEF781
:1025C00051FE4FF0000937E04FF000082DE04FEAD0
:1025D0000930142190FBF1F0404400EB80004FEAF9
:1025E000800B082207A95846FEF7AAFA022206A97C
:1025F00007A8FFF748FD5046FFF72FFDBDF818105C
:1026000088420ED1BDF81A00BDF80610884208DDD8
:10261000BDF81A00ADF80600012202A908A8FFF7CC
:1026200059FD08F101001FFA80F8B8F1CC0FCEDB9C
:1026300009F101001FFA80F9B9F1030FC4DBBDF8FD
:10264000060028B9A2A0FEF70DFE09B0BDE8F08F84
:102650004FF480510298FFF780FD84B2381908309A
:10266000B0F5805F1DDDC4F58050083885B2681C68
:1026700082B20298083001193046FEF702FBFEF7DD
:10268000A1F95046FFF797FD0290781B87B2029A96
:1026900002F1080170193A46FEF7F3FAFEF792F9D3
:1026A00006E00298083001193A463046FEF7E9FA8A
:1026B000FEF788F98CA0FEF7D5FD00BFC5E72DE930
:1026C000F041ADF5825D804600248AA0FEF7CAFD88
:1026D00000BF55E00027200341F204020FA9FEF7D6
:1026E0002FFAFEF76FF9002531E005EB85010FAAFF
:1026F00002EB810002220EA9FFF7C5FC05EB850164
:10270000042202EB81010FAA881801220DA9FFF70C
:10271000E1FC4046FFF7A1FCBDF83810884214D117
:10272000781CC7B2002608E0FF2005EB850106EB08
:1027300081010FAA5054701CC6B2142EF4DB0D9800
:10274000401CFEF75FF9FEF73DF9681C85B2CC2D01
:10275000CBDB87B169A0FEF785FD2003FEF752F9B8
:10276000FEF730F921034FF480520FA8FEF789FAE3
:10277000FEF728F902E065A0FEF774FD601CC4B204
:10278000032CA7DB6AA0FEF76DFD0DF5825DBDE8A9
:10279000F08170B5A2B06BA0FEF764FD002537E0B4
:1027A000002431E02803142190FBF1F0204400EBD9
:1027B000800086000A4604A93046FEF7C1F9FEF7FC
:1027C00001F9022203A904A8FFF75DFC012202A976
:1027D00005A8FFF77FFCBDF80C004FF6FF7188429B
:1027E00010D006A80299CDE90001BDF80E302246AE
:1027F00059A109A805F030F909A8FEF733FD012019
:10280000FDF771FD601C84B2CC2CCBDB681C85B25B
:10281000032DC5DB56A0FEF725FD22B070BD2DE9C6
:10282000F041A2B00746002656A0FEF71BFD00258A
:102830003BE0002435E02803142190FBF1F0204414
:1028400000EB80004FEA80080A4604A94046FEF7E4
:1028500077F9FEF7B7F8022203A904A8FFF713FCE3
:10286000012202A905A8FFF735FC3846FFF7F5FB62
:10287000BDF80C10884212D1701C86B206A80299CD
:10288000CDE90001BDF80E30224633A109A805F0BC
:10289000E3F809A8FEF7E6FC0120FDF724FD601C23
:1028A00084B2CC2CC7DB681C85B2032DC1DB16B902
:1028B00038A0FEF7D7FC3EA0FEF7D4FC22B0BDE85E
:1028C000F0810000577269746520210D000000003E
:1028D0000D46696C6520646F6573206E6F722065AC
:1028E000786973742100000057726974656E202145
:1028F0000D0000004572617365210D000D46696C85
:102900006520206578697374210000000D46696CAC
:102910006520646F65736E27742065786973742011
:10292000696E207468697320536563746F72210047
:10293000436F6D706C657465204572617365210D20
:10294000000000000D09092009094C6973745F46F5
:10295000696C6573210D000025642E2564092573BB
:1029600009416464726573733A2025640D000000A8
:102970000D0909200909456E645F46696C6573217C
:102980000D0000000D090920090953656172636893
:10299000210D00000D2046696C6520646F65736E23
:1029A00027742065786973742021200D00000000D1
:1029B0000D0909200909456E645F536561726368FA
:1029C000210D0000FE49D1F86C14491CFC4AC2F8E4
:1029D0006C141146D1F86C1442F21072914203D972
:1029E0000021F74AC2F86C14242810D10021F44ABF
:1029F00082F86512114691F8652291F86512491C1A
:102A0000EF4B83F8651203F2012188540BE0EC4987
:102A100091F8652291F86512491CE94B83F865121B
:102A200003F201218854E64991F8681201290FD177
:102A3000E349B1F86622B1F86612491CE04BA3F8ED
:102A400066121946885400211A46B2F86622995433
:102A5000DB4991F8011224292ED1D94991F80212AB
:102A6000472929D1D64991F803124E2924D1D449B6
:102A700091F8041252291FD1D14991F805124D291C
:102A80001AD1CF4991F80612432915D1CC4991F8B2
:102A90006512062910D1CA4991F8681261B924213A
:102AA000C74A1170472151704E2191705221D17047
:102AB0004D211171432151710021C14A82F8011247
:102AC0000022BF4981F8022281F8032281F8042202
:102AD00081F8052281F806220621B94AA2F8661279
:102AE000012182F8701482F86812114691F80112DF
:102AF000242907D0114691F86512062902DA00212F
:102B000082F870140D280CD1AD4991F86812012992
:102B100007D10021AA4A82F868120121A94A82F845
:102B20002C14A74991F86512642903DB0021A44AFB
:102B300082F86512A249B1F86612B1F5007F03DB95
:102B400000219F4AA2F8661205219D4A82F86A1464
:102B5000704770B505460026012403E0285D464015
:102B6000601CC4B2284605F041F9401EA042F5D8C9
:102B7000304670BD30B5B7B064211EA805F0B5F978
:102B8000642105A805F0B1F98FA2D2E901311068DE
:102B9000D268CDE90231049201900024242220461B
:102BA000641C05A90A5447222046641C0A5450227A
:102BB0002046641C0A5452222046641C0A544D22AA
:102BC0002046641C0A5443222046641C0A542C22CA
:102BD0002046641C0A547B4890F825040A2190FB87
:102BE000F1F03030C2B22046641C05A90A54754881
:102BF00090F825040A2190FBF1F201FB120030301D
:102C0000C2B22046641C05A90A546E4890F82604F6
:102C10000A2190FBF1F03030C2B22046641C05A9B5
:102C20000A54684890F826040A2190FBF1F201FB4F
:102C300012003030C2B22046641C05A90A54614813
:102C400090F827040A2190FBF1F03030C2B2204600
:102C5000641C05A90A545B4890F827040A2190FBDC
:102C6000F1F201FB12003030C2B22046641C05A90B
:102C70000A542C222046641C0A5441222046641C1B
:102C80000A542C222046641C0A540820FEF7CAFF6E
:102C90003130C2B22046641C05A90A540820FEF750
:102CA000C1FF3130C2B22046641C05A90A54082075
:102CB000FEF7B8FF3130C2B22046641C05A90A54A1
:102CC0000820FEF7AFFF3130C2B22046641C05A9D0
:102CD0000A542E222046641C0A540820FEF7A2FF44
:102CE0003130C2B22046641C05A90A540820FEF700
:102CF00099FF3130C2B22046641C05A90A5408204D
:102D0000FEF790FF3130C2B22046641C05A90A5478
:102D10000820FEF787FF3130C2B22046641C05A9A7
:102D20000A540820FEF77EFF3130C2B22046641CF0
:102D300005A90A540820FEF775FF3130C2B22046BB
:102D4000641C05A90A540820FEF76CFF3130C2B29A
:102D50002046641C05A90A542C222046641C0A54EF
:102D60004E222046641C0A542C222046641C0A541D
:102D70000120FEF757FF3030C2B22046641C05A97F
:102D80000A540820FEF74EFF3030C2B22046641CC1
:102D900005A90A540820FEF745FF3130C2B220468B
:102DA000641C05A90A540820FEF73CFF3130C2B26A
:102DB0002046641C05A90A540820FEF733FF0BE0E7
:102DC000200C0020500000203031323334353637AB
:102DD00038394142434445463130C2B22046641C32
:102DE00005A90A542E222046641C0A540820FEF726
:102DF00019FF3130C2B22046641C05A90A540820CC
:102E0000FEF710FF3130C2B22046641C05A90A54F7
:102E10000820FEF707FF3130C2B22046641C05A926
:102E20000A540820FEF7FEFE3130C2B22046641C70
:102E300005A90A540820FEF7F5FE3130C2B220463B
:102E4000641C05A90A540820FEF7ECFE3130C2B21A
:102E50002046641C05A90A540820FEF7E3FE313021
:102E6000C2B22046641C05A90A542C222046641CC8
:102E70000A5445222046641C0A542C222046641C15
:102E80000A540120FEF7CEFE3030C2B22046641C48
:102E900005A90A540120FEF7C5FE3130C2B2204612
:102EA000641C05A90A540820FEF7BCFE3130C2B2EA
:102EB0002046641C05A90A542E222046641C0A548C
:102EC0000820FEF7AFFE3130C2B22046641C05A9CF
:102ED0000A542C222046641C0A540820FEF7A2FE45
:102EE0003130C2B22046641C05A90A540820FEF7FE
:102EF00099FE3130C2B22046641C05A90A5408204C
:102F0000FEF790FE3130C2B22046641C05A90A5477
:102F10002E222046641C0A540820FEF783FE31301E
:102F2000C2B22046641C05A90A542C222046641C07
:102F30000A54FE4890F823040A2190FBF1F0303047
:102F4000C2B22046641C05A90A54F84890F823042C
:102F50000A2190FBF1F201FB12003030C2B2204690
:102F6000641C05A90A54F14890F822040A2190FB38
:102F7000F1F03030C2B22046641C05A90A54EB4877
:102F800090F822040A2190FBF1F201FB120030308C
:102F9000C2B22046641C05A90A54E448B0F82004D3
:102FA0004FF47A7190FBF1F03030C2B22046641CCD
:102FB00005A90A54DD48B0F820040A2190FBF1F27B
:102FC00001FB12003030C2B22046641C05A90A542D
:102FD0002C222046641C0A542A222046641C0A54CF
:102FE00005AAD3A11EA804F037FD1EA8FFF7B1FD66
:102FF0000546C01705EB1070001101A90A5C2046B8
:10300000641C05A90A541EA8FFF7A3FD0546C017B6
:1030100005EB10700011A5EB001001A90A5C204619
:10302000641C05A90A540A222046641C0A540D2275
:103030002046641C0A54BF4804F0B4FE05AABCA193
:103040001EA804F009FD1EA8FEF70CF937B030BD2C
:1030500000200AE0B7490A5CB7490A54411C89B20A
:103060000846B1F5007F00DB08E0B249095C0D2994
:1030700004D0B04A411C515C0A29EBD100BF0022A8
:10308000AD490A5470472DE9FE430024002000900A
:103090000190029000258146A6484078242813D14B
:1030A000A448807847280FD1A248C0784E280BD179
:1030B000A0480079522807D19E4840794D2803D175
:1030C0009C488079432802D00020BDE8FE83FFF7AA
:1030D000BFFF01E0601CC4B29748005D2C2801D0FE
:1030E000502CF7DB601CC4B29348611C405C303844
:1030F0009149095D303901EB810100EB4100C1B21A
:103100008E4880F87510A01CC4B28B48611C415CCD
:103110003039005D303800EB800001EB4000C1B277
:10312000864880F87610A01CC4B28348611C415CBC
:103130003039005D303800EB800001EB4000C1B257
:103140007E4880F87710A01CC4B201E0601CC4B2B5
:103150007948005D2C2801D0502CF7DB601CC4B2EC
:103160007548005D562804D10020744981F87E001E
:10317000ABE77148005D412803D101206F4981F818
:103180007E0001E0601CC4B26B48005D2C2801D0B9
:10319000502CF7DB601CC4B26749621C895C303973
:1031A000654A125D303A02EB820201EB420008F000
:1031B00011F96249C866A01CC4B209E02046611C2E
:1031C000CCB25D490A5C2846691CCDB20DF80020DE
:1031D0005948005D2C2801D0502CEFDB601CC4B294
:1031E000502C01DB002070E700200DF80500684638
:1031F00006F0A0FB074607F057F906464E48005D6B
:103200004E280BD14E49304608F002F807464B488D
:10321000C16E384607F09AFF4849C8664648005DC7
:1032200053280BD14649304607F0F2FF0746434882
:10323000C16E384607F08AFF4049C8663F49C86EEC
:10324000404908F0DFF83D49C86601E0601CC4B29F
:103250003948005D2C2801D0502CF7DB601CC4B22B
:10326000502C01DB002030E70020009001900290FC
:103270003149095D3039642251432F4A631CD25CC5
:10328000303A02EB820201EB42032B49A21C895C1B
:103290003039581808F09EF828498866E01CC4B2F6
:1032A000002509E02046611CCCB223490A5C28466F
:1032B000691CCDB20DF800201F48005D2C2801D0FC
:1032C000502CEFDB601CC4B200200DF805006846EE
:1032D00006F030FB074607F0E7F806461648005DA3
:1032E00057280BD11649304607F092FF074613487E
:1032F000816E384607F02AFF104988660F49886EAC
:10330000104908F07FF80D4988660B48005D452894
:103310000BD10B49304607F07BFF07460748816E0B
:10332000384607F013FF054988660FE0500000207B
:1033300025730000200C00201A0700202809002017
:1033400000007042000080BF601CC4B2FE48005DF7
:103350002C2801D0502CF7DB601CC4B20020009058
:1033600001900290002511E0F748005D2E2802D15F
:10337000601CC4B20AE02046611CCCB2F2490A5C6F
:103380002846691CCDB20DF8002000BFEE48005D54
:103390002C28E9D1684604F0C7FC074608F01AF863
:1033A0008146EA49484608F02DF88146E8494846F2
:1033B00007F02EFF8146484607F0ECFFC0B2E54912
:1033C000A1F87A0001E0601CC4B2DF48005D2C283F
:1033D00001D0502CF7DB601CC4B2DB49095D3039E9
:1033E00064225143D84A631CD25C303A02EB820219
:1033F00001EB4203D449A21C895C3039581807F00C
:10340000E9FF0646D449304607F0FCFF814601E05B
:10341000601CC4B2CC48005D2E2801D0502CF7DBD4
:10342000601CC4B2C849621C895C3039C64A125D4E
:10343000303A02EB820201EB420007F0CBFF064676
:103440003146484607F082FE8146484607F0A2FF13
:1034500080B2642190FBF1F7384607F0BBFFBD490D
:10346000C1F8840001E0601CC4B2B748005D2C289C
:1034700001D0502CF7DB601CC4B2B348611C415C26
:103480003039005D303800EB800001EB4000C1B204
:10349000B04880F87310A01CC4B2AB48611C415CFA
:1034A0003039005D303800EB800001EB4000C1B2E4
:1034B000A84880F87210A01CC4B2A348611C415CEB
:1034C0003039005D303800EB800001EB4000A1494D
:1034D000A1F87000A01CC4B20846C06E9F49C8661F
:1034E0009C48806E88669B48B0F87A00A1F87A0004
:1034F000984890F87510994880F87510954890F89C
:103500007610964880F87610924890F87710934895
:1035100080F877108F4890F87310904880F87310F7
:103520008C4890F872108D4880F872108948B0F875
:10353000700000F5FA608949A1F87000854890F89C
:103540007E0081F87E008348D0F88400C1F88400B2
:10355000FF20BAE510B503460A46002000211946AF
:1035600000BF0FE0545C302C09DB545C392C06DCC6
:1035700000EB80046000545C303C204400E006E036
:103580004C1CA1B2545C14B1B1F5806FEADB00BFF2
:1035900010BD2DE9FC5F82464FF0000B6F4890F89C
:1035A00077000F280DDD6D4890F8751090F87600C3
:1035B0000844C2B25846411C01F0FF0B0AF8002033
:1035C0000DE0664890F8751090F876000844401EAB
:1035D000C2B25846411C01F0FF0B0AF800205F48B8
:1035E000FDF7E9FE5D4948660846406E00909DF88B
:1035F00000205846411C01F0FF0B0AF800209DF8FE
:1036000001205946481C00F0FF0B0AF801209DF8E4
:1036100002205846411C01F0FF0B0AF800209DF8DB
:1036200003205846411C01F0FF0B0AF8002000223D
:103630004B4B10464B4906F0F9F906460F464749F1
:10364000C86E07F057FD804632463B4607F042FA07
:10365000044607F0ABF901909DF804205846411C40
:1036600001F0FF0B0AF800209DF805205846411C88
:1036700001F0FF0B0AF800209DF806205846411C77
:1036800001F0FF0B0AF800209DF807205846411C66
:1036900001F0FF0B0AF800200022314B104631499F
:1036A00006F0C4F904460D462C49886E07F022FD49
:1036B000064622462B4607F00DFA804607F076F9BB
:1036C00001909DF804205846411C01F0FF0B0AF8B8
:1036D00000209DF805205846411C01F0FF0B0AF818
:1036E00000209DF806205846411C01F0FF0B0AF807
:1036F00000209DF807205846411C01F0FF0B0AF8F6
:103700000020164890F87A205846411C01F0FF0B23
:103710000AF80020BDE8FC9F70B504460F4E96F8ED
:10372000773096F8762096F8751096F87300FEF7C5
:10373000B2FA05460E2229462046FDF7A2FA1021CC
:10374000204604F0B0FB70BD1A0700200080E7435C
:103750000050C346280900200000C842280A002063
:10376000000018400000244001B5B2B0FCF7B7FDDE
:10377000FE48418832980180FC48801C807800F027
:103780000F00219007F056F90022F94BCDE92401F2
:103790001046F84906F04AF9CDE91C01F348801CAF
:1037A0004088C1172E9000EB11700011199007F09E
:1037B0002AF9CDE91A01DDE91C2307F08BF9002273
:1037C0004FF08043CDE920011046EA4906F02EF97A
:1037D000CDE91801E548801C8088C1172D9000EBC9
:1037E000117001112D98A0EB0110159007F00BF945
:1037F000CDE91601DDE9182307F06CF90022DE4B54
:10380000CDE91C011046DB4906F010F9CDE91401A1
:10381000D648801C8088C1172C9000EB11700011D5
:10382000119007F0F0F8CDE91201DDE9142307F05B
:1038300051F90022D14BCDE918011046CD4906F0CF
:10384000F5F8CDE91001C948801CC088C1172B903C
:1038500000EB117001112B98A0EB01100D9007F0F7
:10386000D2F8CDE90E01DDE9102307F033F900228B
:10387000C34BCDE914011046BE4906F0D7F8CDE997
:103880000C01BA48801CC088C1172A9000EB117047
:103890000011099007F0B7F8CDE90A01DDE90C2322
:1038A00007F018F90022B74BCDE910011046B149D5
:1038B00006F0BCF8CDE90801AC48801C0089C117AE
:1038C000299000EB117001112998A0EB01100590CF
:1038D00007F099F8CDE90601DDE9082307F0FAF8C9
:1038E0000022A94BCDE90C011046A24906F09EF832
:1038F000CDE908019D48801C0089C117289000EB84
:1039000011700011059007F07EF8CDE90601DDE9A0
:10391000082307F0DFF8CDE90A01DDE90C2306F002
:10392000F5FDCDE90E01DDE9102306F0EFFDCDE94F
:103930001201DDE9142306F0E9FDCDE91601DDE908
:10394000182306F0E3FDCDE91A01DDE91C2306F09A
:10395000DDFDCDE91E01DDE9202306F0D7FDCDE92F
:103960002201DDE9242306F0D1FDCDE9260107F08F
:103970001DF82F90DDE92F01FDF700FD309801883B
:103980003298418030988178329801713098C178AE
:1039900032984171309841793298C171309881796B
:1039A000329801723098C179329841720022754B79
:1039B0001046764906F03AF8CDE924016B48801CA0
:1039C000807A00F00F001D9007F034F80022684B59
:1039D000CDE920011046674906F028F8CDE9180125
:1039E0006248801C4089C1172E9000EB11700011B5
:1039F000159007F008F8CDE91601DDE9182307F066
:103A000069F800224FF08043CDE91C011046594966
:103A100006F00CF8CDE914015448801C8089C117C8
:103A20002D9000EB117001112D98A0EB0110119059
:103A300006F0E9FFCDE91201DDE9142307F04AF8A9
:103A400000224D4BCDE9180110464A4905F0EEFF22
:103A5000CDE910014548801C8089C1172C9000EBEE
:103A6000117000110D9006F0CEFFCDE90E01DDE9D9
:103A7000102307F02FF80022404BCDE91401104627
:103A80003C4905F0D3FFCDE90C013848801CC089C2
:103A9000C1172B9000EB117001112B98A0EB0110B6
:103AA000099006F0B0FFCDE90A01DDE90C2307F02B
:103AB00011F80022324BCDE9100110462D4905F0D6
:103AC000B5FFCDE908012948801CC089C1172A909B
:103AD00000EB11700011059006F095FFCDE906018D
:103AE000DDE9082306F0F6FF0022264BCDE90C01A4
:103AF0001046204905F09AFFCDE904011B48801CBF
:103B0000008AC117299000EB117001112998A0EBD0
:103B10000110019006F077FFCDE90201DDE90423F1
:103B200006F0D8FF0022184BCDE9080110461149D4
:103B300005F07CFFCDE904010C48801C008AC11708
:103B4000289000EB11700011019006F05CFFCDE9A8
:103B50000201DDE9042306F0BDFFCDE90601DDE940
:103B6000082306F0D3FCCDE90A0111E098400020BB
:103B70000000F03F0000304000000840000010400E
:103B8000000014400000184000001C4000002440C9
:103B9000DDE90C2306F0BAFCCDE90E01DDE91023C6
:103BA00006F0B4FCCDE91201DDE9142306F0AEFC09
:103BB000CDE91601DDE9182306F0A8FCCDE91A01CC
:103BC000DDE91C2306F0A2FCCDE91E01DDE920237E
:103BD00006F09CFCCDE92201DDE9242306F052FD2C
:103BE000CDE9260106F060FC329908610022A24B63
:103BF0001046A24905F01AFFCDE92401A048807CB7
:103C000000F00F001D9006F015FF00229D4BCDE93E
:103C1000200110469C4905F009FFCDE9180198489C
:103C2000408AC1172E9000EB11700011159006F01C
:103C3000EAFECDE91601DDE9182306F04BFF00226C
:103C40004FF08043CDE91C0110468F4905F0EEFE90
:103C5000CDE914018A48808AC1172D9000EB1170BC
:103C600001112D98A0EB0110119006F0CCFECDE9CA
:103C70001201DDE9142306F02DFF0022834BCDE96C
:103C800018011046804905F0D1FECDE910017C48AD
:103C9000808AC1172C9000EB117000110D9006F076
:103CA000B2FECDE90E01DDE9102306F013FF00227C
:103CB000774BCDE914011046734905F0B7FECDE905
:103CC0000C016F48C08AC1172B9000EB11700111D5
:103CD0002B98A0EB0110099006F095FECDE90A01A2
:103CE000DDE90C2306F0F6FE00226A4BCDE9100157
:103CF0001046654905F09AFECDE908016048C08A82
:103D0000C1172A9000EB11700011059006F07BFEA0
:103D1000CDE90601DDE9082306F0DCFE0022564B62
:103D2000CDE90C011046584905F080FECDE90401AB
:103D30005348008BC117299000EB1170011129988D
:103D4000A0EB0110019006F05EFECDE90201DDE975
:103D5000042306F0BFFE00224F4BCDE908011046B8
:103D6000494905F063FECDE904014548008BC117C0
:103D7000289000EB11700011019006F044FECDE98F
:103D80000201DDE9042306F0A5FECDE90601DDE927
:103D9000082306F0BBFBCDE90A01DDE90C2306F0A0
:103DA000B5FBCDE90E01DDE9102306F0AFFBCDE94F
:103DB0001201DDE9142306F0A9FBCDE91601DDE9C6
:103DC000182306F0A3FBCDE91A01DDE91C2306F058
:103DD0009DFBCDE91E01DDE9202306F097FBCDE92F
:103DE0002201DDE9242306F04DFCCDE9260106F091
:103DF0005BFB3299C8602248418B3298818233B094
:103E000000BD70B5044621460420FFF7A3FBC5B2F0
:103E1000012D04D0022D0AD0032D18D10FE01FA0D0
:103E2000FDF720FA0120254981F873040FE024A052
:103E3000FDF718FA0020214981F8730407E027A054
:103E4000FDF710FA01201D4981F8720400BF00BF80
:103E500070BD00B599B0194890F87304012808D1D5
:103E6000164A26A1684603F0F7FD6846FDF7FAF901
:103E700000BF19B000BD0000000018400000244041
:103E80009A4000200000F03F000030400000084051
:103E9000000010400000144000001C402A2A2A2A7A
:103EA000204869656E207468692062616E207469BB
:103EB0006E20475053202A2A2A2A0D00200C002069
:103EC0002A2A2A2A205461742062616E2074696E45
:103ED00020475053202A2A2A2A0D00002A2A2A2A5B
:103EE0000D4869656E207468692074686F69206781
:103EF00069616E2A2A2A2A0D000000000D475053DE
:103F00003A2025730000000030B587B000200690ED
:103F100000F086F94FF4FA7285A186A000F0AFF99F
:103F2000002837D085A1874803F02AFF08B107B0E1
:103F300030BD85A1834803F023FF48B3002400BFB0
:103F400018E08048005D3A280ED17E48611C405C34
:103F50008DF818007B48A11C405C8DF81900794849
:103F6000E11C405C8DF81A0006A803F0DDFEC5B226
:103F7000601CC4B2734803F039FFA042E1D82A465E
:103F800073A101A803F068FD01A8FDF76BF900BF5C
:103F9000FCF7A5F900BFCAE7704988700021694A9B
:103FA000121FA2F8D610704700B595B014226CA16C
:103FB00003A803F046FF6FA0006802906CA00068A1
:103FC0000190FCF78CF96C4890F8570438B96A48AE
:103FD000B0F85804401C6849A1F8580403E00020D8
:103FE0006549A1F858046548007805280DDD64A0EE
:103FF000FDF738F900205349091FA1F8D600012028
:104000005649887000205D4908705448807820B176
:10401000012812D002287FD114E0FCF760F90020BB
:104020004849091FA1F8D6005348D0F85C04401C49
:1040300010B90220FFF7B0FF6EE0FCF750F900F076
:10404000B5FE69E0FCF74BF900204B4981F85704B5
:104050003C48001FB0F8D60005280AD14DA000F05A
:10406000FBF84FF0FF304449C1F85C044CA0FDF769
:10407000F9F83448001FB0F8D6000A282AD14FF0CA
:10408000FF303D49C1F85C0403A9494803F08AFEAA
:104090004849474803F0C9FE02A9454803F0C5FE58
:1040A00044491E31424803F0C0FE01A9404803F0D4
:1040B000BCFE3F4800F0D0F83E4A1E323EA108A8A0
:1040C00003F0CAFC08A8FDF7CDF82C480078401C86
:1040D0002A4908701B48001FB0F8D6000A280DDDD9
:1040E0002548D0F85C04012808D10020FFF754FFD0
:1040F00038A0FDF7B7F80020204908701148001FCC
:10410000B0F8D600C82807DD1B48D0F85C040128A9
:1041100002D00220FFF740FF00BF0A48001FB0F89E
:10412000D600401C0749091FA1F8D60015B000BDF4
:104130004F4B0D0041542B4353510D004552524FEC
:1041400052000000440B00202B435351000000009C
:104150002B4353513D2025640D0000000900002031
:1041600041542B51494F50454E3D22544350222C2F
:1041700022000000222C220050000020120000200B
:104180000D5265736574204D6F64756C65204753DF
:104190004D0D090041542B5149434C4F53450D00DF
:1041A000436C6F736520436F6E6E6563740D000022
:1041B0004C9D0020FB7000204B6574206E6F6920C1
:1041C00064656E20646961206368693A2025730D17
:1041D000000000000D475052533A204B6574206E8A
:1041E0006F6920736572766572204F4B0000000086
:1041F00010B506A1084803F0C3FD20B1012007490E
:10420000C1F85C0410BD00BFFCE70000434F4E4EF8
:10421000454354204F4B0000440B00205000002029
:1042200010B50020FC494880FC4981F82C04C822C4
:104230000021F948001DFCF775FD10BD10B50446BE
:1042400000BF4021F64803F09AFA0028F9D0214631
:10425000F34803F0E4F910BD10B504460BE02078F4
:10426000FFF7ECFFFCF73BF8EB48007810B1207843
:10427000FCF7DCFF641C20780028F0D110BD2DE98C
:10428000F04105460E4614460027FFF7C9FFFCF72C
:1042900026F82846FFF7E0FF0020E04981F82D04CA
:1042A0001BE0DE4890F82D0468B13146DA48001D65
:1042B00003F066FD08B1012711E0FFF7B1FF002010
:1042C000D64981F82D04D54890F816040A2804DB55
:1042D0000A3C0020D14981F81604002CE1D100BF2E
:1042E0003846BDE8F08110B50024CEA0FCF7BAFF37
:1042F00000BF0FE04FF49672D1A1D2A0FFF7BFFF2D
:1043000020B1D1A0FCF7AEFF012010BDFBF7E7FF05
:10431000601CC4B2052CEDDBCDA0FCF7A3FF002090
:10432000F3E770B500250024002600BF00BFFBF7AF
:10433000D6FFFFF7D8FF04460CB1012070BD0CB1C9
:10434000012E0FDD8021C44800F02CFF4FF4FA70DD
:10435000FBF7BCFF8021C04800F022FF4FF4FA7049
:10436000FBF7B4FF05B9E2E70120E7E710B5C82283
:104370000021A948001DFCF7D5FC0020A649488073
:10438000A1F8CC00C1F8D000A1F8D60010BD1CB532
:104390000121042001F05AF90121102001F056F901
:1043A00000208DF806008DF8070001208DF804002C
:1043B0008020009003208DF805006946A64800F093
:1043C00073FE402000906946A34800F06DFE402136
:1043D000A14800F0E5FE80219F4800F0E1FE1CBDF1
:1043E00010B588B004468E4803F018F800218C48B8
:1043F00003F0EAF8002240F22551894803F09AF9C7
:104400000121880401F055F90121022001F01EF973
:1044100007220A21914800F0D2FE07220B218F4883
:1044200000F0CDFE02208DF81C0000208DF81E004B
:104430004FF48060069001208DF81F0000208DF859
:104440001D0006A9854800F02FFE02208DF81C00F3
:104450008002069001208DF81F0006A97F4800F019
:1044600023FE02940020ADF80C00ADF80E00ADF86C
:104470001000ADF814000C20ADF8120002A9684835
:1044800003F01AF84FF4E06000F030FD27208DF8BB
:10449000040002208DF805008DF8060001208DF83B
:1044A000070001A800F027FD012240F225515C48D9
:1044B00003F040F901215A4803F086F808B010BD16
:1044C00010B504462046FFF78BFFFFF760FFFFF7AC
:1044D0004DFF10BD70B505460E46002400BF04E038
:1044E000285DFFF7ABFE601C84B2B442F8DB70BD00
:1044F00010B5FBF7F4FE5AA0FCF7B4FE4FF47A7245
:104500004FA15DA0FFF7BBFE4FF47A724CA15DA0F6
:10451000FFF7B5FE4FF47A7249A15DA0FFF7AFFE39
:104520004FF47A7246A15DA0FFF7A9FE4FF47A72AC
:1045300043A15DA0FFF7A3FE4FF47A7240A15DA0F6
:10454000FFF79DFE4FF47A723DA15DA0FFF797FE45
:104550004FF47A723AA15DA0FFF791FE4FF47A72A0
:1045600037A15DA0FFF78BFE4FF47A7234A15DA0F6
:10457000FFF785FE4FF47A7231A15DA0FFF77FFE51
:104580004FF47A722EA15DA0FFF779FE4FF47A7294
:104590002BA15DA0FFF773FE4FF47A7228A15DA0F6
:1045A000FFF76DFE4FF47A7225A15DA0FFF767FE5D
:1045B00010BD10B5FFF79CFF10BD00205B490870CF
:1045C00002208870002048701349A1F8D6001349D2
:1045D00081F8570481F82D04704710B5002454A0C9
:1045E000FCF740FE00BF0EE0642215A155A0FFF7C6
:1045F00046FE18B114A0FCF735FE06E014A0FCF747
:1046000031FE601CC4B2052CEEDB00BF1420FBF7AA
:104610005DFEFBF764FE9DE0400B00205000002093
:10462000004800400D4B69656D20547261204B6558
:1046300074204E6F69204D6F64756C65203A2000C0
:104640004F4B0D0041540D005B5945535D0D00006B
:104650005B4E4F5D0D000000000802400004024068
:1046600044656C65746520313520534D53204D658C
:1046700073736167650D000041542B434D47443D02
:10468000310D000041542B434D47443D320D000095
:1046900041542B434D47443D330D000041542B43BF
:1046A0004D47443D340D000041542B434D47443D9C
:1046B000350D000041542B434D47443D360D00005D
:1046C00041542B434D47443D370D000041542B438B
:1046D0004D47443D380D000041542B434D47443D68
:1046E000390D000041542B434D47443D31300D00FE
:1046F00041542B434D47443D31310D0041542B4330
:104700004D47443D31320D0041542B434D47443D0C
:1047100031330D0041542B434D47443D31340D009E
:1047200041542B434D47443D31350D0009000020D5
:1047300041646420616E2049504865616465723A45
:104740000000000041542B5149484541443D310D82
:1047500000000000FDA0FCF785FD002411E06422AC
:10476000AFF22411FEA0FFF78AFD20B1AFF22810AE
:10477000FCF778FD07E0AFF22810FCF773FD601C32
:10478000C4B2052CEBDB00BF1420FBF79FFDFBF749
:10479000A6FDF7A0FCF766FD002411E06422AFF24D
:1047A0006011F7A0FFF76BFD20B1AFF26410FCF7CA
:1047B00059FD07E0AFF26810FCF754FD601CC4B26D
:1047C000052CEBDB00BF1420FBF780FDFBF787FD1A
:1047D000EFA0FCF747FD002411E06422AFF2A01126
:1047E000F0A0FFF74CFD20B1AFF2A410FCF73AFDAA
:1047F00007E0AFF2A410FCF735FD601CC4B2052C35
:10480000EBDB00BF1420FBF761FDFBF768FDE9A0BF
:10481000FCF728FD002411E06422AFF2DC11E8A0CF
:10482000FFF72DFD20B1AFF2E010FCF71BFD07E014
:10483000AFF2E410FCF716FD601CC4B2052CEBDBF4
:1048400000BF1420FBF742FDFBF749FDDFA0FCF79A
:1048500009FD002412E04FF4FA72AFF21C21E3A02C
:10486000FFF70DFD20B1AFF22020FCF7FBFC07E0C5
:10487000AFF22420FCF7F6FC601CC4B2052CEADB86
:1048800000BF1420FBF722FDDBA0FCF7EBFC0024AB
:1048900012E04FF4FA72AFF25821DEA0FFF7EFFCFE
:1048A00020B1AFF25C20FCF7DDFC07E0AFF2602046
:1048B000FCF7D8FC601CC4B2052CEADB00BF142056
:1048C000FBF704FDFBF70BFD10BDF0B58DB0054601
:1048D000642700240026FBF702FDFFF7A1FC1DB9A9
:1048E000D0A0FFF7B9FC02E0B5A0FFF7B5FC0020AF
:1048F000CE4981F82D0437E0CC4890F82D0428B338
:1049000000241DE0CA48005D302814DDC848005D61
:10491000392810DA3DB9C648025D3046711CCEB266
:10492000C4490A5407E0C248025D3046711CCEB249
:10493000C04914310A54142E00DB06E0601CC4B2D6
:10494000BB4803F053FAA042DCD800BFB74890F848
:1049500016040A2806DBA7F10A0087B20020B34933
:1049600081F81604FBF7BBFC002FC5D145B9B14A4D
:10497000B1A1684603F070F86846FCF773FC08E0E4
:10498000AC4A1432B0A1684603F066F86846FCF7FA
:1049900069FC0DB0F0BD70B50025002412E04FF4A5
:1049A0009672AFF26431AFF26430FFF768FC18B171
:1049B000A9A0FCF757FC07E0681CC5B2C820FBF7AC
:1049C00085FC641C052CEADB00BFFBF788FC002497
:1049D00023E0322200219748FCF7A4F90020FFF7DA
:1049E00074FF924890F82F04A0B1904890F83004DA
:1049F00080B18E4890F8310460B18C4890F8320450
:104A000040B18A4890F8330420B1884890F83404C3
:104A100000B11524FBF763FC641C052CD9DBC8200E
:104A2000FBF754FC002424E032220021814814309A
:104A3000FCF778F90120FFF748FF7C4890F8430421
:104A4000A0B17A4890F8440480B1784890F84504C1
:104A500060B1764890F8460440B1744890F8470435
:104A600020B1724890F8480400B11524FBF737FCD8
:104A7000641C052CD8DBC820FBF728FC7EA0FCF7C3
:104A8000F1FB002411E06422AFF24C417FA0FFF75C
:104A9000F6FB20B1AFF25040FCF7E4FB07E0AFF2C9
:104AA0005040FCF7DFFB0125641C052CEBDB00BF4D
:104AB0001420FBF70BFCFBF712FC76A0FCF7D2FBF3
:104AC000002411E06422AFF2884177A0FFF7D7FB02
:104AD00020B1AFF28C40FCF7C5FB07E0AFF290408D
:104AE000FCF7C0FB0125641C052CEBDB00BF142088
:104AF000FBF7ECFBFBF7F3FB6DA0FCF7B3FB00242B
:104B000011E06422AFF2C8416CA0FFF7B8FB20B1FE
:104B1000AFF2CC40FCF7A6FB07E0AFF2CC40FCF7CD
:104B2000A1FB0125641C052CEBDB00BF1420FBF767
:104B3000CDFBFBF7D4FB64A0FCF794FB012D03D065
:104B40006422AFF20451CBE0D8E0000053656C65FD
:104B50006374206120436F6E74657874203A00009E
:104B600041542B51494647434E543D300D000000FF
:104B700053656C656374205443502F4950203A00AC
:104B800041542B51494D4F44453D300D000000002C
:104B90005374617274205443502F495020546173F0
:104BA0006B203A0041542B51495245474150500D1A
:104BB0000000000053686F7720434349443A0000E7
:104BC00041542B51434349440D0000004E65747716
:104BD0006F726B20526567697374726174696F6E6E
:104BE000205374617475733A0000000041542B43E4
:104BF0005245473D320D0000436F6E6E6563742071
:104C00007769746820495020416464726573733A0F
:104C10000000000041542B5149444E5349503D314E
:104C20000D00000041542B47534E0D005000002052
:104C3000440B00207F04002047534D5F494D4549F8
:104C40003A2025730D00000053494D5F494D4549F9
:104C50003A2025730D0000002A2A2A2A2A2A2A43EC
:104C60006F6E6669677572652047534D2A2A2A2A36
:104C70002A2A2A0D0000000047534D5F44656669EB
:104C80006E655F50726F66696C653A0041545A0DEB
:104C90000000000047534D5F4563686F5F436F6DD1
:104CA0006D616E643A0000004154450D0000000043
:104CB00047534D5F4154434C49503A0041542B43B4
:104CC0004C49503D310D00005361766520436F6EB5
:104CD0006669677572652043757272656E743A0015
:104CE0004EA0FFF7CCFA20B1AFF2A460FCF7BAFAFD
:104CF00004E0AFF2A460FCF7B5FA01251420FBF73D
:104D0000E5FAFBF7ECFA47A0FCF7ACFA00240FE059
:104D10006422AFF2D4614AA0FFF7B1FA18B14BA0F8
:104D2000FCF7A0FA06E04BA0FCF79CFA0125641CF6
:104D3000052CEDDB00BF1420FBF7C8FAFBF7CFFA18
:104D400047A0FCF78FFA002411E04FF49672AFF2FF
:104D500010714CA0FFF793FA20B1AFF21470FCF77A
:104D600081FA06E0AFF21870FCF77CFA641C052C9F
:104D7000EBDB00BF1420FBF7A9FAFBF7B0FA70BD1C
:104D800010B5FFF708FE3220FBF7ADFAFFF725FC60
:104D90003220FBF7A8FAFFF710FC3220FBF7A3FA4A
:104DA000FFF707FC00203C49488010BD10B53A4889
:104DB000B0F8D6000A2812D004DC022807D0042854
:104DC0002AD105E0642812D0A02825D117E023E0DD
:104DD00032A0FCF747FA38A0FFF73EFA1CE039A0F2
:104DE000FCF740FA80213B4800F0DCF914E03AA0DF
:104DF000FCF738FA8021374800F0D2F90CE0FFF7D1
:104E0000BFFF4FF0FF303849C1F85C04002081F843
:104E10005704FFF7C1F800BF00BF10BD415426572B
:104E20000D00000053656C65637420534D53204D95
:104E300065737361676520466F726D61743A000037
:104E400041542B434D47463D310D00005B544558BE
:104E5000545D0D005B4552524F525D0D0000000045
:104E6000534D5320466F726D617428537561206CE9
:104E70006169206C656E6820415420736175293A20
:104E80000000000041542B434E4D493D322C312C43
:104E9000302C300D00000000400B00200D20546825
:104EA0007563206869656E20544154206D6F647588
:104EB0006C652047534D0D0041542B51504F5744C2
:104EC0003D310D00544154204E47554F4E2047531D
:104ED0004D0D000000080240424154204E47554FFE
:104EE0004E2047534D0D0000500000203249014331
:104EF000324A1160704770B5002100230F22C47838
:104F00001CB32E4C246804F4E064C4F5E064C4F3DC
:104F10000721C1F10404E3B20A4144789C40E1B2A4
:104F20008478144021430C07210E254C05786155E7
:104F3000047804F01F050124AC4005786D11AD0024
:104F400005F1E025C5F8004109E0047804F01F05EB
:104F50000124AC401B4D0678761145F8264070BD03
:104F6000194A0A400243154B1B1F1A60704739B19A
:104F7000124A121D12680243104B1B1D1A6006E0F4
:104F80000E4A121D126882430C4B1B1D1A6070479B
:104F9000042808D14FF0E021096941F004014FF0E5
:104FA000E022116107E04FF0E021096921F00401DE
:104FB0004FF0E022116170470000FA050CED00E0AF
:104FC00000E400E080E100E080FFFF1F10B5044630
:104FD0008C48844208D10121084600F08CFB002156
:104FE000012000F088FB5EE08748844208D101215F
:104FF000022000F080FB0021022000F07CFB52E048
:105000008248844208D10121042000F074FB002171
:10501000042000F070FB46E07D48844208D1012165
:10502000082000F068FB0021082000F064FB3AE053
:105030007848844208D10121102000F05CFB002157
:10504000102000F058FB2EE07348844208D1012163
:10505000202000F050FB0021202000F04CFB22E03B
:105060006E48844208D10121402000F044FB002119
:10507000402000F040FB16E06948844208D101213D
:10508000802000F038FB0021802000F034FB0AE093
:105090006448844207D10121801500F02CFB0021D7
:1050A000A01500F028FB10BDF0B50A460021002332
:1050B000002400BF3DE0012505FA01F3156805EA6B
:1050C00003049C4234D105684F000326BE40B5431B
:1050D000056015794E00B5400668354305601579C1
:1050E000012D02D01579022D16D185684F000326B7
:1050F000BE40B543856055794E00B540866835435E
:105100008560456801268E40B543456045689679BF
:105110008E40B6B235434560C5684F000326BE4099
:10512000B543C560D5794E00B540C6683543C56006
:10513000491C1029BFD3F0BD4FF6FF71016000215B
:10514000017141718171C171704708B54FF48032AE
:105150000092009A0A430092009AC261C161009ACB
:10516000C261C2690092C269009208BD0246002075
:1051700013690B400BB1012000E00020704701468D
:10518000086980B270470246002053690B400BB19A
:10519000012000E0002070470146486980B2704756
:1051A00001837047418370470AB1018300E0418366
:1051B00070474161704742694A4042617047F0B5AB
:1051C000002300244D07ED0E02FA05F3CE1000F186
:1051D000200555F826504E07F70E0F26BE40B54362
:1051E000CF1000F1200646F82750CE1000F1200520
:1051F00055F8265045EA0304CE1000F1200545F885
:105200002640F0BD000002400004024000080240B9
:10521000000C02400010024000140240001802403E
:10522000001C0240002002400E49086070470D49F2
:10523000486070470B49886070474AF6AA200949C0
:10524000086070474CF6CC4006490860704701463C
:105250000020044AD2680A400AB1012000E0002080
:10526000704700000030004010B50121080700F031
:1052700088FA00214FF0805000F083FA10BD2D49CC
:1052800008627047014600202B4A106820F0E000B9
:105290000843106070472749086170472549A031CD
:1052A000086070472349A43108607047214948626B
:1052B000704710B5024600201F4B186820F003000D
:1052C000104318601D4B1B6843F004031B4C236004
:1052D000012901D130BF00E020BF184B1B6823F02B
:1052E0000403164C236010BD1348006840F004000E
:1052F000114908600846006840F0020008600F4845
:10530000006840F004000D49086000BF00BF30BFD6
:10531000704701460020084A52680A400AB101203D
:1053200000E0002070470449096841EA8001024A10
:105330001160704700000E420070004010ED00E068
:10534000FA48006840F00100F84908600020F74979
:1053500008310860F5480068F5490840F3490860DD
:10536000F448091D0860081F006820F48020091F08
:1053700008600020ED490C31086070470021EB4ABD
:10538000921C117011460870704710B5014600223A
:10539000002300204A11012A02D1E44C236808E0CE
:1053A000022A03D1E14C7034236802E0DF4C7434EC
:1053B000236801F01F02012494401C400CB101201D
:1053C00000E0002010BD38B500200090002400252A
:1053D00000BF3120FFF7D9FF05460098401C009020
:1053E0000098B0F5A06F01D0002DF2D03120FFF76A
:1053F000CCFF08B1012400E00024204638BD01465E
:105400000020CA4A106820F0F80040EAC10010608D
:105410007047C949086070470021C44A7032117052
:105420001170012802D004280AD104E00121BF4AEA
:105430007032117005E00521BC4A7032117000E035
:1054400000BF00BF7047BD490860704770B5049C3D
:1054500041EA82150126C6EB530645EA0645054397
:1054600045EA0465B14E361D356070BDB249086627
:105470007047820142EA0172AC4B84331A60704774
:10548000AD4988667047AC49C86470470246002041
:10549000A64B0833186820F0EC6042EA0103184379
:1054A000A24B083318607047024600209F4B083318
:1054B000186820F0784042EA010318439B4B0833F8
:1054C0001860704701460020984A0832106820F0A2
:1054D000030008431060704794480830006800F0EB
:1054E0000C00704701460020904A0832106820F0F6
:1054F000F000084310607047014600208B4A0832D4
:10550000106820F4E0500843106070470146002006
:10551000864A0832106820F4604040EAC1001060FA
:105520007047F0B500210022002402250026022346
:105530007E4F08373F6807F00C0121B1042905D0E0
:10554000082937D105E07E4F076036E07D4F0760C0
:1055500033E0764F3F1D3F68C7F38056734F3F1DC2
:105560003F6807F03F036EB1764FB7FBF3F7DFF804
:10557000BCC10CF1040CDCF800C0CCF3881C07FBA8
:105580000CF40CE06E4FB7FBF3F7DFF8A0C10CF1A1
:10559000040CDCF800C0CCF3881C07FB0CF4634F50
:1055A0003F1D3F68C7F301477F1C7D00B4FBF5F743
:1055B000076002E0624F076000BF00BF5B4F083723
:1055C0003F6807F0F00109095F4F7A5C0768D74030
:1055D0004760564F08373F6807F4E051890A5A4F31
:1055E0007A5C4768D7408760504F08373F6807F4B8
:1055F0006041490B544F7A5C4768D740C760F0BDA3
:10560000002100F44072B2F5407F0AD1474A0832C7
:10561000116821F4F8114D4A02401143434A0832FF
:105620001160424A70321268C0F30B031A433F4BB9
:1056300070331A60704741494439086070473F49E8
:1056400040390860704742490860704739B1374AAD
:10565000303212680243354B30331A6006E0334A69
:10566000303212688243314B30331A60704739B19F
:105670002E4A3432126802432C4B34331A6006E04F
:105680002A4A343212688243284B34331A607047F6
:1056900039B1264A383212680243244B38331A6033
:1056A00006E0224A383212688243204B38331A60AF
:1056B000704739B11D4A4032126802431B4B4033D8
:1056C0001A6006E0194A403212688243174B403391
:1056D0001A60704739B1154A443212680243134BBD
:1056E00044331A6006E0114A4432126882430F4B79
:1056F00044331A60704739B10C4A103212680243C1
:105700000A4B10331A6006E0084A103212688243CE
:10571000064B10331A607047E1B1044A1432126824
:105720000243024B14331A6019E0000000380240B3
:10573000FFFFF6FE1030002400004742800E474273
:105740000024F40000127A0013000020FFFCFF0F79
:105750005C0147425B4A126882435A4B1A607047A9
:1057600039B1584A121D12680243564B1B1D1A606C
:1057700006E0544A121D12688243524B1B1D1A60E8
:10578000704739B14F4A0C32126802434D4B0C330B
:105790001A6006E04B4A0C3212688243494B0C33C4
:1057A0001A60704739B1474A103212680243454BBC
:1057B00010331A6006E0434A103212688243414BAC
:1057C00010331A60704739B13E4A3C3212680243C6
:1057D0003C4B3C331A6006E03A4A3C321268824342
:1057E000384B3C331A60704739B1364A4032126840
:1057F0000243344B40331A6006E0324A40321268AA
:105800008243304B40331A60704739B12D4A4432DD
:10581000126802432B4B44331A6006E0294A443293
:1058200012688243274B44331A60704739B1254AC6
:105830004C3212680243234B4C331A6006E0214A73
:105840004C32126882431F4B4C331A60704739B197
:105850001C4A5032126802431A4B50331A6006E059
:10586000184A503212688243164B50331A60704700
:1058700039B1144AD21F12780243124BDB1F1A703F
:1058800006E0104AD21F127882430E4BDB1F1A70BB
:1058900070470C486030006840F080700949603102
:1058A0000860704701460020064A083A12680A401C
:1058B0000AB1012000E0002070470249891F0870EA
:1058C000704700001438024008B500220092002002
:1058D0000021CA22FE4B1A6053221A60FC4A183A71
:1058E000126822F0A002FA4B183B1A6000BFF84A77
:1058F000183A126802F02001009A521C0092009A95
:10590000B2F5004F01D00029F1D0F14A183A1268DF
:1059100002F020020AB1012000E00020FF22EC4B3F
:105920001A6008BD08B50022009200200021E84A54
:10593000183A126802F04002E2B9421EE44B183BEA
:105940001A6000BFE24A183A126802F04001009A59
:10595000521C0092009AB2F5803F01D00029F1D08C
:10596000DB4A183A126802F040020AB1012002E054
:10597000002000E0012008BD38B500200090002480
:105980000025CA20D249086053200860FFF7CAFFEB
:1059900000B947E00020CE492439086042F20110E6
:1059A000091D0860081D006800F00700091D086057
:1059B00000BFC7481838006800F004040098401C75
:1059C00000900098B0F5803F01D0002CF1D0C04885
:1059D0001838006800F0040008B9002522E0BC482F
:1059E0001C3800680020BA491C3908604FF6FF7067
:1059F000B74910390860B748091F08600020B4494A
:105A00000C390860091D0860091D0860B049183983
:105A10000860AF491C310860FFF756FF08B9002540
:105A200000E00125FF20AA490860284638BDA848A3
:105A30001838006820F08000A549183908607047C0
:105A400030B504460025CA20A149086053200860EB
:105A5000FFF768FF00B91DE09D481C38006820F082
:105A600040009B491C3908600846006821680843CB
:105A700097491C39086096491439A068086008469F
:105A80000068A18840EA0140914914390860FFF795
:105A9000CEFF0125FF208E490860284630BD002139
:105AA00001607F214160FF218160704718B1FF21B3
:105AB000874A116004E0CA21854A116053211160B0
:105AC000704730B504460025CA208149086053203C
:105AD0000860FFF727FF00B914E044B17C481C3888
