:020000040800F2
:10000000D0A40020B5740008BD740008BF740008B7
:10001000C1740008C3740008C57400080000000023
:10002000000000000000000000000000C77400088D
:10003000C974000800000000CB7400080507000820
:10004000CF740008CF740008CF740008CF74000884
:10005000CF740008CF740008CF740008CF74000874
:10006000CF740008CF740008CF740008CF74000864
:10007000CF740008CF740008CF740008CF74000854
:10008000CF740008CF740008CF740008CF74000844
:10009000CF740008CF740008CF740008CF74000834
:1000A000CF740008CF740008CF740008CF74000824
:1000B000D9060008EF060008CF740008CF740008C6
:1000C000CF740008CF740008CF740008CF74000804
:1000D000CF740008190600084906000879060008D0
:1000E000CF740008CF740008CF740008CF740008E4
:1000F000CF740008CF740008CF740008CF740008D4
:10010000CF740008CF740008CF740008CF740008C3
:10011000A9060008CF740008CF740008CF74000847
:10012000CF740008CF740008CF740008CF740008A3
:10013000CF740008CF740008CF740008CF74000893
:10014000CF740008CF740008CF740008CF74000883
:10015000CF740008CF740008CF740008CF74000873
:10016000CF740008CF740008CF740008CF74000863
:10017000CF740008CF740008CF740008CF74000853
:10018000CF74000800F002F800F05BF80AA090E8D5
:10019000000C82448344AAF10107DA4501D100F042
:1001A00050F8AFF2090EBAE80F0013F0010F18BFB4
:1001B000FB1A43F00103184738BF000058BF000086
:1001C000103A24BF78C878C1FAD8520724BF30C883
:1001D00030C144BF04680C60704700000023002455
:1001E00000250026103A28BF78C1FBD8520728BF47
:1001F00030C148BF0B60704766290BF08D836429BE
:1002000007F0CC82782907F00583632908F04B803A
:10021000732908F05080002070471FB507F0E5FBF8
:1002200008F0E4F80400002000210AF06DFA401CF8
:100230006060002000210AF051FAE0601FBD10B597
:1002400010BD08F047FA1146FFF7E7FF00F0DCF8B1
:1002500008F0F0FC03B4FFF7F2FF03BC08F060FF06
:100260000B49D1F800C04A685CF8043B1068184498
:1002700042F8040B8C4528BFA1F1DC0C8A4228BF50
:10028000A1F1DC02C1F800C04A6020F000407047D4
:10029000649E002010B5002807DA0A07140EB14A40
:1002A00000F00F031B1FD45403E00A07130EAE4ADD
:1002B000135410BD10B500214FF0804006F090F9A6
:1002C00000BF4FF0804006F08FF90228F9D310BD2F
:1002D00010B5044602E0FFF7EDFF641E002CFAD1D2
:1002E00010BD10B504F0E7FD10BD10B504469F48E1
:1002F000046001E0FFF7F5FF9C4800680028F9D191
:1003000010BD10B502F0FDFC04462CB1984802F077
:100310007EFF974803F03EF810BD10B503F082FC55
:1003200010BD10B50DE0934800F00CFF0446924854
:1003300081888088401C82B28F4882808F484454D4
:1003400000BF8C4800888B4949888842EBD110BD9A
:1003500010B500F029F901220021084600F05FFBEA
:10036000FFF7BFFF10BD10B5854800684FF47A71E4
:10037000B0FBF1F4601EB0F1807F01D301200FE0EB
:10038000601E4FF0E02148610F214FF0FF30FFF772
:1003900081FF00204FF0E0218861072008610020E4
:1003A00008B100BFFEE70021481EFFF773FF10BD34
:1003B00010B507F0FFF800214FF0006004F00EFCCC
:1003C000FFF7D1FF4FF4FA60FFF78FFF4FF4E130F2
:1003D00000F074FD4FF4E13003F0B0FE4FF4E13073
:1003E00001F0DAFC00F080FCFFF77BFF01F07DF804
:1003F00000F008FD00F033FD01F07AFC012000F070
:10040000F0FAFFF76EFF10BDFFF7D2FFFFF7A0FF76
:100410005CA000F0FFFE7CE0FFF783FF534890F8FC
:100420001704642807D10020504981F81704FFF70A
:1004300074FFFFF756FF4D4890F82B04012814D1A4
:1004400000204A4981F82B0401F012F900214A48A2
:1004500081804FF48051494807F063FB4FF480518D
:100460004C4807F05EFBFFF73CFF404890F82E0435
:10047000012815D100203D4981F82E04002146486D
:10048000A0F8141801F077FD40F20D41434807F041
:100490006AFB4FF48061424807F043FBFFF721FFFE
:1004A0003F48801F407800280CDD3D48801F407881
:1004B000401E3B49891F487001F064FD4FF4FA70FB
:1004C000FFF706FF294890F82C04012807D10020E7
:1004D000264981F82C0403F0FAFAFFF702FF2348BB
:1004E00090F82D04012807D10020204981F82D041F
:1004F00003F0BCFCFFF7F5FE2A4890F874040128CD
:1005000007D10020274981F87404FFF7FAFEFFF7AE
:10051000E8FE81E710B502460B460020002100BF2F
:1005200004E0545C0444A0B24C1CA1B29942F8DB34
:1005300010BD10B545F2555004F0B4FC062004F08F
:10054000B4FC40F6FF7004F0B3FC04F0B4FC04F01B
:10055000B7FC10BD002101804180002241F204015E
:100560000A52704718ED00E000E400E0500000205F
:10057000280A002024710020248100209A100020E5
:10058000240000200D4B686F6974616F586F6E67AF
:10059000210000009A20002034950020388500209A
:1005A00030810020200C002010B500200E4981F879
:1005B000160481F81704A1F8180401200B490870EB
:1005C00000200B4908800B4981F873040A48FFF7A3
:1005D000C1FF0AA10D4807F07DF80DA10B481E30A0
:1005E00007F078F810BD0000500000202A8100209C
:1005F00098100020200C0020247100207463702EBD
:1006000061702E6E67726F6B2E696F00FB70002039
:10061000313532383400000010B540F2255185489C
:1006200006F001FF78B140F22551824806F032FF12
:10063000804806F036FE0446E1B27F4800F076FDC1
:1006400032217E48817010BD10B540F225517C48A2
:1006500006F0E9FE78B140F22551794806F01AFF1C
:10066000774806F01EFE0446E0B200F02EFD46205C
:10067000744981F8000210BD10B540F2255172484E
:1006800006F0D1FE78B140F225516F4806F002FF26
:100690006D4806F006FE0446E0B200F0D2FC1E20D3
:1006A0006A49A1F8CC0010BD10B540F22551684848
:1006B00006F0B9FE78B140F22551654806F0EAFE31
:1006C000634806F0EEFD0446E0B200F0A5FC4621CA
:1006D000604880F8121410BD10B50121880706F09B
:1006E000EEFB18B10121880706F0FAFB10BD10B52A
:1006F0000121594806F0E3FB18B10121564806F0E4
:10070000EFFB10BD5548006820B154480068401EFA
:1007100052490860514890F816040A2806DA4F48F2
:1007200090F81604401C4D4981F816044B4890F887
:100730001704642806DA494890F81704401C474912
:1007400081F817044148B0F8CC0000280EDD3F487E
:10075000B0F8CC00401E3D49A1F8CC000846B0F8E6
:10076000CC0018B901203D4981F82D04354890F896
:10077000000200280EDD334890F80002401E314987
:1007800081F80002084690F8000218B901203349A8
:1007900081F82C042948807800280EDD27488078CD
:1007A000401EC1B225488170807830B900202C49A4
:1007B00008800120294981F82B04264890F812046A
:1007C00000280EDD234890F81204401EC1B22148D3
:1007D00080F8121490F8120418B901201F4981F80A
:1007E0002E041848B0F8760447F23151884214DAE2
:1007F0001448B0F87604401C1249A1F87604084663
:10080000B0F8760447F23051884206D101200D49F4
:1008100081F874040020A1F87604704710B54FF4F5
:10082000004005F0E0FB18B14FF4004005F0F8FB84
:1008300010BD0000001001402471002098600020CD
:1008400000440040200C002000480040400B0020E5
:10085000004C00403495002000040040500000206F
:100860009810002070B505464FF47A7401E0601EC0
:1008700084B20221F74805F082FD08B9002CF6D1B8
:100880000CB9002070BD2946F24805F041FD4FF437
:100890007A7401E0601E84B20121EE4805F06FFD1C
:1008A00008B9002CF6D1EB4805F02FFDC0B2E9E7FE
:1008B00010B500242021E84804F0B2FA0520FFF723
:1008C000D1FFFF20FFF7CEFF04462021E24804F0CD
:1008D000A5FA204610BD00B587B0DE4805F0B6FB8E
:1008E0000021DC4805F0BBFC0121080304F030FDC9
:1008F0000121052004F0E8FCE020059002208DF89D
:10090000180000208DF81A008DF819008DF81B00D2
:1009100005A9D24804F006FA05221146CF4804F092
:100920008CFA05220621CD4804F087FA052207211A
:10093000CA4804F082FA0020ADF800004FF482703B
:10094000ADF802000020ADF80400ADF80600ADF8E7
:1009500008004FF40070ADF80A001020ADF80C004C
:100960000020ADF80E000720ADF810006946B94828
:1009700005F092FB0021B74805F0CCFC0121B548F9
:1009800005F06DFC01208DF8180000208DF81A008C
:100990002020059000208DF8190001208DF81B0003
:1009A00005A9AD4804F0BEF91020059005A9AA4894
:1009B00004F0B8F92021A84804F030FA2021A64814
:1009C00004F02CFA07B000BD10B52021A24804F0B5
:1009D00027FA0620FFF746FF20219F4804F01EFA61
:1009E00010BD10B50446FFF7EFFF20219A4804F030
:1009F00017FAD820FFF736FFC4F30740FFF732FF9E
:100A0000C4F30720FFF72EFFE0B2FFF72BFF2021F2
:100A1000914804F003FA0120FFF75AFC10BD70B5AD
:100A200004460D461646FFF7CFFF20218A4804F002
:100A3000F7F90220FFF716FFC4F30740FFF712FF94
:100A4000C4F30720FFF70EFFE0B2FFF70BFF03E050
:100A50002878FFF707FF6D1C301EA6F101018EB24A
:100A6000F6D120217C4804F0D9F970BD70B56FF043
:100A7000704400252021784804F0D2F90520FFF7C2
:100A8000F1FE08E00020FFF7EDFE0546641E05F0CC
:100A9000010000B101E0002CF4D100BF20216E481C
:100AA00004F0BCF970BD70B504460D461646202111
:100AB000694804F0B5F90320FFF7D4FEC4F30740FA
:100AC000FFF7D0FEC4F30720FFF7CCFEE0B2FFF73C
:100AD000C9FE04E00020FFF7C5FE2880AD1C301ED3
:100AE000A6F101018EB2F5D120215B4804F096F900
:100AF00070BD70B504460D4616462021564804F0D8
:100B00008FF90320FFF7AEFEC4F30740FFF7AAFEFC
:100B1000C4F30720FFF7A6FEE0B2FFF7A3FE04E050
:100B20000020FFF79FFE28706D1C301EA6F101010A
:100B30008EB2F5D12021484804F070F970BD70B52F
:100B400004460D4616462021434804F069F9032067
:100B5000FFF788FEC4F30740FFF784FEC4F30720C5
:100B6000FFF780FEE0B2FFF77DFE04E00020FFF714
:100B700079FE28706D1C301EA6F101018EB2F5D1F0
:100B80002021354804F04AF970BD2DE9F0470646AA
:100B90000F4615461C4695FBF4F01FFA80F895FBAE
:100BA000F4F004FB10501FFA80F9B8F1000F0EDDCD
:100BB00006E0224639463046FFF7C1FF2644274467
:100BC000B8F10000A8F101011FFA81F8F1D14A46FD
:100BD00039463046FFF7B3FFBDE8F0872DE9F04115
:100BE000002400250026002720211B4804F018F9C6
:100BF0009F20FFF737FEA320FFF734FE0546A32012
:100C0000FFF730FE0646A320FFF72CFE0746202103
:100C1000114804F003F9280440EA062040EA0704DA
:100C20002046BDE8F0812DE9F04706460D46904686
:100C30004FF000090027BA46002405F0FF0909EB30
:100C40000800B0F5807F0BDC424631462846FFF7AE
:100C5000E6FE3DE000300140000802400000024096
:100C6000C9F5807087B23A4631462846FFF7D7FE6D
:100C70000120FFF72DFBA8EB07042046E11704EB4A
:100C80001161C1F30F2A3D443E44E11704EB1161A9
:100C90000912A4EB0124BAF1000F14DD0CE04FF4AB
:100CA000807231462846FFF7BAFE06F5807605F5D4
:100CB00080750120FFF70CFBBAF10000AAF10101D9
:100CC0001FFA81FAEBD1A2B231462846FFF7A7FE00
:100CD000BDE8F08730B5034601E003F8011B141EA0
:100CE000A2F10102F9D130BD10B5FFF7F4FDFFF715
:100CF0006BFE10BD70B5054628A000F08BFA05F517
:100D00009B7404F10A0086B207E02003FFF769FE36
:100D1000601C84B2FA20FFF7DBFAB442F5DB70BD49
:100D200070B5044600250026012C01DB032C02DDF2
:100D30001EA000F06FFA012C04D0022C0CD0032C62
:100D40001ED113E01FA000F065FA22482249086076
:100D500005134FF4A07613E020A000F05BFA2348BF
:100D60001D49086005134FF4A57609E020A000F0A6
:100D700051FA23481849086005134FF4AA7600BFBA
:100D800000BF07E02803FFF72CFE681C85B2FA209D
:100D9000FFF79EFAB542F5DB70BD00000D457261AC
:100DA000736520536563746F727300000D45727232
:100DB0006F723A4E756D626572206F662050686F73
:100DC000746F20000D45726173652050686F746FF9
:100DD00020310D0001601300348500200D45726143
:100DE00073652050686F746F20320D00020014008C
:100DF0000D45726173652050686F746F20330D006C
:100E000003A014001FB50121084604F090FA1C202D
:100E10008DF8000001208DF801008DF802008DF89A
:100E20000300684603F0A5FE48F69F40ADF80400B5
:100E300040F2CF7002900020ADF80C00ADF8060033
:100E400001A94FF0804005F082FB01221146900776
:100E500006F01EF80121880705F002FC1FBD1FB532
:100E60000121022004F063FA1D208DF8000001200A
:100E70008DF801008DF802008DF80300684603F03C
:100E800078FE48F69F40ADF8040040F2E73002904B
:100E90000020ADF80C00ADF8060001A9064805F0E9
:100EA00056FB01221146044805F0F2FF01210248D9
:100EB00005F0D6FB1FBD00000004004010B588B04F
:100EC0000446F84806F0E8F80021F64806F0BAF9BA
:100ED000002240F22551F34806F06AFA0121084643
:100EE00004F0F2F90121102004F032FA072209215E
:100EF000ED4803F0A2FF07220A21EB4803F09DFF13
:100F000002208DF80C000002029002208DF80D00E6
:100F100000208DF80E0001208DF80F0002A9E24894
:100F200003F000FF02208DF80C0001208DF80F0067
:100F30008002029002208DF80D0002A9DA4803F029
:100F4000F1FE4FF4E06003F00FFE25208DF8040061
:100F500002208DF8050001208DF806008DF80700AD
:100F600001A803F006FE04940020ADF81C000C203C
:100F7000ADF81A000020ADF81800ADF81600ADF875
:100F8000140004A9C74806F0D5F8012240F2255103
:100F9000C44806F00DFA252000F01F0201219140FF
:100FA0004209920002F1E022C2F8001100BF0121C3
:100FB000BC4806F047F90121BC4803F02FFF08B0F8
:100FC00010BD0146BA480388801CC154801E0288A7
:100FD000801C805C0D2812D108E00022B4480088F3
:100FE000401C83B2B2480380801CC254B0480088C1
:100FF000B0F5805FF1DD0020AD4A10807047AC4A4B
:101000001288501CC21700EB12521213A0EB0232CE
:10101000A74B1A8000BFF1E7A649B1F81428A1F642
:10102000FC718854A349B1F81418491C40F20D42D0
:1010300091FBF2F302FB13118AB29E49A1F8142826
:1010400070479D494A88091D8854091F4988491CD1
:10105000C82291FBF2F302FB1311974A5180002240
:1010600095494B88091DCA541E21934AA2F8CC10F9
:10107000704791494A88091D8854091F4A88091DEB
:10108000895C0D2912D108E000228B494988491C4E
:101090008BB289494B80091DCA5487494988B1F5EB
:1010A000007FF1DD0021844A5180704782494988E0
:1010B000491CC82291FBF2F302FB13117E4A5180B6
:1010C0001E21A2F8CC1000BFEFE701467B48B0F824
:1010D00066027A4A11541046B0F86602105C0D2878
:1010E00015D109E000227548B0F86602401C80B2B4
:1010F000724BA3F866021A547048B0F86602B0F555
:10110000007FEFDD00206D4AA2F8660270476B4A4F
:10111000B2F86622501CC21700EBD2525212A0EB5A
:101120004222664BA3F8662200BFEFE743885A1CB1
:101130004280021DD1544288B2F5805F01DB00225B
:1011400042807047014608884B88984201D10020B0
:1011500070470B88581C0880081DC25C0888B0F5D1
:10116000805F01DB002008801046F1E710B50446DF
:1011700000BF4021524806F040F90028F9D021462E
:101180004F4806F08AF810BD10B5044600BF402154
:101190004B4806F032F90028F9D02146484806F0BD
:1011A0007CF810BD70B504460D4603E014F8010B41
:1011B000FFF7DCFF281EA5F10101CDB2F6D170BD0D
:1011C00070B504460D4603E014F8010BFFF7CEFF9F
:1011D000281EA5F10101CDB2F6D170BD10B50446AF
:1011E00000BF40212F4806F008F90028F9D0214619
:1011F0002C4806F052F810BD10B5044600BF40213F
:10120000284806F0FAF80028F9D02146254806F0CB
:1012100044F810BD70B5044602E02846FFF7DEFF33
:1012200014F8015B002DF8D170BD70B5054600249F
:1012300003E03046FFF7E0FF641C2E5D002EF8D17E
:10124000142CF6D070BD70B586B005460E4600244D
:1012500000BF08E02A5D1BA101A806F03BFA01A827
:10126000FFF7D8FF641CB442F4DB17A0FFF7D2FFEE
:1012700006B070BD70B586B005460E46002400BFAE
:1012800009E035F814200FA101A806F023FA01A8FF
:10129000FFF7C0FF641CB442F3DB0BA0FFF7BAFFFB
:1012A00006B070BD00100140000002400004024082
:1012B0009810002034950020400B0020200C0020C6
:1012C000004C0040256409000A0D000070B586B08E
:1012D00005460E46002400BF10E035F81400FF2834
:1012E00001D106B070BD35F81420AFF2280101A875
:1012F00006F0F0F901A8FFF78DFF641CB442ECDBA7
:10130000AFF23C00FFF786FF00BFEAE770B5044686
:101310000E4607E014F8015BFF2D00D170BD284692
:10132000FFF75CFF301EA6F101018EB2F2D100BFC3
:10133000F4E700002DE9D0418DB006460C46B046DA
:1013400047463A46A8A1684606F0C4F96846FFF742
:1013500061FF287C401CA070287BE070287A6071B7
:101360002879A0712878E0710DB0BDE8D08130B542
:101370008BB00446B4F87000A0F26C700590722037
:10138000005D401E04907320005D03907520005D99
:1013900002907620005D01907720005D0090684605
:1013A00006F027FC054628460BB030BD08B54FF4C3
:1013B000C06003F0D9FB29208DF8000001208DF8D2
:1013C000010000208DF8020001208DF8030068461E
:1013D00003F0CFFB08BD10B500240121080703F07E
:1013E000A6FF012003F089FD012003F066FF002025
:1013F00003F063FF012003F04DFE4FF47A7400E028
:10140000641E412003F0FFFD10B9B4F57A7FF7D0D8
:101410004FF4807003F032FF7F2075494860FF2051
:10142000886040200860084604F048F9012003F075
:1014300040FF04F087F80121082004F0BFFC10BD34
:101440001CB5044660798DF80400A0798DF805007C
:10145000E0798DF8060001A9002004F0AFF92078AA
:10146000A0F5FA60C0B28DF8030007208DF80000E7
:10147000A0788DF80100E0788DF802006946002020
:1014800004F023FA01201CBD0EB500205949C87094
:1014900010200870342048700020887004F08EF905
:1014A0000E2055498870062048701620C87000200C
:1014B00004F00BFA40F2E670ADF8000009208DF858
:1014C00002001A208DF803000C208DF80500002082
:1014D0008DF806008DF807006846FFF7B1FF4AF265
:1014E000A551002004F0F0FC0EBD10B543A0FFF79D
:1014F00091FE002004F0F5FC4AF2A551884207D085
:10150000FFF769FFFFF7C0FF42A0FFF783FE0BE084
:1015100042A0FFF77FFE0121080703F008FF01202A
:1015200003F0EBFC04F00EF810BD0EB59DF80710AB
:101530003C4880F827149DF8061080F826149DF882
:10154000051080F825149DF8031080F823149DF8E9
:10155000021080F82214BDF800003249A1F82004DE
:101560000EBD1CB5044601A9002004F089F96946A6
:10157000002004F010FA9DF8030000F5FA602080C6
:101580009DF80100A0709DF80200E0709DF8040035
:1015900060719DF80500A0719DF80600E0711CBD0A
:1015A00010B52148FFF7DDFF1F48C1791D4880F8BD
:1015B00027141D4881791B4880F826141A48417960
:1015C000184880F825141848C178164880F8231464
:1015D00015488178134880F822141348008811496F
:1015E000A1F8200410BD0000583D20256400000033
:1015F0004400002000000020040000200D4B686F14
:10160000692054616F204D6F64756C65205254439E
:101610003A2000005B4E4F5D0A0900005B594553BC
:101620005D0A09005000002038000020F0B5034694
:101630000024002019E01F5C392F02DD1F5C373FBA
:1016400001E01F5C303F3D46471CDF5D392F03DD65
:10165000471CDF5D373F02E0471CDF5D303F3E4601
:1016600046EA05171755801C641C8842E3D3F0BD79
:101670002DE9F04FADF6AC3D0024A3460020DF90ED
:10168000F7A1F84806F0BAF920B10120DF90F5483B
:1016900002F0F5F9F4A1F34806F0B0F9F0B1012039
:1016A000DF900A2200210DF53A60FFF713FB292392
:1016B00028220DF53A61EB4800F073FA0DF53A6017
:1016C00006F070F9DA904FF48062E949DA98FFF792
:1016D000EAF94FF48061E648FFF7CCFDE5A1E14867
:1016E00006F08CF9002871D00120DF900A22002139
:1016F0000DF53A60FFF7EEFADA48801E407A30388E
:10170000D849891E097A303901EB810100EB410982
:10171000D448801E017BC07A303800EB800001EB9A
:101720004000A0F13006CF48801EC17B807B30385E
:1017300000EB800001EB4000A0F13005C948801E9D
:10174000817C407C303800EB800001EB4000A0F150
:10175000300AEBB2F2B209F0FF010AF0FF0000F02C
:10176000A0FADA900E22C249DA98FFF79CF9C34832
:1017700001F038FEC149C86809F002FE07468846F4
:10178000BE49086909F0FCFDCF91CE90BB48808A24
:10179000CDE906780890CE98CDE90401B748408895
:1017A000B6490979B54A5279B44B5B7ACDE9003232
:1017B000CDE90210B148037AC27900E006E0B0A199
:1017C000E8A805F087FFE8A8FFF724FDBBA1A5481E
:1017D00006F014F968B10120DF904FF47A72B8A1D5
:1017E000B8A002F08AFBBA4802F074FBB9A002F07C
:1017F00071FBB9A19B4806F001F998B10120DF9077
:101800008202B74801689748FFF70DFA2820FEF7D3
:101810005FFDB348B3A10268E8A805F05BFFE8A844
:10182000FFF7F8FCB2A18F4806F0E8F8002834D0A2
:101830000120DF900A2200210DF53A60FFF74AFAF5
:10184000292328220DF53A61864800F0AAF90DF502
:101850003A6006F0A7F8DA904FF480628449DA988B
:10186000FFF721F90220FEF733FD93A0FFF7D2FC2A
:1018700000240AE07E4830F814209FA1E8A805F073
:1018800029FFE8A8FFF7C6FC641CB4F5806FF1DB04
:1018900000200DF6AC3DBDE8F08F99A1714806F02F
:1018A000ADF870B129232822E0A96E4800F079F93B
:1018B000DBAA0A21E0A8FFF7B9FE0521DBA8FFF7A4
:1018C0007FFC91A1674806F099F8E0B12C2328220B
:1018D000E4A9644800F065F929232C22E3A96148B2
:1018E00000F05FF9E3A806F05DF88A49C870C8788F
:1018F000FFF716FADBAA0E21E4A8FFF797FE0721EF
:10190000DBA8FFF75DFC84A1564806F077F80028B5
:1019100048D029232822E3A9524800F042F9E3A83D
:1019200006F040F87B49C870CA78C97801EB81019C
:101930004FF4967303EB410102EB0131481E012283
:10194000E3A9FFF7B0F826E07249CA78C97801EB3D
:1019500081014FF4967303EB410102EB013101EB7E
:101960000B004FF480624249FFF79DF80BF5806B46
:101970000220FEF7ADFC00240AE03D4830F81420B8
:101980005DA1E8A805F0A6FEE8A8FFF743FC641CEB
:10199000B4F5806FF1DB9DF88C13481EC0B2E39064
:1019A0000029D1D15FA12F4806F028F840B15FA1EE
:1019B000C8A800F049FB2422C8A9D1A806F07FF8E6
:1019C0005EA1284806F01AF840B15DA1C8A800F051
:1019D0003BFB2422C8A9D1A806F071F85BA12148DD
:1019E00006F00CF860B14FF451725A49684606F09F
:1019F00066F84FF4487269464CA0D29B984700BFE6
:101A000055A1184805F0FAFF18B10A2147A0D39A4A
:101A1000904753A1134805F0F1FF08B1D5988047CE
:101A200052A1104805F0EAFF10B140A0D4998847B0
:101A300000BF2EE710B502460B464FF6FF7109E0D6
:101A400010784840C0B24B4C34F8100080EA212195
:101A50005B1E521C002BF3D1C84380B210BD0000A6
:101A6000434F4D009A1000205241444400000000B2
:101A70009A4000205254494D450000009C700020BF
:101A80005265616454696D653D25643A25643A2563
:101A9000642D25642F25642F25642C204C61743D12
:101AA0002025662C204C6F6E673D2025662C205328
:101AB000706565642025640A0D0000004154000033
:101AC0004F4B0D0041542B514953454E440D0000DE
:101AD000200C00201A00000053454E440000000076
:101AE0000C0000204164643D202564200D000000AE
:101AF00052454144000000002530325800000000EB
:101B000043414D495000000054616B656150686F5E
:101B1000746F00002A8100204765746150686F74FB
:101B20006F000000437265617465000048614E6F8C
:101B3000692E4361706974616C00000048434D0078
:101B400048434D2E63697479000000005772697430
:101B500065000000ACBD0008526561640000000033
:101B60004C69737466696C650000000045726173AE
:101B70006500000018BA000870B506460D4600243E
:101B800000BF06E0285DB04201D1204670BD601C58
:101B9000C4B2284605F068FFA042F3D84FF0FF30EA
:101BA000F4E72DE9F05F0546884691469A462946B6
:101BB0004846FFF7E1FF064629465046FFF7DCFF9F
:101BC00007464FF0000B701C08B1781C10B90020BC
:101BD000BDE8F09FB81B012801DC0020F8E7701C6D
:101BE00004B208E02A5D5846411C0FFA81FB08F850
:101BF0000020601C04B2BC42F4DB0120E8E72DE9C0
:101C0000F04106460C460027002508E0605DB04222
:101C100000D17F1C022F00D106E0681CC5B220460F
:101C200005F022FFA842F1D800BF605DBDE8F08159
:101C300070B504460025FEF713FB2C4991F82714D4
:101C4000451A95FBF4F004FB105070BD70B50446C6
:101C50001E2B10DA651E05EB450606EBC505DC26D6
:101C600006EB4535C1EB011602EB8606C6EB4616C0
:101C700005EB460014E0651E05EB450606EBC505C1
:101C8000DC2606EB4535C1EB0116B600C6EB461661
:101C900005EB4605C2EB421605EB460505F11F00B4
:101CA00070BD70B504461E2B0EDA651E05EB85056A
:101CB000032606EB4535C1EB011602EB8606C6EBA3
:101CC000C60605EB86000FE0651E05EB85050326BD
:101CD00006EB4535C1EB011602EB8606C6EBC606E0
:101CE00005EB860505F10E0070BD000050000020D8
:101CF0001CB50121022003F0E7FA0121042003F0C2
:101D0000E3FA0220009001208DF8040000208DF8F5
:101D100006008DF8050001208DF8070069461C4873
:101D200003F000F8012000908DF8040000208DF8E9
:101D300006008DF8050001208DF80700694614485B
:101D400002F0F0FF4FF48070009001208DF8040045
:101D500000208DF806008DF8050001208DF80700A1
:101D600069460C4802F0DEFF1CBD10B50221084890
:101D700003F047F80446012C04D10221044803F083
:101D80004FF803E00221024803F048F810BD0000BC
:101D9000000402400008024010B588B004469C4888
:101DA00005F07AF900219A4805F04CFA002240F239
:101DB0002551974805F0FCFA0121042003F084FA2C
:101DC0000121C80403F0B3FA08220A21914803F064
:101DD00034F808220B218F4803F02FF802208DF8E9
:101DE0000C004002029002208DF80D0000208DF8BA
:101DF0000E0001208DF80F0002A9864802F092FF24
:101E000002208DF80C0001208DF80F00C002029016
:101E100002208DF80D0002A97E4802F083FF4FF4E6
:101E2000E06002F0A1FE34208DF8040002208DF85D
:101E3000050001208DF806008DF8070001A802F0CA
:101E400098FE04940020ADF81C000C20ADF81A0098
:101E50000020ADF81800ADF81600ADF8140004A984
:101E60006B4805F067F9012240F22551684805F0FA
:101E70009FFA342000F01F02012191404209920094
:101E800002F1E022C2F8001100BF0121604805F014
:101E9000D9F908B010BD2DE9F0418EB004460E46C8
:101EA0004FF480670025A846605D552807D0E81CE0
:101EB000205C232803D000200EB0BDE8F081681C10
:101EC000205C48281FD1681D205C52281BD1A81C0B
:101ED000205CB07005F10B00205C707072784EA130
:101EE000684605F0F7FB4D48C278C07800EB8000EB
:101EF0004FF4967303EB400002EB0030411E0122C9
:101F00006846FEF790FE681C205C452831D1681DAC
:101F1000205C46282DD105F10B0085B209E028464A
:101F2000691C8DB2225C4046411C1FFA81F8B11D2C
:101F30000A54381EA7F101018FB2F0D138484FF48E
:101F400080620168B01DFEF76EFE0120FEF7C0F949
:101F5000334834A1026801A805F0BCFB01A8FFF7D3
:101F600059F92F48006800F580602D490860FF206E
:101F7000A2E70120A0E710B528492948001DFFF776
:101F80008AFF10BD00B58DB0002009900A900B901B
:101F90000C9027A103C9CDE9020127A103C9CDE90E
:101FA000000102A909A805F07EFD1C48827824A141
:101FB00008A805F08FFB08A909A805F074FD1748CB
:101FC00002781FA108A805F085FB08A909A805F05B
:101FD0006AFD694609A805F066FD10480078401CB6
:101FE0000E4908700846407808B90120087004AA14
:101FF0000E2109A8FFF71AFB062104A8FFF7E0F855
:10200000002004900590069007900DB000BD0000E0
:10201000004C004000080240256300002A81002097
:10202000348500204164643D202564200D000000BB
:102030003535343500000000303032330000000008
:10204000253032580000000030B589B005460C46F6
:102050002422FB49684605F032FD20460099884756
:1020600024226946284605F02AFD09B030BD10B586
:102070000346F4491A4604E010784140F2484143CF
:10208000521C10780028F7D14FF6FE70B1FBF0F427
:1020900000FB1410411C88B210BD30B5034600206F
:1020A0000BE013F81040012505EB40055D5D44EAA7
:1020B000052421F81040441CA0B29042F1DB30BD51
:1020C00030B5034600200CE011F8104003F8104032
:1020D00031F810402412012505EB40055C55441CE5
:1020E000A0B29042F0DB30BD30B50346002017E0CF
:1020F00013F82040012505EB80055D5D44EA0524C9
:10210000022505EB80055D5D44EA0544032505EBEA
:1021100080055D5D44EA056441F82040441CA0B29E
:102120009042E5DB30BD30B5034600201CE011F8DD
:10213000204003F8204031F82040C4F30724012553
:1021400005EB80055C5551F82040C4F30744022597
:1021500005EB80055C5551F82040240E032505EB66
:1021600080055C55441CA0B29042E0DB30BD2DE9F7
:10217000F0418EB007460D46002400BF4FF03208F4
:1021800004EB0800A84201D9A5EB04081FFA88F265
:1021900007F11E01081901A9FEF7ABFC002608E0B3
:1021A00001A8805DFF2803D1A0190EB0BDE8F08121
:1021B000761C322EF4D33234AC42DFD34FF0FF30F2
:1021C000F3E72DE9FF410746A0A0FFF723F8012020
:1021D0008DF8080000241DE0C4EB0411480004221F
:1021E00001A9FEF786FC0222694601A8FFF755FF08
:1021F0003846FFF73CFFBDF80010884208D19DF833
:102200000800401CC0B28DF8080094A0FFF702F847
:10221000601CC4B21E2CDFDB00240DE0C4EB0411F3
:102220004800022203A9FEF764FC9DF80C00FF2879
:1022300000D103E0601CC4B21E2CEFDB00BF601CA9
:102240004FF6FF7101EA0035384605F00DFCC6B2C5
:102250003846FFF70CFFADF80000ADF8025002223F
:10226000694601A8FFF72CFF0522294601A8FEF7C1
:10227000DAFC0520FEF739F8691D32463846FEF7CC
:10228000D2FC0520FEF731F8C4EB04104000411DDC
:1022900032463846FEF7C7FC0520FEF726F8C4EBA9
:1022A00004104100052201A8FEF7BDFC0220FEF744
:1022B0001CF871A0FEF7AEFF284604B0BDE8F0811F
:1022C0002DE9F041ADF57F6D0746884601250024D4
:1022D0002AE0C4EB0411480005220DF6E871FEF770
:1022E00008FC022269460DF6E870FFF7D6FE384674
:1022F000FFF7BDFEBDF80010884213D1BDF80260A3
:102300009DF8EC1FA9420DD140F6E27201A906F139
:102310001E00FEF7EEFB40F6E27101A8FEF7D6FFC5
:10232000681CC5B2601CC4B21E2CD2DB012D06D1C4
:1023300056A0FEF76FFF0DF57F6DBDE8F08100BF81
:10234000F9E72DE9F74F84B00F4690464FF0000AA9
:1023500054A0FEF75FFFD1461EE0C9EB091148000B
:10236000052202A9FEF7C5FB022201A902A8FFF778
:1023700094FE0498FFF77BFEBDF80410884207D155
:102380009DF80C00504503DD9DF80CA0BDF80640FB
:1023900009F1010000F0FF09B9F11E0FDDDBBAF110
:1023A000000F05D141A0FEF735FF07B0BDE8F08F63
:1023B0004FF480512046FFF7DAFE85B208EB0500A6
:1023C000B0F5805F1BDDC5F5805086B2A8EB060036
:1023D0001FFA80FB04F11E00411932463846FEF711
:1023E00022FC38A0FEF716FF0498FFF7EAFE84B23D
:1023F00004F11E01B8195A46FEF715FC06E004F177
:102400001E00411942463846FEF70DFC0220FDF73A
:102410006CFF00BFC9E72DE9F041ADF5816D804645
:1024200000262EA0FEF7F6FE4FF4806202A90020DF
:10243000FEF75FFB0520FDF758FF00257CE000005C
:1024400018BC0008C59D1C81930100010D437265F5
:102450006174696E6720210D000000005468697383
:102460002066696C656E616D6520697320657869A9
:102470007374210D00000000436F6D706C6574650E
:102480002063726561746520210D00000D46696C42
:102490006520646F6573206E6F742065786973744E
:1024A0002100000057726974652021000D46696C97
:1024B0006520646F6573206E6F7220657869737430
:1024C000210000004372656174696E672061206EAF
:1024D00065772066696C65210D2000004572617387
:1024E00065210D00C5EB051102AA02EB4100022295
:1024F00001A9FFF7D2FD4046FFF7B9FDBDF8041072
:10250000884217D1701CC6B2002408E0FF20C5EB3A
:10251000051104EB410102AA5054601CC4B21E2CE8
:10252000F4DBBDF806703846FEF75BFA4FF4FA604C
:10253000FDF7DBFE681CC5B21E2DD3DB3EB9AFF242
:10254000B400FEF767FE0DF5816DBDE8F0816420F3
:10255000FEF747FA4FF4FA60FDF7C7FE002416E0D5
:10256000C4EB041002A911F81000FF280DD0C4EB31
:1025700004125100C4EB041202AB03EB42001E2212
:10258000FEF751FB0A20FDF7B0FE601CC4B21E2C02
:10259000E6DB1BA0FEF73EFE00BFD4E710B598B007
:1025A00000241CA0FEF736FE00BF24E0C4EB04119B
:1025B00048001E2203A9FEF79CFA022202A903A8E2
:1025C000FFF76BFD0520FDF790FEBDF80800FF2822
:1025D0000FD0BDF80A000DF11101CDE900109DF8F2
:1025E0001030224610A10BA805F074F80BA8FEF7D6
:1025F00011FE601CC4B21E2CD8DB18B010BD000048
:10260000436F6D70656C7465204572617365210D53
:10261000000000000D0909204C6973745F46696C65
:102620006573210D0000000025642E2564092573C3
:1026300009416464726573733A2025640D000000DB
:10264000FE49D1F86C14491CFC4AC2F86C141146BE
:10265000D1F86C1442F21072914203D90021F74A6A
:10266000C2F86C14242810D10021F44A82F86512B3
:10267000114691F8652291F86512491CEF4B83F8D9
:10268000651203F2012188540BE0EC4991F86522B0
:1026900091F86512491CE94B83F8651203F2012198
:1026A0008854E64991F8681201290FD1E349B1F83D
:1026B0006622B1F86612491CE04BA3F8661219466F
:1026C000885400211A46B2F866229954DB4991F8E1
:1026D000011224292ED1D94991F80212472929D172
:1026E000D64991F803124E2924D1D44991F8041205
:1026F00052291FD1D14991F805124D291AD1CF493C
:1027000091F80612432915D1CC4991F86512062992
:1027100010D1CA4991F8681261B92421C74A1170D1
:10272000472151704E2191705221D1704D2111716C
:10273000432151710021C14A82F801120022BF4990
:1027400081F8022281F8032281F8042281F805220F
:1027500081F806220621B94AA2F86612012182F800
:10276000701482F86812114691F80112242907D0DA
:10277000114691F86512062902DA002182F87014D8
:102780000D280CD1AD4991F86812012907D100211B
:10279000AA4A82F868120121A94A82F82C14A74992
:1027A00091F86512642903DB0021A44A82F86512BE
:1027B000A249B1F86612B1F5007F03DB00219F4A00
:1027C000A2F8661205219D4A82F86A14704770B516
:1027D00005460026012403E0285D4640601CC4B283
:1027E000284605F041F9401EA042F5D8304670BD9C
:1027F00030B5B7B064211EA805F0B5F9642105A86D
:1028000005F0B1F98FA2D2E901311068D268CDE9A3
:10281000023104920190002424222046641C05A960
:102820000A5447222046641C0A5450222046641C45
:102830000A5452222046641C0A544D222046641C2D
:102840000A5443222046641C0A542C222046641C4D
:102850000A547B4890F825040A2190FBF1F03030AF
:10286000C2B22046641C05A90A54754890F8250494
:102870000A2190FBF1F201FB12003030C2B2204677
:10288000641C05A90A546E4890F826040A2190FB9E
:10289000F1F03030C2B22046641C05A90A546848E1
:1028A00090F826040A2190FBF1F201FB120030306F
:1028B000C2B22046641C05A90A54614890F8270456
:1028C0000A2190FBF1F03030C2B22046641C05A909
:1028D0000A545B4890F827040A2190FBF1F201FBAF
:1028E00012003030C2B22046641C05A90A542C22C2
:1028F0002046641C0A5441222046641C0A542C229F
:102900002046641C0A540820FFF792F93130C2B205
:102910002046641C05A90A540820FFF789F93130C4
:10292000C2B22046641C05A90A540820FFF780F9AA
:102930003130C2B22046641C05A90A540820FFF7B2
:1029400077F93130C2B22046641C05A90A542E2200
:102950002046641C0A540820FFF76AF93130C2B2DD
:102960002046641C05A90A540820FFF761F931309C
:10297000C2B22046641C05A90A540820FFF758F982
:102980003130C2B22046641C05A90A540820FFF762
:102990004FF93130C2B22046641C05A90A54082000
:1029A000FFF746F93130C2B22046641C05A90A542B
:1029B0000820FFF73DF93130C2B22046641C05A95A
:1029C0000A540820FFF734F93130C2B22046641CA3
:1029D00005A90A542C222046641C0A544E22204683
:1029E000641C0A542C222046641C0A540120FFF760
:1029F0001FF93030C2B22046641C05A90A540820D1
:102A0000FFF716F93030C2B22046641C05A90A54FB
:102A10000820FFF70DF93130C2B22046641C05A929
:102A20000A540820FFF704F93130C2B22046641C72
:102A300005A90A540820FFF7FBF80BE0200C002042
:102A40005000002030313233343536373839414286
:102A5000434445463130C2B22046641C05A90A549D
:102A60002E222046641C0A540820FFF7E1F831307A
:102A7000C2B22046641C05A90A540820FFF7D8F802
:102A80003130C2B22046641C05A90A540820FFF761
:102A9000CFF83130C2B22046641C05A90A54082080
:102AA000FFF7C6F83130C2B22046641C05A90A54AB
:102AB0000820FFF7BDF83130C2B22046641C05A9DA
:102AC0000A540820FFF7B4F83130C2B22046641C23
:102AD00005A90A540820FFF7ABF83130C2B22046EE
:102AE000641C05A90A542C222046641C0A54452261
:102AF0002046641C0A542C222046641C0A540120DF
:102B0000FFF796F83030C2B22046641C05A90A547B
:102B10000120FFF78DF83130C2B22046641C05A9B0
:102B20000A540820FFF784F83130C2B22046641CF2
:102B300005A90A542E222046641C0A540820FFF7D7
:102B400077F83130C2B22046641C05A90A542C2201
:102B50002046641C0A540820FFF76AF83130C2B2DC
:102B60002046641C05A90A540820FFF761F831309B
:102B7000C2B22046641C05A90A540820FFF758F881
:102B80003130C2B22046641C05A90A542E222046C8
:102B9000641C0A540820FFF74BF83130C2B22046BB
:102BA000641C05A90A542C222046641C0A54FE48C1
:102BB00090F823040A2190FBF1F03030C2B2204695
:102BC000641C05A90A54F84890F823040A2190FBD4
:102BD000F1F201FB12003030C2B22046641C05A99C
:102BE0000A54F14890F822040A2190FBF1F03030A9
:102BF000C2B22046641C05A90A54EB4890F822048E
:102C00000A2190FBF1F201FB12003030C2B22046E3
:102C1000641C05A90A54E448B0F820044FF47A7102
:102C200090FBF1F03030C2B22046641C05A90A5472
:102C3000DD48B0F820040A2190FBF1F201FB1200FC
:102C40003030C2B22046641C05A90A542C2220460A
:102C5000641C0A542A222046641C0A5405AAD3A1E3
:102C60001EA804F037FD1EA8FFF7B1FD0546C017EA
:102C700005EB1070001101A90A5C2046641C05A92F
:102C80000A541EA8FFF7A3FD0546C01705EB1070F8
:102C90000011A5EB001001A90A5C2046641C05A9DF
:102CA0000A540A222046641C0A540D222046641C41
:102CB0000A54BF4804F0B4FE05AABCA11EA804F043
:102CC00009FD1EA8FEF7A6FA37B030BD00200AE0C5
:102CD000B7490A5CB7490A54411C89B20846B1F5A4
:102CE000007F00DB08E0B249095C0D2904D0B04A3E
:102CF000411C515C0A29EBD100BF0022AD490A54A6
:102D000070472DE9FE4300240020009001900290BE
:102D100000258146A6484078242813D1A44880780D
:102D200047280FD1A248C0784E280BD1A04800797F
:102D3000522807D19E4840794D2803D19C4880797C
:102D4000432802D00020BDE8FE83FFF7BFFF01E06B
:102D5000601CC4B29748005D2C2801D0502CF7DBD2
:102D6000601CC4B29348611C405C30389149095DD5
:102D7000303901EB810100EB4100C1B28E4880F88F
:102D80007510A01CC4B28B48611C415C3039005DD9
:102D9000303800EB800001EB4000C1B2864880F87B
:102DA0007610A01CC4B28348611C415C3039005DC0
:102DB000303800EB800001EB4000C1B27E4880F863
:102DC0007710A01CC4B201E0601CC4B27948005D59
:102DD0002C2801D0502CF7DB601CC4B27548005D74
:102DE000562804D10020744981F87E00ABE7714871
:102DF000005D412803D101206F4981F87E0001E088
:102E0000601CC4B26B48005D2C2801D0502CF7DB4D
:102E1000601CC4B26749621C895C3039654A125D26
:102E2000303A02EB820201EB420008F019FC6249E1
:102E3000C866A01CC4B209E02046611CCCB25D4942
:102E40000A5C2846691CCDB20DF800205948005D87
:102E50002C2801D0502CEFDB601CC4B2502C01DBBD
:102E6000002070E700200DF80500684606F0A8FE77
:102E7000074607F05FFC06464E48005D4E280BD122
:102E80004E49304608F00AFB07464B48C16E3846AB
:102E900008F0A2FA4849C8664648005D53280BD19D
:102EA0004649304608F0FAFA07464348C16E3846AC
:102EB00008F092FA4049C8663F49C86E404908F098
:102EC000E7FB3D49C86601E0601CC4B23948005DBB
:102ED0002C2801D0502CF7DB601CC4B2502C01DB35
:102EE000002030E700200090019002903149095DF8
:102EF0003039642251432F4A631CD25C303A02EBD2
:102F0000820201EB42032B49A21C895C303958181C
:102F100008F0A6FB28498866E01CC4B2002509E039
:102F20002046611CCCB223490A5C2846691CCDB2FC
:102F30000DF800201F48005D2C2801D0502CEFDB3D
:102F4000601CC4B200200DF80500684606F038FE8B
:102F5000074607F0EFFB06461648005D57280BD1E1
:102F60001649304608F09AFA07461348816E3846EB
:102F700008F032FA104988660F49886E104908F047
:102F800087FB0D4988660B48005D45280BD10B492E
:102F9000304608F083FA07460748816E384608F045
:102FA0001BFA054988660FE05000002025730000D9
:102FB000200C00201A070020280900200000704281
:102FC000000080BF601CC4B2FE48005D2C2801D008
:102FD000502CF7DB601CC4B20020009001900290DE
:102FE000002511E0F748005D2E2802D1601CC4B214
:102FF0000AE02046611CCCB2F2490A5C2846691CF2
:10300000CDB20DF8002000BFEE48005D2C28E9D1BC
:10301000684604F0C7FC074608F022FB8146EA49EF
:10302000484608F035FB8146E849484608F036FA3C
:103030008146484608F0F4FAC0B2E549A1F87A00A2
:1030400001E0601CC4B2DF48005D2C2801D0502C88
:10305000F7DB601CC4B2DB49095D3039642251439F
:10306000D84A631CD25C303A02EB820201EB420385
:10307000D449A21C895C3039581808F0F1FA064688
:10308000D449304608F004FB814601E0601CC4B21C
:10309000CC48005D2E2801D0502CF7DB601CC4B258
:1030A000C849621C895C3039C64A125D303A02EB6D
:1030B000820201EB420008F0D3FA06463146484648
:1030C00008F08AF98146484608F0AAFA80B26421DD
:1030D00090FBF1F7384608F0C3FABD49C1F8840007
:1030E00001E0601CC4B2B748005D2C2801D0502C10
:1030F000F7DB601CC4B2B348611C415C3039005D31
:10310000303800EB800001EB4000C1B2B04880F8DD
:103110007310A01CC4B2AB48611C415C3039005D27
:10312000303800EB800001EB4000C1B2A84880F8C5
:103130007210A01CC4B2A348611C415C3039005D10
:10314000303800EB800001EB4000A149A1F870008D
:10315000A01CC4B20846C06E9F49C8669C48806ED9
:1031600088669B48B0F87A00A1F87A00984890F8F1
:103170007510994880F87510954890F87610964823
:1031800080F87610924890F87710934880F877107E
:103190008F4890F87310904880F873108C4890F81E
:1031A00072108D4880F872108948B0F8700000F5F0
:1031B000FA608949A1F87000854890F87E0081F88E
:1031C0007E008348D0F88400C1F88400FF20BAE56F
:1031D00010B503460A4600200021194600BF0FE043
:1031E000545C302C09DB545C392C06DC00EB800489
:1031F0006000545C303C204400E006E04C1CA1B26E
:10320000545C14B1B1F5806FEADB00BF10BD2DE94D
:10321000FC5F82464FF0000B6F4890F877000F2854
:103220000DDD6D4890F8751090F876000844C2B234
:103230005846411C01F0FF0B0AF800200DE06648DB
:1032400090F8751090F876000844401EC2B25846B7
:10325000411C01F0FF0B0AF800205F48FEF787F8D9
:103260005D4948660846406E00909DF8002058462B
:10327000411C01F0FF0B0AF800209DF8012059467F
:10328000481C00F0FF0B0AF801209DF80220584668
:10329000411C01F0FF0B0AF800209DF8032058465E
:1032A000411C01F0FF0B0AF8002000224B4B104696
:1032B0004B4906F001FD06460F464749C86E08F027
:1032C0005FF8804632463B4607F04AFD044607F069
:1032D000B3FC01909DF804205846411C01F0FF0BFF
:1032E0000AF800209DF805205846411C01F0FF0B0C
:1032F0000AF800209DF806205846411C01F0FF0BFB
:103300000AF800209DF807205846411C01F0FF0BE9
:103310000AF800200022314B1046314906F0CCFC5F
:1033200004460D462C49886E08F02AF806462246C7
:103330002B4607F015FD804607F07EFC01909DF8B6
:1033400004205846411C01F0FF0B0AF800209DF8AC
:1033500005205846411C01F0FF0B0AF800209DF89B
:1033600006205846411C01F0FF0B0AF800209DF88A
:1033700007205846411C01F0FF0B0AF800201648B0
:1033800090F87A205846411C01F0FF0B0AF8002003
:10339000BDE8FC9F70B504460F4E96F8773096F85E
:1033A000762096F8751096F87300FEF77AFC0546BD
:1033B0000E2229462046FDF736FC1021204604F057
:1033C000B0FB70BD1A0700200080E7430050C346E1
:1033D000280900200000C842280A002000001840E8
:1033E0000000244001B5B2B0FCF77BFFFE484188E5
:1033F00032980180FC48801C807800F00F002190FA
:1034000007F05EFC0022F94BCDE924011046F84993
:1034100006F052FCCDE91C01F348801C4088C1171E
:103420002E9000EB11700011199007F032FCCDE9DD
:103430001A01DDE91C2307F093FC00224FF08043C2
:10344000CDE920011046EA4906F036FCCDE9180125
:10345000E548801C8088C1172D9000EB1170011188
:103460002D98A0EB0110159007F013FCCDE9160183
:10347000DDE9182307F074FC0022DE4BCDE91C01C6
:103480001046DB4906F018FCCDE91401D648801C33
:103490008088C1172C9000EB11700011119007F07B
:1034A000F8FBCDE91201DDE9142307F059FC0022F5
:1034B000D14BCDE918011046CD4906F0FDFBCDE911
:1034C0001001C948801CC088C1172B9000EB1170F7
:1034D00001112B98A0EB01100D9007F0DAFBCDE95C
:1034E0000E01DDE9102307F03BFC0022C34BCDE9C0
:1034F00014011046BE4906F0DFFBCDE90C01BA48C5
:10350000801CC088C1172A9000EB1170001109902F
:1035100007F0BFFBCDE90A01DDE90C2307F020FC31
:103520000022B74BCDE910011046B14906F0C4FBAB
:10353000CDE90801AC48801C0089C117299000EB37
:10354000117001112998A0EB0110059007F0A1FB63
:10355000CDE90601DDE9082307F002FC0022A94BB2
:10356000CDE90C011046A24906F0A6FBCDE9080101
:103570009D48801C0089C117289000EB1170001134
:10358000059007F086FBCDE90601DDE9082307F089
:10359000E7FBCDE90A01DDE90C2307F0FDF8CDE9F1
:1035A0000E01DDE9102307F0F7F8CDE91201DDE99E
:1035B000142307F0F1F8CDE91601DDE9182307F02F
:1035C000EBF8CDE91A01DDE91C2307F0E5F8CDE9B8
:1035D0001E01DDE9202307F0DFF8CDE92201DDE956
:1035E000242307F0D9F8CDE9260107F025FB2F9019
:1035F000DDE92F01FDF79EFE309801883298418069
:1036000030988178329801713098C1783298417140
:10361000309841793298C17130988179329801722D
:103620003098C179329841720022754B1046764924
:1036300006F042FBCDE924016B48801C807A00F043
:103640000F001D9007F03CFB0022684BCDE92001E4
:103650001046674906F030FBCDE918016248801C2E
:103660004089C1172E9000EB11700011159007F0E2
:1036700010FBCDE91601DDE9182307F071FB0022EC
:103680004FF08043CDE91C011046594906F014FB68
:10369000CDE914015448801C8089C1172D9000EB9E
:1036A000117001112D98A0EB0110119007F0F1FAA3
:1036B000CDE91201DDE9142307F052FB00224D4B46
:1036C000CDE9180110464A4906F0F6FACDE9100195
:1036D0004548801C8089C1172C9000EB11700011A7
:1036E0000D9007F0D6FACDE90E01DDE9102307F0C1
:1036F00037FB0022404BCDE9140110463C4906F04F
:10370000DBFACDE90C013848801CC089C1172B9029
:1037100000EB117001112B98A0EB0110099007F03C
:10372000B8FACDE90A01DDE90C2307F019FB002204
:10373000324BCDE9100110462D4906F0BDFACDE916
:1037400008012948801CC089C1172A9000EB11701C
:103750000011059007F09DFACDE90601DDE9082387
:1037600007F0FEFA0022264BCDE90C011046204955
:1037700006F0A2FACDE904011B48801C008AC1179B
:10378000299000EB117001112998A0EB0110019014
:1037900007F07FFACDE90201DDE9042307F0E0FA42
:1037A0000022184BCDE908011046114906F084FAB1
:1037B000CDE904010C48801C008AC117289000EB59
:1037C00011700011019007F064FACDE90201DDE902
:1037D000042307F0C5FACDE90601DDE9082306F068
:1037E000DBFFCDE90A0111E0984000200000F03F26
:1037F000000030400000084000001040000014406D
:103800000000184000001C4000002440DDE90C23AB
:1038100006F0C2FFCDE90E01DDE9102306F0BCFF82
:10382000CDE91201DDE9142306F0B6FFCDE916015A
:10383000DDE9182306F0B0FFCDE91A01DDE91C230C
:1038400006F0AAFFCDE91E01DDE9202306F0A4FF62
:10385000CDE92201DDE9242307F05AF8CDE926015C
:1038600006F068FF329908610022A24B1046A24977
:1038700006F022FACDE92401A048807C00F00F0078
:103880001D9007F01DFA00229D4BCDE92001104646
:103890009C4906F011FACDE918019848408AC117F1
:1038A0002E9000EB11700011159007F0F2F9CDE9A0
:1038B0001601DDE9182307F053FA00224FF0804388
:1038C000CDE91C0110468F4906F0F6F9CDE9140147
:1038D0008A48808AC1172D9000EB117001112D9834
:1038E000A0EB0110119007F0D4F9CDE91201DDE948
:1038F000142307F035FA0022834BCDE91801104656
:10390000804906F0D9F9CDE910017C48808AC117B9
:103910002C9000EB117000110D9007F0BAF9CDE971
:103920000E01DDE9102307F01BFA0022774BCDE9E9
:1039300014011046734906F0BFF9CDE90C016F4838
:10394000C08AC1172B9000EB117001112B98A0EBCE
:103950000110099007F09DF9CDE90A01DDE90C237A
:1039600007F0FEF900226A4BCDE9100110466549C7
:1039700006F0A2F9CDE908016048C08AC1172A9073
:1039800000EB11700011059007F083F9CDE90601F5
:10399000DDE9082307F0E4F90022564BCDE90C01DC
:1039A0001046584906F088F9CDE904015348008BC8
:1039B000C117299000EB117001112998A0EB01109B
:1039C000019007F066F9CDE90201DDE9042307F073
:1039D000C7F900224F4BCDE908011046494906F0CE
:1039E0006BF9CDE904014548008BC117289000EB25
:1039F00011700011019007F04CF9CDE90201DDE9E9
:103A0000042307F0ADF9CDE90601DDE9082306F04E
:103A1000C3FECDE90A01DDE90C2306F0BDFECDE9C8
:103A20000E01DDE9102306F0B7FECDE91201DDE954
:103A3000142306F0B1FECDE91601DDE9182306F0E6
:103A4000ABFECDE91A01DDE91C2306F0A5FECDE9A8
:103A50001E01DDE9202306F09FFECDE92201DDE90C
:103A6000242306F055FFCDE9260106F063FE3299C6
:103A7000C8602248418B3298818233B000BD70B556
:103A8000044621460420FFF7A3FBC5B2012D04D054
:103A9000022D0AD0032D18D10FE01FA0FDF7BAFBAD
:103AA0000120254981F873040FE024A0FDF7B2FB43
:103AB0000020214981F8730407E027A0FDF7AAFB45
:103AC00001201D4981F8720400BF00BF70BD00B520
:103AD00099B0194890F87304012808D1164A26A114
:103AE000684603F0F7FD6846FDF794FB00BF19B088
:103AF00000BD000000001840000024409A40002053
:103B00000000F03F0000304000000840000010407E
:103B10000000144000001C402A2A2A2A2048696517
:103B20006E207468692062616E2074696E2047504F
:103B300053202A2A2A2A0D00200C00202A2A2A2A69
:103B4000205461742062616E2074696E2047505366
:103B5000202A2A2A2A0D00002A2A2A2A0D486965C5
:103B60006E207468692074686F69206769616E2AC5
:103B70002A2A2A0D000000000D4750533A202573D1
:103B80000000000030B587B00020069000F086F9F4
:103B90004FF4FA7285A186A000F0AFF9002837D063
:103BA00085A1874803F02AFF08B107B030BD85A181
:103BB000834803F023FF48B3002400BF18E0804887
:103BC000005D3A280ED17E48611C405C8DF81800DB
:103BD0007B48A11C405C8DF819007948E11C405CD1
:103BE0008DF81A0006A803F0DDFEC5B2601CC4B251
:103BF000734803F039FFA042E1D82A4673A101A817
:103C000003F068FD01A8FDF705FB00BFFCF769FBA9
:103C100000BFCAE7704988700021694A121FA2F8E4
:103C2000D610704700B595B014226CA103A803F01C
:103C300046FF6FA0006802906CA000680190FCF73E
:103C400050FB6C4890F8570438B96A48B0F85804EB
:103C5000401C6849A1F8580403E000206549A1F818
:103C600058046548007805280DDD64A0FDF7D2FAF8
:103C700000205349091FA1F8D60001205649887039
:103C800000205D4908705448807820B1012812D086
:103C900002287FD114E0FCF724FB00204849091FCB
:103CA000A1F8D6005348D0F85C04401C10B902209B
:103CB000FFF7B0FF6EE0FCF714FB00F0B5FE69E023
:103CC000FCF70FFB00204B4981F857043C48001FCC
:103CD000B0F8D60005280AD14DA000F0FBF84FF04F
:103CE000FF304449C1F85C044CA0FDF793FA344816
:103CF000001FB0F8D6000A282AD14FF0FF303D4906
:103D0000C1F85C0403A9494803F08AFE48494748C2
:103D100003F0C9FE02A9454803F0C5FE44491E311F
:103D2000424803F0C0FE01A9404803F0BCFE3F48F2
:103D300000F0D0F83E4A1E323EA108A803F0CAFCAB
:103D400008A8FDF767FA2C480078401C2A4908703B
:103D50001B48001FB0F8D6000A280DDD2548D0F812
:103D60005C04012808D10020FFF754FF38A0FDF7BC
:103D700051FA0020204908701148001FB0F8D60001
:103D8000C82807DD1B48D0F85C04012802D00220B7
:103D9000FFF740FF00BF0A48001FB0F8D600401CE4
:103DA0000749091FA1F8D60015B000BD4F4B0D0003
:103DB00041542B4353510D004552524F52000000C5
:103DC000440B00202B435351000000002B43535160
:103DD0003D2025640D0000000900002041542B51B6
:103DE000494F50454E3D22544350222C22000000A2
:103DF000222C220050000020120000200D5265737A
:103E00006574204D6F64756C652047534D0D090036
:103E100041542B5149434C4F53450D00436C6F7334
:103E20006520436F6E6E6563740D00004C9D00202D
:103E3000FB7000204B6574206E6F692064656E20F6
:103E4000646961206368693A2025730D00000000F1
:103E50000D475052533A204B6574206E6F692073A2
:103E60006572766572204F4B0000000010B506A108
:103E7000084803F0C3FD20B101200749C1F85C04E4
:103E800010BD00BFFCE70000434F4E4E4543542099
:103E90004F4B0000440B00205000002010B50020C4
:103EA000FC494880FC4981F82C04C8220021F948CB
:103EB000001DFCF70FFF10BD10B5044600BF4021E8
:103EC000F64803F09AFA0028F9D02146F34803F0A7
:103ED000E4F910BD10B504460BE02078FFF7ECFFC5
:103EE000FCF7FFF9EB48007810B12078FDF776F980
:103EF000641C20780028F0D110BD2DE9F041054662
:103F00000E4614460027FFF7C9FFFCF7EAF92846DA
:103F1000FFF7E0FF0020E04981F82D041BE0DE48B8
:103F200090F82D0468B13146DA48001D03F066FDB3
:103F300008B1012711E0FFF7B1FF0020D64981F851
:103F40002D04D54890F816040A2804DB0A3C00200A
:103F5000D14981F81604002CE1D100BF3846BDE8F4
:103F6000F08110B50024CEA0FDF754F900BF0FE09A
:103F70004FF49672D1A1D2A0FFF7BFFF20B1D1A01C
:103F8000FDF748F9012010BDFCF7ABF9601CC4B285
:103F9000052CEDDBCDA0FDF73DF90020F3E770B572
:103FA00000250024002600BF00BFFCF79AF9FFF7A8
:103FB000D8FF04460CB1012070BD0CB1012E0FDDFD
:103FC0008021C44800F02CFF4FF4FA70FCF780F910
:103FD0008021C04800F022FF4FF4FA70FCF778F916
:103FE00005B9E2E70120E7E710B5C8220021A9489A
:103FF000001DFCF76FFE0020A6494880A1F8CC0008
:10400000C1F8D000A1F8D60010BD1CB501210420D4
:1040100001F05AF90121102001F056F900208DF825
:1040200006008DF8070001208DF804008020009024
:1040300003208DF805006946A64800F073FE402075
:1040400000906946A34800F06DFE4021A14800F0B1
:10405000E5FE80219F4800F0E1FE1CBD10B588B050
:1040600004468E4803F018F800218C4803F0EAF863
:10407000002240F22551894803F09AF90121880471
:1040800001F055F90121022001F01EF907220A2151
:10409000914800F0D2FE07220B218F4800F0CDFEA0
:1040A00002208DF81C0000208DF81E004FF4806067
:1040B000069001208DF81F0000208DF81D0006A934
:1040C000854800F02FFE02208DF81C00800206902B
:1040D00001208DF81F0006A97F4800F023FE0294FE
:1040E0000020ADF80C00ADF80E00ADF81000ADF8F2
:1040F00014000C20ADF8120002A9684803F01AF869
:104100004FF4E06000F030FD27208DF8040002201D
:104110008DF805008DF8060001208DF8070001A834
:1041200000F027FD012240F225515C4803F040F9E0
:1041300001215A4803F086F808B010BD10B50446B6
:104140002046FFF78BFFFFF760FFFFF74DFF10BD25
:1041500070B505460E46002400BF04E0285DFFF759
:10416000ABFE601C84B2B442F8DB70BD10B5FCF746
:10417000B8F85AA0FDF74EF84FF47A724FA15DA03F
:10418000FFF7BBFE4FF47A724CA15DA0FFF7B5FEBE
:104190004FF47A7249A15DA0FFF7AFFE4FF47A7237
:1041A00046A15DA0FFF7A9FE4FF47A7243A15DA07E
:1041B000FFF7A3FE4FF47A7240A15DA0FFF79DFECA
:1041C0004FF47A723DA15DA0FFF797FE4FF47A722B
:1041D0003AA15DA0FFF791FE4FF47A7237A15DA07E
:1041E000FFF78BFE4FF47A7234A15DA0FFF785FED6
:1041F0004FF47A7231A15DA0FFF77FFE4FF47A721F
:104200002EA15DA0FFF779FE4FF47A722BA15DA07D
:10421000FFF773FE4FF47A7228A15DA0FFF76DFEE1
:104220004FF47A7225A15DA0FFF767FE10BD10B5AF
:10423000FFF79CFF10BD00205B49087002208870CA
:10424000002048701349A1F8D600134981F857049B
:1042500081F82D04704710B5002454A0FCF7DAFF54
:1042600000BF0EE0642215A155A0FFF746FE18B16D
:1042700014A0FCF7CFFF06E014A0FCF7CBFF601CF6
:10428000C4B2052CEEDB00BF1420FCF721F8FCF7CC
:1042900028F89DE0400B002050000020004800401E
:1042A0000D4B69656D20547261204B6574204E6F13
:1042B00069204D6F64756C65203A20004F4B0D00EE
:1042C00041540D005B5945535D0D00005B4E4F5D41
:1042D0000D000000000802400004024044656C65C7
:1042E000746520313520534D53204D6573736167DC
:1042F000650D000041542B434D47443D310D0000F6
:1043000041542B434D47443D320D000041542B4353
:104310004D47443D330D000041542B434D47443D30
:10432000340D000041542B434D47443D350D0000F2
:1043300041542B434D47443D360D000041542B431F
:104340004D47443D370D000041542B434D47443DFC
:10435000380D000041542B434D47443D390D0000BA
:1043600041542B434D47443D31300D0041542B43C4
:104370004D47443D31310D0041542B434D47443DA1
:1043800031320D0041542B434D47443D31330D0034
:1043900041542B434D47443D31340D0041542B4390
:1043A0004D47443D31350D00090000204164642033
:1043B000616E2049504865616465723A00000000F2
:1043C00041542B5149484541443D310D0000000006
:1043D000FDA0FCF71FFF002411E06422AFF22411BE
:1043E000FEA0FFF78AFD20B1AFF22810FCF712FF04
:1043F00007E0AFF22810FCF70DFF601CC4B2052CDB
:10440000EBDB00BF1420FBF763FFFBF76AFFF7A0AD
:10441000FCF700FF002411E06422AFF26011F7A066
:10442000FFF76BFD20B1AFF26410FCF7F3FE07E07D
:10443000AFF26810FCF7EEFE601CC4B2052CEBDB9B
:1044400000BF1420FBF744FFFBF74BFFEFA0FCF786
:10445000E1FE002411E06422AFF2A011F0A0FFF70A
:104460004CFD20B1AFF2A410FCF7D4FE07E0AFF290
:10447000A410FCF7CFFE601CC4B2052CEBDB00BF20
:104480001420FBF725FFFBF72CFFE9A0FCF7C2FE89
:10449000002411E06422AFF2DC11E8A0FFF72DFD4B
:1044A00020B1AFF2E010FCF7B5FE07E0AFF2E41088
:1044B000FCF7B0FE601CC4B2052CEBDB00BF14207F
:1044C000FBF706FFFBF70DFFDFA0FCF7A3FE0024C0
:1044D00012E04FF4FA72AFF21C21E3A0FFF70DFDDA
:1044E00020B1AFF22020FCF795FE07E0AFF22420C8
:1044F000FCF790FE601CC4B2052CEADB00BF142060
:10450000FBF7E6FEDBA0FCF785FE002412E04FF48B
:10451000FA72AFF25821DEA0FFF7EFFC20B1AFF244
:104520005C20FCF777FE07E0AFF26020FCF772FE3C
:10453000601CC4B2052CEADB00BF1420FBF7C8FEE8
:10454000FBF7CFFE10BDF0B58DB005466427002403
:104550000026FBF7C6FEFFF7A1FC1DB9D0A0FFF7B0
:10456000B9FC02E0B5A0FFF7B5FC0020CE4981F808
:104570002D0437E0CC4890F82D0428B300241DE02A
:10458000CA48005D302814DDC848005D392810DABB
:104590003DB9C648025D3046711CCEB2C4490A54CA
:1045A00007E0C248025D3046711CCEB2C0491431EA
:1045B0000A54142E00DB06E0601CC4B2BB4803F0B2
:1045C00053FAA042DCD800BFB74890F816040A2876
:1045D00006DBA7F10A0087B20020B34981F8160470
:1045E000FBF77FFE002FC5D145B9B14AB1A168469E
:1045F00003F070F86846FCF70DFE08E0AC4A143290
:10460000B0A1684603F066F86846FCF703FE0DB0FB
:10461000F0BD70B50025002412E04FF49672AFF2A1
:104620006431AFF26430FFF768FC18B1A9A0FCF761
:10463000F1FD07E0681CC5B2C820FBF749FE641C09
:10464000052CEADB00BFFBF74CFE002423E03222FE
:1046500000219748FCF73EFB0020FFF774FF9248CB
:1046600090F82F04A0B1904890F8300480B18E48A3
:1046700090F8310460B18C4890F8320440B18A4817
:1046800090F8330420B1884890F8340400B1152420
:10469000FBF727FE641C052CD9DBC820FBF718FEAE
:1046A000002424E03222002181481430FCF712FB60
:1046B0000120FFF748FF7C4890F84304A0B17A48F6
:1046C00090F8440480B1784890F8450460B1764889
:1046D00090F8460440B1744890F8470420B17248FD
:1046E00090F8480400B11524FBF7FBFD641C052C71
:1046F000D8DBC820FBF7ECFD7EA0FCF78BFD002487
:1047000011E06422AFF24C417FA0FFF7F6FB20B12D
:10471000AFF25040FCF77EFD07E0AFF25040FCF7EF
:1047200079FD0125641C052CEBDB00BF1420FBF791
:10473000CFFDFBF7D6FD76A0FCF76CFD002411E061
:104740006422AFF2884177A0FFF7D7FB20B1AFF228
:104750008C40FCF75FFD07E0AFF29040FCF75AFD9C
:104760000125641C052CEBDB00BF1420FBF7B0FD1A
:10477000FBF7B7FD6DA0FCF74DFD002411E06422AE
:10478000AFF2C8416CA0FFF7B8FB20B1AFF2CC404C
:10479000FCF740FD07E0AFF2CC40FCF73BFD012504
:1047A000641C052CEBDB00BF1420FBF791FDFBF72D
:1047B00098FD64A0FCF72EFD012D03D06422AFF21A
:1047C0000451CBE0D8E0000053656C656374206150
:1047D00020436F6E74657874203A000041542B5169
:1047E000494647434E543D300D00000053656C650B
:1047F0006374205443502F4950203A0041542B51A8
:10480000494D4F44453D300D000000005374617226
:1048100074205443502F4950205461736B203A0048
:1048200041542B51495245474150500D0000000062
:1048300053686F7720434349443A000041542B5159
:10484000434349440D0000004E6574776F726B203E
:10485000526567697374726174696F6E2053746115
:104860007475733A0000000041542B435245473D94
:10487000320D0000436F6E6E656374207769746853
:1048800020495020416464726573733A000000004F
:1048900041542B5149444E5349503D310D000000C5
:1048A00041542B47534E0D0050000020440B002074
:1048B0007F04002047534D5F494D45493A202573F9
:1048C0000D00000053494D5F494D45493A2025737D
:1048D0000D0000002A2A2A2A2A2A2A436F6E6669B6
:1048E000677572652047534D2A2A2A2A2A2A2A0DDB
:1048F0000000000047534D5F446566696E655F5078
:10490000726F66696C653A0041545A0D00000000F0
:1049100047534D5F4563686F5F436F6D6D616E64B4
:104920003A0000004154450D0000000047534D5F20
:104930004154434C49503A0041542B434C49503D5B
:10494000310D00005361766520436F6E66696775AF
:1049500072652043757272656E743A004EA0FFF75F
:10496000CCFA20B1AFF2A460FCF754FC04E0AFF243
:10497000A460FCF74FFC01251420FBF7A9FCFBF712
:10498000B0FC47A0FCF746FC00240FE06422AFF225
:10499000D4614AA0FFF7B1FA18B14BA0FCF73AFC7A
:1049A00006E04BA0FCF736FC0125641C052CEDDB72
:1049B00000BF1420FBF78CFCFBF793FC47A0FCF72F
:1049C00029FC002411E04FF49672AFF210714CA054
:1049D000FFF793FA20B1AFF21470FCF71BFC06E06E
:1049E000AFF21870FCF716FC641C052CEBDB00BF63
:1049F0001420FBF76DFCFBF774FC70BD10B5FFF7DE
:104A000008FE3220FBF771FCFFF725FC3220FBF794
:104A10006CFCFFF710FC3220FBF767FCFFF707FC8C
:104A200000203C49488010BD10B53A48B0F8D60087
:104A30000A2812D004DC022807D004282AD105E075
:104A4000642812D0A02825D117E023E032A0FCF77B
:104A5000E1FB38A0FFF73EFA1CE039A0FCF7DAFBD7
:104A600080213B4800F0DCF914E03AA0FCF7D2FBCF
:104A70008021374800F0D2F90CE0FFF7BFFF4FF07C
:104A8000FF303849C1F85C04002081F85704FFF773
:104A9000C1F800BF00BF10BD415426570D000000F3
:104AA00053656C65637420534D53204D657373617A
:104AB000676520466F726D61743A000041542B4364
:104AC0004D47463D310D00005B544558545D0D0087
:104AD0005B4552524F525D0D00000000534D532074
:104AE000466F726D617428537561206C6169206C2A
:104AF000656E6820415420736175293A00000000FA
:104B000041542B434E4D493D322C312C302C300D2D
:104B100000000000400B00200D20546875632068E1
:104B200069656E20544154206D6F64756C65204733
:104B3000534D0D0041542B51504F57443D310D0002
:104B4000544154204E47554F4E2047534D0D0000C1
:104B500000080240424154204E47554F4E204753D3
:104B60004D0D00005000002032490143324A1160CF
:104B7000704770B5002100230F22C4781CB32E4C5F
:104B8000246804F4E064C4F5E064C4F30721C1F1CF
:104B90000404E3B20A4144789C40E1B284781440B2
:104BA00021430C07210E254C05786155047804F04B
:104BB0001F050124AC4005786D11AD0005F1E0251D
:104BC000C5F8004109E0047804F01F050124AC4059
:104BD0001B4D0678761145F8264070BD194A0A40EB
:104BE0000243154B1B1F1A60704739B1124A121D40
:104BF00012680243104B1B1D1A6006E00E4A121D7C
:104C0000126882430C4B1B1D1A607047042808D1A0
:104C10004FF0E021096941F004014FF0E0221161F9
:104C200007E04FF0E021096921F004014FF0E02294
:104C3000116170470000FA050CED00E000E400E0AF
:104C400080E100E080FFFF1F10B504468C488442DD
:104C500008D10121084600F08CFB0021012000F062
:104C600088FB5EE08748844208D10121022000F0E1
:104C700080FB0021022000F07CFB52E0824884424D
:104C800008D10121042000F074FB0021042000F071
:104C900070FB46E07D48844208D10121082000F0E5
:104CA00068FB0021082000F064FB3AE07848844269
:104CB00008D10121102000F05CFB0021102000F041
:104CC00058FB2EE07348844208D10121202000F0D7
:104CD00050FB0021202000F04CFB22E06E48844273
:104CE00008D10121402000F044FB0021402000F0C9
:104CF00040FB16E06948844208D10121802000F081
:104D000038FB0021802000F034FB0AE06448844234
:104D100007D10121801500F02CFB0021A01500F027
:104D200028FB10BDF0B50A4600210023002400BF77
:104D30003DE0012505FA01F3156805EA03049C42EC
:104D400034D105684F000326BE40B5430560157990
:104D50004E00B5400668354305601579012D02D037
:104D60001579022D16D185684F000326BE40B54344
:104D7000856055794E00B540866835438560456845
:104D800001268E40B5434560456896798E40B6B29F
:104D900035434560C5684F000326BE40B543C56036
:104DA000D5794E00B540C6683543C560491C102909
:104DB000BFD3F0BD4FF6FF71016000210171417159
:104DC0008171C171704708B54FF480320092009A2A
:104DD0000A430092009AC261C161009AC261C2692D
:104DE0000092C269009208BD0246002013690B4080
:104DF0000BB1012000E0002070470146086980B235
:104E000070470246002053690B400BB1012000E0BF
:104E1000002070470146486980B27047018370479F
:104E2000418370470AB1018300E0418370474161CB
:104E3000704742694A4042617047F0B50023002440
:104E40004D07ED0E02FA05F3CE1000F1200555F8DE
:104E500026504E07F70E0F26BE40B543CF1000F187
:104E6000200646F82750CE1000F1200555F82650B0
:104E700045EA0304CE1000F1200545F82640F0BDB8
:104E8000000002400004024000080240000C024002
:104E9000001002400014024000180240001C0240B2
:104EA000002002400E49086070470D494860704775
:104EB0000B49886070474AF6AA2009490860704784
:104EC0004CF6CC4006490860704701460020044A71
:104ED000D2680A400AB1012000E0002070470000BB
:104EE0000030004010B50121080700F088FA0021C9
:104EF0004FF0805000F083FA10BD2D4908627047D2
:104F0000014600202B4A106820F0E00008431060A2
:104F100070472749086170472549A03108607047EC
:104F20002349A4310860704721494862704710B591
:104F3000024600201F4B186820F003001043186041
:104F40001D4B1B6843F004031B4C2360012901D156
:104F500030BF00E020BF184B1B6823F00403164C41
:104F6000236010BD1348006840F004001149086038
:104F70000846006840F0020008600F48006840F0F2
:104F800004000D49086000BF00BF30BF70470146F4
:104F90000020084A52680A400AB1012000E00020BF
:104FA00070470449096841EA8001024A116070476C
:104FB00000000E420070004010ED00E0FA4800686A
:104FC00040F00100F84908600020F7490831086006
:104FD000F5480068F5490840F3490860F448091DA0
:104FE0000860081F006820F48020091F0860002066
:104FF000ED490C31086070470021EB4A921C11709A
:1050000011460870704710B50146002200230020A9
:105010004A11012A02D1E44C236808E0022A03D194
:10502000E14C7034236802E0DF4C7434236801F0F3
:105030001F02012494401C400CB1012000E000201C
:1050400010BD38B5002000900024002500BF31209D
:10505000FFF7D9FF05460098401C00900098B0F576
:10506000A06F01D0002DF2D03120FFF7CCFF08B1A6
:10507000012400E00024204638BD01460020CA4A31
:10508000106820F0F80040EAC10010607047C9497C
:10509000086070470021C44A7032117011700128F5
:1050A00002D004280AD104E00121BF4A70321170F5
:1050B00005E00521BC4A7032117000E000BF00BF5E
:1050C0007047BD490860704770B5049C41EA82157D
:1050D0000126C6EB530645EA0645054345EA046545
:1050E000B14E361D356070BDB24908667047820109
:1050F00042EA0172AC4B84331A607047AD4988664E
:105100007047AC49C864704702460020A64B08337C
:10511000186820F0EC6042EA01031843A24B083300
:1051200018607047024600209F4B0833186820F033
:10513000784042EA010318439B4B083318607047DC
:1051400001460020984A0832106820F00300084306
:105150001060704794480830006800F00C007047F9
:1051600001460020904A0832106820F0F000084301
:1051700010607047014600208B4A0832106820F406
:10518000E05008431060704701460020864A08320C
:10519000106820F4604040EAC10010607047F0B52C
:1051A0000021002200240225002602237E4F08371A
:1051B0003F6807F00C0121B1042905D0082937D137
:1051C00005E07E4F076036E07D4F076033E0764FA5
:1051D0003F1D3F68C7F38056734F3F1D3F6807F080
:1051E0003F036EB1764FB7FBF3F7DFF8BCC10CF1AC
:1051F000040CDCF800C0CCF3881C07FB0CF40CE0BA
:105200006E4FB7FBF3F7DFF8A0C10CF1040CDCF82C
:1052100000C0CCF3881C07FB0CF4634F3F1D3F68B4
:10522000C7F301477F1C7D00B4FBF5F7076002E080
:10523000624F076000BF00BF5B4F08373F6807F051
:10524000F00109095F4F7A5C0768D7404760564F05
:1052500008373F6807F4E051890A5A4F7A5C47687B
:10526000D7408760504F08373F6807F46041490BCB
:10527000544F7A5C4768D740C760F0BD002100F406
:105280004072B2F5407F0AD1474A0832116821F4D2
:10529000F8114D4A02401143434A08321160424A14
:1052A00070321268C0F30B031A433F4B70331A601D
:1052B000704741494439086070473F4940390860A8
:1052C000704742490860704739B1374A3032126836
:1052D0000243354B30331A6006E0334A30321268ED
:1052E0008243314B30331A60704739B12E4A343221
:1052F000126802432C4B34331A6006E02A4A3432D7
:1053000012688243284B34331A60704739B1264AF9
:10531000383212680243244B38331A6006E0224ABE
:10532000383212688243204B38331A60704739B1E3
:105330001D4A4032126802431B4B40331A6006E09C
:10534000194A403212688243174B40331A60704743
:1053500039B1154A443212680243134B44331A6080
:1053600006E0114A4432126882430F4B44331A60FC
:10537000704739B10C4A1032126802430A4B10339D
:105380001A6006E0084A103212688243064B103356
:105390001A607047E1B1044A143212680243024BAA
:1053A00014331A6019E0000000380240FFFFF6FED7
:1053B0001030002400004742800E47420024F400D1
:1053C00000127A0013000020FFFCFF0F5C0147422F
:1053D0005B4A126882435A4B1A60704739B1584A87
:1053E000121D12680243564B1B1D1A6006E0544AF8
:1053F000121D12688243524B1B1D1A60704739B14F
:105400004F4A0C32126802434D4B0C331A6006E0CF
:105410004B4A0C3212688243494B0C331A60704776
:1054200039B1474A103212680243454B10331A60B3
:1054300006E0434A103212688243414B10331A602F
:10544000704739B13E4A3C32126802433C4B3C3310
:105450001A6006E03A4A3C3212688243384B3C33C9
:105460001A60704739B1364A403212680243344BF1
:1054700040331A6006E0324A403212688243304BB1
:1054800040331A60704739B12D4A443212680243E2
:105490002B4B44331A6006E0294A44321268824397
:1054A000274B44331A60704739B1254A4C32126891
:1054B0000243234B4C331A6006E0214A4C321268F7
:1054C00082431F4B4C331A60704739B11C4A50322B
:1054D000126802431A4B50331A6006E0184A5032E1
:1054E00012688243164B50331A60704739B1144A20
:1054F000D21F12780243124BDB1F1A7006E0104ACB
:10550000D21F127882430E4BDB1F1A7070470C4873
:105510006030006840F08070094960310860704771
:1055200001460020064A083A12680A400AB10120E2
:1055300000E0002070470249891F08707047000092
:105540001438024008B50022009200200021CA222F
:10555000FE4B1A6053221A60FC4A183A126822F075
:10556000A002FA4B183B1A6000BFF84A183A1268BA
:1055700002F02001009A521C0092009AB2F5004FEE
:1055800001D00029F1D0F14A183A126802F0200245
:105590000AB1012000E00020FF22EC4B1A6008BD98
:1055A00008B50022009200200021E84A183A12684B
:1055B00002F04002E2B9421EE44B183B1A6000BF01
:1055C000E24A183A126802F04001009A521C009216
:1055D000009AB2F5803F01D00029F1D0DB4A183A99
:1055E000126802F040020AB1012002E0002000E04F
:1055F000012008BD38B50020009000240025CA20F5
:10560000D249086053200860FFF7CAFF00B947E09D
:105610000020CE492439086042F20110091D0860BB
:10562000081D006800F00700091D086000BFC7489A
:105630001838006800F004040098401C009000989E
:10564000B0F5803F01D0002CF1D0C0481838006878
:1056500000F0040008B9002522E0BC481C380068AE
:105660000020BA491C3908604FF6FF70B74910395D
:105670000860B748091F08600020B4490C39086069
:10568000091D0860091D0860B04918390860AF4954
:105690001C310860FFF756FF08B9002500E001251E
:1056A000FF20AA490860284638BDA8481838006875
:1056B00020F08000A54918390860704730B50446CD
:1056C0000025CA20A149086053200860FFF768FF41
:1056D00000B91DE09D481C38006820F040009B493F
:1056E0001C390860084600682168084397491C393E
:1056F000086096491439A068086008460068A188C7
:1057000040EA0140914914390860FFF7CEFF0125B6
:10571000FF208E490860284630BD002101607F21AE
:105720004160FF218160704718B1FF21874A1160F5
:1057300004E0CA21854A116053211160704730B5D9
:1057400004460025CA208149086053200860FFF7FD
:1057500027FF00B914E044B17C481C38006840F0D1
:1057600010007A491C39086007E078481C38006846
:1057700020F0100075491C390860FFF796FF0125DD
:10578000FF2072490860284630BD0146002204E02F
:10579000501CC2B2A1F10A00C1B20A29F8DA1007FE
:1057A00041EA10607047014600BF080900EB800025
:1057B000420001F00F001044C0B270472DE9F041E3
:1057C00005460C460026002755B960481C3800687D
:1057D00000F0400000B102E00020E07000BF0EE0E9
:1057E0005A481C38006800F0400020B12078FFF7CC
:1057F000DAFF064602E00020E07000BF00BF55B1AE
:1058000020780004617840EA0120A1780843E1781B
:1058100040EA014611E02078FFF7B7FF4FEA004861
:105820006078FFF7B2FF48EA0028A078FFF7ADFFE5
:1058300048EA0008E07848EA0046CA204349086080
:1058400053200860FFF7ACFE08B900270CE0414880
:1058500030403E4924390860FFF727FFFFF772FE0A
:1058600008B9002700E00127FF20384908603846C2
:10587000BDE8F0810021C1700170417081707047F6
:1058800070B506460C46002530482438006831497A
:1058900000EA0105C5F305402070C5F306206070DD
:1058A00005F07F00A07005F48000000CE0705EB988
:1058B0002078FFF778FF20706078FFF774FF607042
:1058C000A078FFF770FFA07070BD2DE9F04105468C
:1058D0000C46002600274DB9607800F01000102813
:1058E00004D1607820F010000A30607005B908E03B
:1058F0006078FFF758FF0646A078FFF754FF06468A
:1059000000BF55B1E0780004617840EA0120A17839
:105910000843217840EA413611E0E078FFF735FF8F
:105920004FEA00486078FFF730FF48EA0028A07887
:10593000FFF72BFF48EA0008207848EA4036CA20E3
:10594000024908605320086006E000002428004057
:10595000FF007F007F7F7F00FFF722FE08B900274E
:105960000BE0FC483040FC490860FFF79EFEFFF763
:10597000E9FD08B9002700E00127FF20F6492031A2
:1059800008603846BDE8F0810121017081704170E6
:105990000021C170704770B506460C460025EE48E0
:1059A0000068EC4900EA0105280CE070C5F304200A
:1059B000607005F03F00A070C5F3423020705EB902
:1059C000E078FFF7F0FEE0706078FFF7ECFE6070C3
:1059D000A078FFF7E8FEA07070BD2DE9F041054604
:1059E0000E46144600276DB9DB48001D006800F024
:1059F000400000B102E00020E07000BFA06800B9E4
:105A00001AE019E0D448001D006800F0400020B101
:105A10002078FFF7C8FE074602E00020E07000BFD4
:105A2000A06820B9207BFFF7BEFE074604E0207B7C
:105A3000FFF7B9FE074600BF95B1207800046178F2
:105A400040EA0120A1780843E17840EA0140217B47
:105A500040EA0160A1680843616840EA01071BE071
:105A60002078FFF792FE4FEA00486078FFF78DFE3E
:105A700048EA0028A078FFF788FE48EA0008E078A6
:105A800048EA0048207BFFF780FE48EA0060A168F2
:105A90000843616840EA0107CA20AF492031086025
:105AA00053200860B6F5807F03D1AB4818300760FB
:105AB00002E0A9481C300760FF20A7492031086098
:105AC000BDE8F0810021C17001704170817081607A
:105AD000012101730021416070472DE9F041064624
